{
  "contractName": "ICESmartContract",
  "abi": [
    {
      "inputs": [],
      "stateMutability": "nonpayable",
      "type": "constructor"
    },
    {
      "anonymous": false,
      "inputs": [
        {
          "indexed": false,
          "internalType": "uint256",
          "name": "id",
          "type": "uint256"
        }
      ],
      "name": "CompanyCreated",
      "type": "event"
    },
    {
      "anonymous": false,
      "inputs": [
        {
          "indexed": false,
          "internalType": "uint256",
          "name": "id",
          "type": "uint256"
        }
      ],
      "name": "MachineCreated",
      "type": "event"
    },
    {
      "anonymous": false,
      "inputs": [
        {
          "indexed": false,
          "internalType": "uint256",
          "name": "id",
          "type": "uint256"
        }
      ],
      "name": "MeasureConstraintCreated",
      "type": "event"
    },
    {
      "anonymous": false,
      "inputs": [
        {
          "indexed": false,
          "internalType": "uint256",
          "name": "id",
          "type": "uint256"
        }
      ],
      "name": "MeasureCreated",
      "type": "event"
    },
    {
      "anonymous": false,
      "inputs": [
        {
          "indexed": false,
          "internalType": "uint256",
          "name": "id",
          "type": "uint256"
        }
      ],
      "name": "PhaseCreated",
      "type": "event"
    },
    {
      "anonymous": false,
      "inputs": [
        {
          "indexed": false,
          "internalType": "uint256",
          "name": "id",
          "type": "uint256"
        }
      ],
      "name": "ProductCreated",
      "type": "event"
    },
    {
      "anonymous": false,
      "inputs": [
        {
          "indexed": false,
          "internalType": "uint256",
          "name": "id",
          "type": "uint256"
        }
      ],
      "name": "RecipeCreated",
      "type": "event"
    },
    {
      "anonymous": false,
      "inputs": [
        {
          "indexed": false,
          "internalType": "uint256",
          "name": "id",
          "type": "uint256"
        }
      ],
      "name": "RecipeStepCreated",
      "type": "event"
    },
    {
      "inputs": [
        {
          "internalType": "uint256",
          "name": "",
          "type": "uint256"
        }
      ],
      "name": "companies",
      "outputs": [
        {
          "internalType": "uint256",
          "name": "id",
          "type": "uint256"
        },
        {
          "internalType": "string",
          "name": "name",
          "type": "string"
        }
      ],
      "stateMutability": "view",
      "type": "function"
    },
    {
      "inputs": [
        {
          "internalType": "uint256",
          "name": "",
          "type": "uint256"
        }
      ],
      "name": "machines",
      "outputs": [
        {
          "internalType": "uint256",
          "name": "id",
          "type": "uint256"
        },
        {
          "internalType": "string",
          "name": "name",
          "type": "string"
        },
        {
          "internalType": "string",
          "name": "description",
          "type": "string"
        },
        {
          "internalType": "uint256",
          "name": "companyId",
          "type": "uint256"
        }
      ],
      "stateMutability": "view",
      "type": "function"
    },
    {
      "inputs": [
        {
          "internalType": "uint256",
          "name": "",
          "type": "uint256"
        }
      ],
      "name": "measureConstraints",
      "outputs": [
        {
          "internalType": "uint256",
          "name": "id",
          "type": "uint256"
        },
        {
          "internalType": "string",
          "name": "name",
          "type": "string"
        },
        {
          "internalType": "int256",
          "name": "maxMeasure",
          "type": "int256"
        },
        {
          "internalType": "int256",
          "name": "minMeasure",
          "type": "int256"
        },
        {
          "internalType": "string",
          "name": "unitOfMeasure",
          "type": "string"
        },
        {
          "internalType": "uint256",
          "name": "recipeStepId",
          "type": "uint256"
        },
        {
          "internalType": "uint256",
          "name": "machineId",
          "type": "uint256"
        }
      ],
      "stateMutability": "view",
      "type": "function"
    },
    {
      "inputs": [
        {
          "internalType": "uint256",
          "name": "",
          "type": "uint256"
        }
      ],
      "name": "measures",
      "outputs": [
        {
          "internalType": "uint256",
          "name": "id",
          "type": "uint256"
        },
        {
          "internalType": "string",
          "name": "name",
          "type": "string"
        },
        {
          "internalType": "uint256",
          "name": "measure",
          "type": "uint256"
        },
        {
          "internalType": "string",
          "name": "unitOfMeasure",
          "type": "string"
        },
        {
          "internalType": "uint256",
          "name": "measureStartTime",
          "type": "uint256"
        },
        {
          "internalType": "uint256",
          "name": "measureEndTime",
          "type": "uint256"
        },
        {
          "internalType": "uint256",
          "name": "phaseId",
          "type": "uint256"
        },
        {
          "internalType": "uint256",
          "name": "measureConstraintId",
          "type": "uint256"
        }
      ],
      "stateMutability": "view",
      "type": "function"
    },
    {
      "inputs": [
        {
          "internalType": "uint256",
          "name": "",
          "type": "uint256"
        }
      ],
      "name": "phases",
      "outputs": [
        {
          "internalType": "uint256",
          "name": "id",
          "type": "uint256"
        },
        {
          "internalType": "string",
          "name": "name",
          "type": "string"
        },
        {
          "internalType": "string",
          "name": "description",
          "type": "string"
        },
        {
          "internalType": "uint256",
          "name": "productId",
          "type": "uint256"
        },
        {
          "internalType": "uint256",
          "name": "machineId",
          "type": "uint256"
        },
        {
          "internalType": "uint256",
          "name": "recipeStepId",
          "type": "uint256"
        }
      ],
      "stateMutability": "view",
      "type": "function"
    },
    {
      "inputs": [
        {
          "internalType": "uint256",
          "name": "",
          "type": "uint256"
        }
      ],
      "name": "products",
      "outputs": [
        {
          "internalType": "uint256",
          "name": "id",
          "type": "uint256"
        },
        {
          "internalType": "string",
          "name": "name",
          "type": "string"
        },
        {
          "internalType": "string",
          "name": "description",
          "type": "string"
        },
        {
          "internalType": "uint256",
          "name": "companyId",
          "type": "uint256"
        },
        {
          "internalType": "uint256",
          "name": "recipeId",
          "type": "uint256"
        }
      ],
      "stateMutability": "view",
      "type": "function"
    },
    {
      "inputs": [
        {
          "internalType": "uint256",
          "name": "",
          "type": "uint256"
        }
      ],
      "name": "recipeSteps",
      "outputs": [
        {
          "internalType": "uint256",
          "name": "id",
          "type": "uint256"
        },
        {
          "internalType": "string",
          "name": "name",
          "type": "string"
        },
        {
          "internalType": "string",
          "name": "description",
          "type": "string"
        },
        {
          "internalType": "uint256",
          "name": "recipeId",
          "type": "uint256"
        },
        {
          "internalType": "uint256",
          "name": "machineId",
          "type": "uint256"
        }
      ],
      "stateMutability": "view",
      "type": "function"
    },
    {
      "inputs": [
        {
          "internalType": "uint256",
          "name": "",
          "type": "uint256"
        }
      ],
      "name": "recipes",
      "outputs": [
        {
          "internalType": "uint256",
          "name": "id",
          "type": "uint256"
        },
        {
          "internalType": "string",
          "name": "name",
          "type": "string"
        },
        {
          "internalType": "string",
          "name": "description",
          "type": "string"
        },
        {
          "internalType": "uint256",
          "name": "companyId",
          "type": "uint256"
        }
      ],
      "stateMutability": "view",
      "type": "function"
    },
    {
      "inputs": [
        {
          "internalType": "address",
          "name": "admin",
          "type": "address"
        }
      ],
      "name": "addAdmin",
      "outputs": [],
      "stateMutability": "nonpayable",
      "type": "function"
    },
    {
      "inputs": [
        {
          "internalType": "address",
          "name": "dataProviderUser",
          "type": "address"
        }
      ],
      "name": "addDataProvider",
      "outputs": [],
      "stateMutability": "nonpayable",
      "type": "function"
    },
    {
      "inputs": [],
      "name": "getUserType",
      "outputs": [
        {
          "internalType": "enum ICESmartContract.USER_TYPE",
          "name": "userType",
          "type": "uint8"
        }
      ],
      "stateMutability": "view",
      "type": "function"
    },
    {
      "inputs": [
        {
          "internalType": "string",
          "name": "name",
          "type": "string"
        }
      ],
      "name": "addCompany",
      "outputs": [
        {
          "internalType": "uint256",
          "name": "companyId",
          "type": "uint256"
        }
      ],
      "stateMutability": "nonpayable",
      "type": "function"
    },
    {
      "inputs": [
        {
          "internalType": "uint256",
          "name": "companyId",
          "type": "uint256"
        },
        {
          "internalType": "string",
          "name": "name",
          "type": "string"
        },
        {
          "internalType": "string",
          "name": "description",
          "type": "string"
        }
      ],
      "name": "addMachine",
      "outputs": [
        {
          "internalType": "uint256",
          "name": "machineId",
          "type": "uint256"
        }
      ],
      "stateMutability": "nonpayable",
      "type": "function"
    },
    {
      "inputs": [
        {
          "internalType": "uint256",
          "name": "companyId",
          "type": "uint256"
        },
        {
          "internalType": "string",
          "name": "name",
          "type": "string"
        },
        {
          "internalType": "string",
          "name": "description",
          "type": "string"
        }
      ],
      "name": "addRecipe",
      "outputs": [
        {
          "internalType": "uint256",
          "name": "recipeId",
          "type": "uint256"
        }
      ],
      "stateMutability": "nonpayable",
      "type": "function"
    },
    {
      "inputs": [
        {
          "internalType": "uint256",
          "name": "recipeId",
          "type": "uint256"
        },
        {
          "internalType": "uint256",
          "name": "machineId",
          "type": "uint256"
        },
        {
          "internalType": "string",
          "name": "name",
          "type": "string"
        },
        {
          "internalType": "string",
          "name": "description",
          "type": "string"
        }
      ],
      "name": "addRecipeStep",
      "outputs": [
        {
          "internalType": "uint256",
          "name": "recipeStepId",
          "type": "uint256"
        }
      ],
      "stateMutability": "nonpayable",
      "type": "function"
    },
    {
      "inputs": [
        {
          "internalType": "uint256",
          "name": "recipeStepId",
          "type": "uint256"
        },
        {
          "internalType": "uint256",
          "name": "machineId",
          "type": "uint256"
        },
        {
          "internalType": "string",
          "name": "name",
          "type": "string"
        },
        {
          "internalType": "int256",
          "name": "maxMeasure",
          "type": "int256"
        },
        {
          "internalType": "int256",
          "name": "minMeasure",
          "type": "int256"
        },
        {
          "internalType": "string",
          "name": "unitOfMeasure",
          "type": "string"
        }
      ],
      "name": "addMeasureConstraint",
      "outputs": [
        {
          "internalType": "uint256",
          "name": "measureId",
          "type": "uint256"
        }
      ],
      "stateMutability": "nonpayable",
      "type": "function"
    },
    {
      "inputs": [
        {
          "internalType": "uint256",
          "name": "companyId",
          "type": "uint256"
        },
        {
          "internalType": "uint256",
          "name": "recipyId",
          "type": "uint256"
        },
        {
          "internalType": "string",
          "name": "name",
          "type": "string"
        },
        {
          "internalType": "string",
          "name": "description",
          "type": "string"
        }
      ],
      "name": "addProduct",
      "outputs": [
        {
          "internalType": "uint256",
          "name": "productId",
          "type": "uint256"
        }
      ],
      "stateMutability": "nonpayable",
      "type": "function"
    },
    {
      "inputs": [
        {
          "internalType": "uint256",
          "name": "productId",
          "type": "uint256"
        },
        {
          "internalType": "uint256",
          "name": "machineId",
          "type": "uint256"
        },
        {
          "internalType": "uint256",
          "name": "recipeStepId",
          "type": "uint256"
        },
        {
          "internalType": "string",
          "name": "name",
          "type": "string"
        },
        {
          "internalType": "string",
          "name": "description",
          "type": "string"
        }
      ],
      "name": "addPhase",
      "outputs": [
        {
          "internalType": "uint256",
          "name": "phaseId",
          "type": "uint256"
        }
      ],
      "stateMutability": "nonpayable",
      "type": "function"
    },
    {
      "inputs": [
        {
          "internalType": "uint256",
          "name": "phaseId",
          "type": "uint256"
        },
        {
          "internalType": "uint256",
          "name": "measureConstraintId",
          "type": "uint256"
        },
        {
          "internalType": "string",
          "name": "name",
          "type": "string"
        },
        {
          "internalType": "uint256",
          "name": "measure",
          "type": "uint256"
        },
        {
          "internalType": "string",
          "name": "unitOfMeasure",
          "type": "string"
        },
        {
          "internalType": "uint256",
          "name": "measureStartTime",
          "type": "uint256"
        },
        {
          "internalType": "uint256",
          "name": "measureEndTime",
          "type": "uint256"
        }
      ],
      "name": "addMeasure",
      "outputs": [
        {
          "internalType": "uint256",
          "name": "measureId",
          "type": "uint256"
        }
      ],
      "stateMutability": "nonpayable",
      "type": "function"
    },
    {
      "inputs": [
        {
          "internalType": "uint256",
          "name": "companyId",
          "type": "uint256"
        }
      ],
      "name": "getCompanyById",
      "outputs": [
        {
          "components": [
            {
              "internalType": "uint256",
              "name": "id",
              "type": "uint256"
            },
            {
              "internalType": "string",
              "name": "name",
              "type": "string"
            }
          ],
          "internalType": "struct ICESmartContract.Company",
          "name": "company",
          "type": "tuple"
        }
      ],
      "stateMutability": "view",
      "type": "function"
    },
    {
      "inputs": [
        {
          "internalType": "uint256",
          "name": "recipeId",
          "type": "uint256"
        }
      ],
      "name": "getRecipebyId",
      "outputs": [
        {
          "components": [
            {
              "internalType": "uint256",
              "name": "id",
              "type": "uint256"
            },
            {
              "internalType": "string",
              "name": "name",
              "type": "string"
            },
            {
              "internalType": "string",
              "name": "description",
              "type": "string"
            },
            {
              "internalType": "uint256",
              "name": "companyId",
              "type": "uint256"
            }
          ],
          "internalType": "struct ICESmartContract.Recipe",
          "name": "recipe",
          "type": "tuple"
        }
      ],
      "stateMutability": "view",
      "type": "function"
    },
    {
      "inputs": [
        {
          "internalType": "uint256",
          "name": "recipeStepId",
          "type": "uint256"
        }
      ],
      "name": "getRecipeStepbyId",
      "outputs": [
        {
          "components": [
            {
              "internalType": "uint256",
              "name": "id",
              "type": "uint256"
            },
            {
              "internalType": "string",
              "name": "name",
              "type": "string"
            },
            {
              "internalType": "string",
              "name": "description",
              "type": "string"
            },
            {
              "internalType": "uint256",
              "name": "recipeId",
              "type": "uint256"
            },
            {
              "internalType": "uint256",
              "name": "machineId",
              "type": "uint256"
            }
          ],
          "internalType": "struct ICESmartContract.RecipeStep",
          "name": "recipeStep",
          "type": "tuple"
        }
      ],
      "stateMutability": "view",
      "type": "function"
    },
    {
      "inputs": [
        {
          "internalType": "uint256",
          "name": "measureConstraintId",
          "type": "uint256"
        }
      ],
      "name": "getMeasureConstraintById",
      "outputs": [
        {
          "components": [
            {
              "internalType": "uint256",
              "name": "id",
              "type": "uint256"
            },
            {
              "internalType": "string",
              "name": "name",
              "type": "string"
            },
            {
              "internalType": "int256",
              "name": "maxMeasure",
              "type": "int256"
            },
            {
              "internalType": "int256",
              "name": "minMeasure",
              "type": "int256"
            },
            {
              "internalType": "string",
              "name": "unitOfMeasure",
              "type": "string"
            },
            {
              "internalType": "uint256",
              "name": "recipeStepId",
              "type": "uint256"
            },
            {
              "internalType": "uint256",
              "name": "machineId",
              "type": "uint256"
            }
          ],
          "internalType": "struct ICESmartContract.MeasureConstraint",
          "name": "measureConstraint",
          "type": "tuple"
        }
      ],
      "stateMutability": "view",
      "type": "function"
    },
    {
      "inputs": [
        {
          "internalType": "uint256",
          "name": "productId",
          "type": "uint256"
        }
      ],
      "name": "getProductById",
      "outputs": [
        {
          "components": [
            {
              "internalType": "uint256",
              "name": "id",
              "type": "uint256"
            },
            {
              "internalType": "string",
              "name": "name",
              "type": "string"
            },
            {
              "internalType": "string",
              "name": "description",
              "type": "string"
            },
            {
              "internalType": "uint256",
              "name": "companyId",
              "type": "uint256"
            },
            {
              "internalType": "uint256",
              "name": "recipeId",
              "type": "uint256"
            }
          ],
          "internalType": "struct ICESmartContract.Product",
          "name": "product",
          "type": "tuple"
        }
      ],
      "stateMutability": "view",
      "type": "function"
    },
    {
      "inputs": [
        {
          "internalType": "uint256",
          "name": "phaseId",
          "type": "uint256"
        }
      ],
      "name": "getPhaseById",
      "outputs": [
        {
          "components": [
            {
              "internalType": "uint256",
              "name": "id",
              "type": "uint256"
            },
            {
              "internalType": "string",
              "name": "name",
              "type": "string"
            },
            {
              "internalType": "string",
              "name": "description",
              "type": "string"
            },
            {
              "internalType": "uint256",
              "name": "productId",
              "type": "uint256"
            },
            {
              "internalType": "uint256",
              "name": "machineId",
              "type": "uint256"
            },
            {
              "internalType": "uint256",
              "name": "recipeStepId",
              "type": "uint256"
            }
          ],
          "internalType": "struct ICESmartContract.Phase",
          "name": "phase",
          "type": "tuple"
        }
      ],
      "stateMutability": "view",
      "type": "function"
    },
    {
      "inputs": [
        {
          "internalType": "uint256",
          "name": "measureId",
          "type": "uint256"
        }
      ],
      "name": "getMeasureById",
      "outputs": [
        {
          "components": [
            {
              "internalType": "uint256",
              "name": "id",
              "type": "uint256"
            },
            {
              "internalType": "string",
              "name": "name",
              "type": "string"
            },
            {
              "internalType": "uint256",
              "name": "measure",
              "type": "uint256"
            },
            {
              "internalType": "string",
              "name": "unitOfMeasure",
              "type": "string"
            },
            {
              "internalType": "uint256",
              "name": "measureStartTime",
              "type": "uint256"
            },
            {
              "internalType": "uint256",
              "name": "measureEndTime",
              "type": "uint256"
            },
            {
              "internalType": "uint256",
              "name": "phaseId",
              "type": "uint256"
            },
            {
              "internalType": "uint256",
              "name": "measureConstraintId",
              "type": "uint256"
            }
          ],
          "internalType": "struct ICESmartContract.Measure",
          "name": "measure",
          "type": "tuple"
        }
      ],
      "stateMutability": "view",
      "type": "function"
    },
    {
      "inputs": [
        {
          "internalType": "uint256",
          "name": "machineId",
          "type": "uint256"
        }
      ],
      "name": "getMachineById",
      "outputs": [
        {
          "components": [
            {
              "internalType": "uint256",
              "name": "id",
              "type": "uint256"
            },
            {
              "internalType": "string",
              "name": "name",
              "type": "string"
            },
            {
              "internalType": "string",
              "name": "description",
              "type": "string"
            },
            {
              "internalType": "uint256",
              "name": "companyId",
              "type": "uint256"
            }
          ],
          "internalType": "struct ICESmartContract.Machine",
          "name": "machine",
          "type": "tuple"
        }
      ],
      "stateMutability": "view",
      "type": "function"
    },
    {
      "inputs": [
        {
          "internalType": "uint256",
          "name": "companyId",
          "type": "uint256"
        }
      ],
      "name": "getProductsByCompanyId",
      "outputs": [
        {
          "components": [
            {
              "internalType": "uint256",
              "name": "id",
              "type": "uint256"
            },
            {
              "internalType": "string",
              "name": "name",
              "type": "string"
            },
            {
              "internalType": "string",
              "name": "description",
              "type": "string"
            },
            {
              "internalType": "uint256",
              "name": "companyId",
              "type": "uint256"
            },
            {
              "internalType": "uint256",
              "name": "recipeId",
              "type": "uint256"
            }
          ],
          "internalType": "struct ICESmartContract.Product[]",
          "name": "",
          "type": "tuple[]"
        }
      ],
      "stateMutability": "view",
      "type": "function"
    },
    {
      "inputs": [
        {
          "internalType": "uint256",
          "name": "recipeId",
          "type": "uint256"
        }
      ],
      "name": "getProductsByRecipyId",
      "outputs": [
        {
          "components": [
            {
              "internalType": "uint256",
              "name": "id",
              "type": "uint256"
            },
            {
              "internalType": "string",
              "name": "name",
              "type": "string"
            },
            {
              "internalType": "string",
              "name": "description",
              "type": "string"
            },
            {
              "internalType": "uint256",
              "name": "companyId",
              "type": "uint256"
            },
            {
              "internalType": "uint256",
              "name": "recipeId",
              "type": "uint256"
            }
          ],
          "internalType": "struct ICESmartContract.Product[]",
          "name": "",
          "type": "tuple[]"
        }
      ],
      "stateMutability": "view",
      "type": "function"
    },
    {
      "inputs": [
        {
          "internalType": "uint256",
          "name": "companyId",
          "type": "uint256"
        }
      ],
      "name": "getNumOfMachinesByCompanyId",
      "outputs": [
        {
          "internalType": "uint256",
          "name": "numOfMachines",
          "type": "uint256"
        }
      ],
      "stateMutability": "view",
      "type": "function"
    },
    {
      "inputs": [
        {
          "internalType": "uint256",
          "name": "companyId",
          "type": "uint256"
        }
      ],
      "name": "getMachinesByCompanyId",
      "outputs": [
        {
          "components": [
            {
              "internalType": "uint256",
              "name": "id",
              "type": "uint256"
            },
            {
              "internalType": "string",
              "name": "name",
              "type": "string"
            },
            {
              "internalType": "string",
              "name": "description",
              "type": "string"
            },
            {
              "internalType": "uint256",
              "name": "companyId",
              "type": "uint256"
            }
          ],
          "internalType": "struct ICESmartContract.Machine[]",
          "name": "",
          "type": "tuple[]"
        }
      ],
      "stateMutability": "view",
      "type": "function"
    },
    {
      "inputs": [
        {
          "internalType": "uint256",
          "name": "companyId",
          "type": "uint256"
        }
      ],
      "name": "getNumOfRecipesByCompanyId",
      "outputs": [
        {
          "internalType": "uint256",
          "name": "numOfRecepes",
          "type": "uint256"
        }
      ],
      "stateMutability": "view",
      "type": "function"
    },
    {
      "inputs": [
        {
          "internalType": "uint256",
          "name": "companyId",
          "type": "uint256"
        }
      ],
      "name": "getRecipesByCompanyId",
      "outputs": [
        {
          "components": [
            {
              "internalType": "uint256",
              "name": "id",
              "type": "uint256"
            },
            {
              "internalType": "string",
              "name": "name",
              "type": "string"
            },
            {
              "internalType": "string",
              "name": "description",
              "type": "string"
            },
            {
              "internalType": "uint256",
              "name": "companyId",
              "type": "uint256"
            }
          ],
          "internalType": "struct ICESmartContract.Recipe[]",
          "name": "",
          "type": "tuple[]"
        }
      ],
      "stateMutability": "view",
      "type": "function"
    },
    {
      "inputs": [
        {
          "internalType": "uint256",
          "name": "recipeId",
          "type": "uint256"
        }
      ],
      "name": "getNumOfRecipeStepsByRecipeId",
      "outputs": [
        {
          "internalType": "uint256",
          "name": "numOfRecepes",
          "type": "uint256"
        }
      ],
      "stateMutability": "view",
      "type": "function"
    },
    {
      "inputs": [
        {
          "internalType": "uint256",
          "name": "recipeId",
          "type": "uint256"
        }
      ],
      "name": "getRecipeStepsByRecipeId",
      "outputs": [
        {
          "components": [
            {
              "internalType": "uint256",
              "name": "id",
              "type": "uint256"
            },
            {
              "internalType": "string",
              "name": "name",
              "type": "string"
            },
            {
              "internalType": "string",
              "name": "description",
              "type": "string"
            },
            {
              "internalType": "uint256",
              "name": "recipeId",
              "type": "uint256"
            },
            {
              "internalType": "uint256",
              "name": "machineId",
              "type": "uint256"
            }
          ],
          "internalType": "struct ICESmartContract.RecipeStep[]",
          "name": "",
          "type": "tuple[]"
        }
      ],
      "stateMutability": "view",
      "type": "function"
    },
    {
      "inputs": [
        {
          "internalType": "uint256",
          "name": "machineId",
          "type": "uint256"
        }
      ],
      "name": "getNumOfRecipeStepsByMachineId",
      "outputs": [
        {
          "internalType": "uint256",
          "name": "numOfRecepes",
          "type": "uint256"
        }
      ],
      "stateMutability": "view",
      "type": "function"
    },
    {
      "inputs": [
        {
          "internalType": "uint256",
          "name": "machineId",
          "type": "uint256"
        }
      ],
      "name": "getRecipeStepsByMachineId",
      "outputs": [
        {
          "components": [
            {
              "internalType": "uint256",
              "name": "id",
              "type": "uint256"
            },
            {
              "internalType": "string",
              "name": "name",
              "type": "string"
            },
            {
              "internalType": "string",
              "name": "description",
              "type": "string"
            },
            {
              "internalType": "uint256",
              "name": "recipeId",
              "type": "uint256"
            },
            {
              "internalType": "uint256",
              "name": "machineId",
              "type": "uint256"
            }
          ],
          "internalType": "struct ICESmartContract.RecipeStep[]",
          "name": "",
          "type": "tuple[]"
        }
      ],
      "stateMutability": "view",
      "type": "function"
    },
    {
      "inputs": [
        {
          "internalType": "uint256",
          "name": "recipeStepId",
          "type": "uint256"
        }
      ],
      "name": "getNumOfMeasureConstraintByRecipeStepId",
      "outputs": [
        {
          "internalType": "uint256",
          "name": "numOfMeasureConstraints",
          "type": "uint256"
        }
      ],
      "stateMutability": "view",
      "type": "function"
    },
    {
      "inputs": [
        {
          "internalType": "uint256",
          "name": "recipeStepId",
          "type": "uint256"
        }
      ],
      "name": "getMeasureConstraintsByRecipeStepId",
      "outputs": [
        {
          "components": [
            {
              "internalType": "uint256",
              "name": "id",
              "type": "uint256"
            },
            {
              "internalType": "string",
              "name": "name",
              "type": "string"
            },
            {
              "internalType": "int256",
              "name": "maxMeasure",
              "type": "int256"
            },
            {
              "internalType": "int256",
              "name": "minMeasure",
              "type": "int256"
            },
            {
              "internalType": "string",
              "name": "unitOfMeasure",
              "type": "string"
            },
            {
              "internalType": "uint256",
              "name": "recipeStepId",
              "type": "uint256"
            },
            {
              "internalType": "uint256",
              "name": "machineId",
              "type": "uint256"
            }
          ],
          "internalType": "struct ICESmartContract.MeasureConstraint[]",
          "name": "",
          "type": "tuple[]"
        }
      ],
      "stateMutability": "view",
      "type": "function"
    },
    {
      "inputs": [
        {
          "internalType": "uint256",
          "name": "productId",
          "type": "uint256"
        }
      ],
      "name": "getNumOfPhasesByProductId",
      "outputs": [
        {
          "internalType": "uint256",
          "name": "numOfPhases",
          "type": "uint256"
        }
      ],
      "stateMutability": "view",
      "type": "function"
    },
    {
      "inputs": [
        {
          "internalType": "uint256",
          "name": "productId",
          "type": "uint256"
        }
      ],
      "name": "getPhasesByProductId",
      "outputs": [
        {
          "components": [
            {
              "internalType": "uint256",
              "name": "id",
              "type": "uint256"
            },
            {
              "internalType": "string",
              "name": "name",
              "type": "string"
            },
            {
              "internalType": "string",
              "name": "description",
              "type": "string"
            },
            {
              "internalType": "uint256",
              "name": "productId",
              "type": "uint256"
            },
            {
              "internalType": "uint256",
              "name": "machineId",
              "type": "uint256"
            },
            {
              "internalType": "uint256",
              "name": "recipeStepId",
              "type": "uint256"
            }
          ],
          "internalType": "struct ICESmartContract.Phase[]",
          "name": "",
          "type": "tuple[]"
        }
      ],
      "stateMutability": "view",
      "type": "function"
    },
    {
      "inputs": [
        {
          "internalType": "uint256",
          "name": "machineId",
          "type": "uint256"
        }
      ],
      "name": "getNumOfPhasesByMachineId",
      "outputs": [
        {
          "internalType": "uint256",
          "name": "numOfPhases",
          "type": "uint256"
        }
      ],
      "stateMutability": "view",
      "type": "function"
    },
    {
      "inputs": [
        {
          "internalType": "uint256",
          "name": "machineId",
          "type": "uint256"
        }
      ],
      "name": "getPhasesByMachineId",
      "outputs": [
        {
          "components": [
            {
              "internalType": "uint256",
              "name": "id",
              "type": "uint256"
            },
            {
              "internalType": "string",
              "name": "name",
              "type": "string"
            },
            {
              "internalType": "string",
              "name": "description",
              "type": "string"
            },
            {
              "internalType": "uint256",
              "name": "productId",
              "type": "uint256"
            },
            {
              "internalType": "uint256",
              "name": "machineId",
              "type": "uint256"
            },
            {
              "internalType": "uint256",
              "name": "recipeStepId",
              "type": "uint256"
            }
          ],
          "internalType": "struct ICESmartContract.Phase[]",
          "name": "",
          "type": "tuple[]"
        }
      ],
      "stateMutability": "view",
      "type": "function"
    },
    {
      "inputs": [
        {
          "internalType": "uint256",
          "name": "recipeStepId",
          "type": "uint256"
        }
      ],
      "name": "getNumOfPhasesByRecipeStepId",
      "outputs": [
        {
          "internalType": "uint256",
          "name": "numOfPhases",
          "type": "uint256"
        }
      ],
      "stateMutability": "view",
      "type": "function"
    },
    {
      "inputs": [
        {
          "internalType": "uint256",
          "name": "recipeStepId",
          "type": "uint256"
        }
      ],
      "name": "getPhasesByRecipeStepId",
      "outputs": [
        {
          "components": [
            {
              "internalType": "uint256",
              "name": "id",
              "type": "uint256"
            },
            {
              "internalType": "string",
              "name": "name",
              "type": "string"
            },
            {
              "internalType": "string",
              "name": "description",
              "type": "string"
            },
            {
              "internalType": "uint256",
              "name": "productId",
              "type": "uint256"
            },
            {
              "internalType": "uint256",
              "name": "machineId",
              "type": "uint256"
            },
            {
              "internalType": "uint256",
              "name": "recipeStepId",
              "type": "uint256"
            }
          ],
          "internalType": "struct ICESmartContract.Phase[]",
          "name": "",
          "type": "tuple[]"
        }
      ],
      "stateMutability": "view",
      "type": "function"
    },
    {
      "inputs": [
        {
          "internalType": "uint256",
          "name": "phaseId",
          "type": "uint256"
        }
      ],
      "name": "getNumOfMeasuresByPhaseId",
      "outputs": [
        {
          "internalType": "uint256",
          "name": "numOfMeasures",
          "type": "uint256"
        }
      ],
      "stateMutability": "view",
      "type": "function"
    },
    {
      "inputs": [
        {
          "internalType": "uint256",
          "name": "phaseId",
          "type": "uint256"
        }
      ],
      "name": "getMeasuresByPhaseId",
      "outputs": [
        {
          "components": [
            {
              "internalType": "uint256",
              "name": "id",
              "type": "uint256"
            },
            {
              "internalType": "string",
              "name": "name",
              "type": "string"
            },
            {
              "internalType": "uint256",
              "name": "measure",
              "type": "uint256"
            },
            {
              "internalType": "string",
              "name": "unitOfMeasure",
              "type": "string"
            },
            {
              "internalType": "uint256",
              "name": "measureStartTime",
              "type": "uint256"
            },
            {
              "internalType": "uint256",
              "name": "measureEndTime",
              "type": "uint256"
            },
            {
              "internalType": "uint256",
              "name": "phaseId",
              "type": "uint256"
            },
            {
              "internalType": "uint256",
              "name": "measureConstraintId",
              "type": "uint256"
            }
          ],
          "internalType": "struct ICESmartContract.Measure[]",
          "name": "",
          "type": "tuple[]"
        }
      ],
      "stateMutability": "view",
      "type": "function"
    },
    {
      "inputs": [
        {
          "internalType": "uint256",
          "name": "measureConstraintId",
          "type": "uint256"
        }
      ],
      "name": "getNumOfMeasureConstraintsByMeasureConstraintId",
      "outputs": [
        {
          "internalType": "uint256",
          "name": "numOfMeasures",
          "type": "uint256"
        }
      ],
      "stateMutability": "view",
      "type": "function"
    },
    {
      "inputs": [
        {
          "internalType": "uint256",
          "name": "measureConstraintId",
          "type": "uint256"
        }
      ],
      "name": "getMeasuresByMeasureConstraintId",
      "outputs": [
        {
          "components": [
            {
              "internalType": "uint256",
              "name": "id",
              "type": "uint256"
            },
            {
              "internalType": "string",
              "name": "name",
              "type": "string"
            },
            {
              "internalType": "uint256",
              "name": "measure",
              "type": "uint256"
            },
            {
              "internalType": "string",
              "name": "unitOfMeasure",
              "type": "string"
            },
            {
              "internalType": "uint256",
              "name": "measureStartTime",
              "type": "uint256"
            },
            {
              "internalType": "uint256",
              "name": "measureEndTime",
              "type": "uint256"
            },
            {
              "internalType": "uint256",
              "name": "phaseId",
              "type": "uint256"
            },
            {
              "internalType": "uint256",
              "name": "measureConstraintId",
              "type": "uint256"
            }
          ],
          "internalType": "struct ICESmartContract.Measure[]",
          "name": "",
          "type": "tuple[]"
        }
      ],
      "stateMutability": "view",
      "type": "function"
    },
    {
      "inputs": [],
      "name": "getMeasureConstraints",
      "outputs": [
        {
          "components": [
            {
              "internalType": "uint256",
              "name": "id",
              "type": "uint256"
            },
            {
              "internalType": "string",
              "name": "name",
              "type": "string"
            },
            {
              "internalType": "int256",
              "name": "maxMeasure",
              "type": "int256"
            },
            {
              "internalType": "int256",
              "name": "minMeasure",
              "type": "int256"
            },
            {
              "internalType": "string",
              "name": "unitOfMeasure",
              "type": "string"
            },
            {
              "internalType": "uint256",
              "name": "recipeStepId",
              "type": "uint256"
            },
            {
              "internalType": "uint256",
              "name": "machineId",
              "type": "uint256"
            }
          ],
          "internalType": "struct ICESmartContract.MeasureConstraint[]",
          "name": "",
          "type": "tuple[]"
        }
      ],
      "stateMutability": "view",
      "type": "function"
    }
  ],
  "bytecode": "0x608060405234801561001057600080fd5b506010805433600160a060020a031990911681179091556000908152601160205260409020805460ff1916600317905561568980620000506000396000f3fe608060405234801561001057600080fd5b50600436106102f3576000357c0100000000000000000000000000000000000000000000000000000000900480636db513021161019f578063b196fba011610106578063d6483d17116100bf578063e31ed51b11610099578063e31ed51b14610799578063e46e8b4a146107ac578063f3ea0a73146107bf578063ffa0b976146107d257600080fd5b8063d6483d1714610753578063da3693c914610766578063dc5fbbd71461077957600080fd5b8063b196fba0146106c7578063bafca80c146106da578063c65ef56a146106fa578063c8ae51c91461070d578063cad29c2b14610720578063cdc5b7cd1461074057600080fd5b8063826541dc11610158578063826541dc1461062757806384d86ec3146106475780638f28685f1461065a5780639134293e146106815780639ba8cf3b146106a1578063af6d1e39146106b457600080fd5b80636db51302146105a457806370480275146105b757806370509679146105ca57806373876166146105dd578063788c3214146105f05780637acc0b201461061457600080fd5b806338cd8d631161025e578063459e5788116102175780635dd4f342116101f15780635dd4f342146105315780635de5bee714610544578063602ffca7146105645780636bc5245a1461058457600080fd5b8063459e5788146104f65780634d42845c1461050957806350910ad61461051c57600080fd5b806338cd8d631461045a578063393752001461047a5780633f70c2b41461048d57806341990077146104a0578063441ca54a146104c0578063443c227c146104d357600080fd5b8063175a7c3d116102b0578063175a7c3d146103a85780632813d19d146103bb578063292b181c146103dc5780632e37eef61461040257806331d4a63b1461042757806334e2ad591461043a57600080fd5b8063045a08dd146102f857806308970329146103215780630cce816f146103415780630da8a67e14610362578063141955021461037557806316496db414610388575b600080fd5b61030b610306366004614c19565b6107da565b60405161031891906152a3565b60405180910390f35b61033461032f366004614c19565b610a59565b60405161031891906151fb565b61035461034f366004614c19565b610cae565b604051908152602001610318565b610354610370366004614d9f565b610d10565b610354610383366004614c19565b610ed5565b61039b610396366004614c19565b610f30565b60405161031891906153e7565b6103546103b6366004614c19565b611129565b6103ce6103c9366004614c19565b611184565b6040516103189291906153fa565b6103ef6103ea366004614c19565b61123c565b6040516103189796959493929190615413565b610415610410366004614c19565b61139a565b604051610318969594939291906154de565b610354610435366004614c19565b6114f2565b61044d610448366004614c19565b61154d565b6040516103189190615376565b61046d610468366004614c19565b61167d565b604051610318919061539b565b610354610488366004614c19565b61185f565b61039b61049b366004614c19565b6118ba565b3360009081526011602052604090205460ff16604051610318919061534b565b6103546104ce366004614c19565b61194a565b6104e66104e1366004614c19565b6119a5565b6040516103189493929190615461565b610334610504366004614c19565b611af1565b6104e6610517366004614c19565b611d46565b61052f61052a366004614bac565b611d56565b005b61035461053f366004614c9f565b611db4565b610557610552366004614c19565b611f35565b6040516103189190615153565b610577610572366004614c19565b6121cc565b60405161031891906153c1565b610597610592366004614c19565b6123b4565b604051610318919061524f565b6103546105b2366004614d28565b612629565b61052f6105c5366004614bac565b612789565b6103546105d8366004614c19565b6127c9565b61046d6105eb366004614c19565b612824565b6106036105fe366004614c19565b6128ad565b60405161031895949392919061549e565b610603610622366004614c19565b6129ff565b61063a610635366004614c19565b612a0f565b60405161031891906153d4565b61030b610655366004614c19565b612be2565b61066d610668366004614c19565b612e57565b604051610318989796959493929190615528565b61069461068f366004614c19565b612fbb565b60405161031891906151a7565b6105976106af366004614c19565b613225565b6103346106c2366004614c19565b61349a565b6103546106d5366004614c19565b6136ef565b6106ed6106e8366004614c19565b61374a565b60405161031891906153ae565b610354610708366004614c32565b61395f565b61035461071b366004614e33565b613aab565b61073361072e366004614c19565b613c47565b60405161031891906150f2565b61035461074e366004614c19565b613eab565b610354610761366004614bdc565b613f06565b610694610774366004614c19565b613fe5565b61078c610787366004614c19565b61424f565b60405161031891906152f7565b6103546107a7366004614d28565b6144b3565b6103546107ba366004614c32565b614604565b6103546107cd366004614c19565b614745565b6105576147a0565b606060006107e783610ed5565b905060008167ffffffffffffffff8111156108045761080461563a565b60405190808252806020026020018201604052801561086757816020015b6108546040518060a0016040528060008152602001606081526020016060815260200160008152602001600081525090565b8152602001906001900390816108225790505b5090506000805b600454811015610a4f57856004828154811061088c5761088c615621565b9060005260206000209060050201600401541415610a3d57600481815481106108b7576108b7615621565b90600052602060002090600502016040518060a0016040529081600082015481526020016001820180546108ea9061559c565b80601f01602080910402602001604051908101604052809291908181526020018280546109169061559c565b80156109635780601f1061093857610100808354040283529160200191610963565b820191906000526020600020905b81548152906001019060200180831161094657829003601f168201915b5050505050815260200160028201805461097c9061559c565b80601f01602080910402602001604051908101604052809291908181526020018280546109a89061559c565b80156109f55780601f106109ca576101008083540402835291602001916109f5565b820191906000526020600020905b8154815290600101906020018083116109d857829003601f168201915b5050505050815260200160038201548152602001600482015481525050838381518110610a2457610a24615621565b6020908102919091010152610a3a600183615584565b91505b80610a47816155d4565b91505061086e565b5090949350505050565b60606000610a66836136ef565b905060008167ffffffffffffffff811115610a8357610a8361563a565b604051908082528060200260200182016040528015610abc57816020015b610aa9614a0b565b815260200190600190039081610aa15790505b5090506000805b600654811015610a4f578560068281548110610ae157610ae1615621565b9060005260206000209060060201600301541415610c9c5760068181548110610b0c57610b0c615621565b90600052602060002090600602016040518060c001604052908160008201548152602001600182018054610b3f9061559c565b80601f0160208091040260200160405190810160405280929190818152602001828054610b6b9061559c565b8015610bb85780601f10610b8d57610100808354040283529160200191610bb8565b820191906000526020600020905b815481529060010190602001808311610b9b57829003601f168201915b50505050508152602001600282018054610bd19061559c565b80601f0160208091040260200160405190810160405280929190818152602001828054610bfd9061559c565b8015610c4a5780601f10610c1f57610100808354040283529160200191610c4a565b820191906000526020600020905b815481529060010190602001808311610c2d57829003601f168201915b505050505081526020016003820154815260200160048201548152602001600582015481525050838381518110610c8357610c83615621565b6020908102919091010152610c99600183615584565b91505b80610ca6816155d4565b915050610ac3565b600080805b600154811015610d09578360018281548110610cd157610cd1615621565b9060005260206000209060040201600301541415610cf757610cf4600183615584565b91505b80610d01816155d4565b915050610cb3565b5092915050565b600060023360009081526011602052604090205460ff166003811115610d3857610d38615608565b1480610d67575060013360009081526011602052604090205460ff166003811115610d6557610d65615608565b145b610d7057600080fd5b6040805161010081018252600f5481526020808201898152928201889052606082018790526080820186905260a0820185905260c082018b905260e082018a905260078054600181018255600091909152825160089091027fa66cc928b5edb82af9bd49922954155ab7b0942694bea4ce44661d9a8736c68881019182559351805193949193610e29937fa66cc928b5edb82af9bd49922954155ab7b0942694bea4ce44661d9a8736c689909301929190910190614a41565b506040820151600282015560608201518051610e4f916003840191602090910190614a41565b506080820151600482015560a0820151600582015560c0820151600682015560e090910151600790910155600f546040518181527f92d4eb36878e12e917551c271292979d935d4b52604a9146540691515a03966a9060200160405180910390a16001600f6000828254610ec39190615584565b90915550909998505050505050505050565b600080805b600454811015610d09578360048281548110610ef857610ef8615621565b9060005260206000209060050201600401541415610f1e57610f1b600183615584565b91505b80610f28816155d4565b915050610eda565b610f626040518060a0016040528060008152602001606081526020016060815260200160008152602001600081525090565b60005b600454811015611123578260048281548110610f8357610f83615621565b90600052602060002090600502016000015414156111115760048181548110610fae57610fae615621565b90600052602060002090600502016040518060a001604052908160008201548152602001600182018054610fe19061559c565b80601f016020809104026020016040519081016040528092919081815260200182805461100d9061559c565b801561105a5780601f1061102f5761010080835404028352916020019161105a565b820191906000526020600020905b81548152906001019060200180831161103d57829003601f168201915b505050505081526020016002820180546110739061559c565b80601f016020809104026020016040519081016040528092919081815260200182805461109f9061559c565b80156110ec5780601f106110c1576101008083540402835291602001916110ec565b820191906000526020600020905b8154815290600101906020018083116110cf57829003601f168201915b5050505050815260200160038201548152602001600482015481525050915050919050565b8061111b816155d4565b915050610f65565b50919050565b600080805b600254811015610d0957836002828154811061114c5761114c615621565b90600052602060002090600402016003015414156111725761116f600183615584565b91505b8061117c816155d4565b91505061112e565b6000818154811061119457600080fd5b600091825260209091206002909102018054600182018054919350906111b99061559c565b80601f01602080910402602001604051908101604052809291908181526020018280546111e59061559c565b80156112325780601f1061120757610100808354040283529160200191611232565b820191906000526020600020905b81548152906001019060200180831161121557829003601f168201915b5050505050905082565b6005818154811061124c57600080fd5b600091825260209091206007909102018054600182018054919350906112719061559c565b80601f016020809104026020016040519081016040528092919081815260200182805461129d9061559c565b80156112ea5780601f106112bf576101008083540402835291602001916112ea565b820191906000526020600020905b8154815290600101906020018083116112cd57829003601f168201915b50505050509080600201549080600301549080600401805461130b9061559c565b80601f01602080910402602001604051908101604052809291908181526020018280546113379061559c565b80156113845780601f1061135957610100808354040283529160200191611384565b820191906000526020600020905b81548152906001019060200180831161136757829003601f168201915b5050505050908060050154908060060154905087565b600681815481106113aa57600080fd5b600091825260209091206006909102018054600182018054919350906113cf9061559c565b80601f01602080910402602001604051908101604052809291908181526020018280546113fb9061559c565b80156114485780601f1061141d57610100808354040283529160200191611448565b820191906000526020600020905b81548152906001019060200180831161142b57829003601f168201915b50505050509080600201805461145d9061559c565b80601f01602080910402602001604051908101604052809291908181526020018280546114899061559c565b80156114d65780601f106114ab576101008083540402835291602001916114d6565b820191906000526020600020905b8154815290600101906020018083116114b957829003601f168201915b5050505050908060030154908060040154908060050154905086565b600080805b600754811015610d0957836007828154811061151557611515615621565b906000526020600020906008020160070154141561153b57611538600183615584565b91505b80611545816155d4565b9150506114f7565b60408051808201909152600081526060602082015260005b60005481101561112357826000828154811061158357611583615621565b906000526020600020906002020160000154141561166b57600081815481106115ae576115ae615621565b9060005260206000209060020201604051806040016040529081600082015481526020016001820180546115e19061559c565b80601f016020809104026020016040519081016040528092919081815260200182805461160d9061559c565b801561165a5780601f1061162f5761010080835404028352916020019161165a565b820191906000526020600020905b81548152906001019060200180831161163d57829003601f168201915b505050505081525050915050919050565b80611675816155d4565b915050611565565b6116a86040518060800160405280600081526020016060815260200160608152602001600081525090565b60005b6002548110156111235782600282815481106116c9576116c9615621565b906000526020600020906004020160000154141561184d57600281815481106116f4576116f4615621565b9060005260206000209060040201604051806080016040529081600082015481526020016001820180546117279061559c565b80601f01602080910402602001604051908101604052809291908181526020018280546117539061559c565b80156117a05780601f10611775576101008083540402835291602001916117a0565b820191906000526020600020905b81548152906001019060200180831161178357829003601f168201915b505050505081526020016002820180546117b99061559c565b80601f01602080910402602001604051908101604052809291908181526020018280546117e59061559c565b80156118325780601f1061180757610100808354040283529160200191611832565b820191906000526020600020905b81548152906001019060200180831161181557829003601f168201915b50505050508152602001600382015481525050915050919050565b80611857816155d4565b9150506116ab565b600080805b600454811015610d0957836004828154811061188257611882615621565b90600052602060002090600502016003015414156118a8576118a5600183615584565b91505b806118b2816155d4565b915050611864565b6118ec6040518060a0016040528060008152602001606081526020016060815260200160008152602001600081525090565b60005b60035481101561112357826003828154811061190d5761190d615621565b90600052602060002090600502016000015414156119385760038181548110610fae57610fae615621565b80611942816155d4565b9150506118ef565b600080805b600754811015610d0957836007828154811061196d5761196d615621565b906000526020600020906008020160060154141561199357611990600183615584565b91505b8061199d816155d4565b91505061194f565b600281815481106119b557600080fd5b600091825260209091206004909102018054600182018054919350906119da9061559c565b80601f0160208091040260200160405190810160405280929190818152602001828054611a069061559c565b8015611a535780601f10611a2857610100808354040283529160200191611a53565b820191906000526020600020905b815481529060010190602001808311611a3657829003601f168201915b505050505090806002018054611a689061559c565b80601f0160208091040260200160405190810160405280929190818152602001828054611a949061559c565b8015611ae15780601f10611ab657610100808354040283529160200191611ae1565b820191906000526020600020905b815481529060010190602001808311611ac457829003601f168201915b5050505050908060030154905084565b60606000611afe83613eab565b905060008167ffffffffffffffff811115611b1b57611b1b61563a565b604051908082528060200260200182016040528015611b5457816020015b611b41614a0b565b815260200190600190039081611b395790505b5090506000805b600654811015610a4f578560068281548110611b7957611b79615621565b9060005260206000209060060201600401541415611d345760068181548110611ba457611ba4615621565b90600052602060002090600602016040518060c001604052908160008201548152602001600182018054611bd79061559c565b80601f0160208091040260200160405190810160405280929190818152602001828054611c039061559c565b8015611c505780601f10611c2557610100808354040283529160200191611c50565b820191906000526020600020905b815481529060010190602001808311611c3357829003601f168201915b50505050508152602001600282018054611c699061559c565b80601f0160208091040260200160405190810160405280929190818152602001828054611c959061559c565b8015611ce25780601f10611cb757610100808354040283529160200191611ce2565b820191906000526020600020905b815481529060010190602001808311611cc557829003601f168201915b505050505081526020016003820154815260200160048201548152602001600582015481525050838381518110611d1b57611d1b615621565b6020908102919091010152611d31600183615584565b91505b80611d3e816155d4565b915050611b5b565b600181815481106119b557600080fd5b60013360009081526011602052604090205460ff166003811115611d7c57611d7c615608565b14611d8657600080fd5b600160a060020a038116600090815260116020526040902080546002919060ff19166001835b021790555050565b600060013360009081526011602052604090205460ff166003811115611ddc57611ddc615608565b14611de657600080fd5b6040805160e081018252600c5481526020808201888152928201879052606082018690526080820185905260a082018a905260c0820189905260058054600181018255600091909152825160079091027f036b6384b5eca791c62761152d0c79bb0604c104a5fb6f4eb0703f3154bb3db081019182559351805193949193611e97937f036b6384b5eca791c62761152d0c79bb0604c104a5fb6f4eb0703f3154bb3db1909301929190910190614a41565b50604082015160028201556060820151600382015560808201518051611ec7916004840191602090910190614a41565b5060a0820151600582015560c090910151600690910155600c8054906001906000611ef28385615584565b90915550506040518181527f595be16b3de9f5a5916023920f4618f5f5e303eba93784ef292e293beb7bd84d9060200160405180910390a1979650505050505050565b60606000611f42836127c9565b905060008167ffffffffffffffff811115611f5f57611f5f61563a565b604051908082528060200260200182016040528015611fd057816020015b611fbd6040518060e00160405280600081526020016060815260200160008152602001600081526020016060815260200160008152602001600081525090565b815260200190600190039081611f7d5790505b5090506000805b600554811015610a4f578560058281548110611ff557611ff5615621565b90600052602060002090600702016005015414156121ba576005818154811061202057612020615621565b90600052602060002090600702016040518060e0016040529081600082015481526020016001820180546120539061559c565b80601f016020809104026020016040519081016040528092919081815260200182805461207f9061559c565b80156120cc5780601f106120a1576101008083540402835291602001916120cc565b820191906000526020600020905b8154815290600101906020018083116120af57829003601f168201915b5050505050815260200160028201548152602001600382015481526020016004820180546120f99061559c565b80601f01602080910402602001604051908101604052809291908181526020018280546121259061559c565b80156121725780601f1061214757610100808354040283529160200191612172565b820191906000526020600020905b81548152906001019060200180831161215557829003601f168201915b50505050508152602001600582015481526020016006820154815250508383815181106121a1576121a1615621565b60209081029190910101526121b7600183615584565b91505b806121c4816155d4565b915050611fd7565b6121d4614ac5565b60005b6007548110156111235782600782815481106121f5576121f5615621565b90600052602060002090600802016000015414156123a2576007818154811061222057612220615621565b906000526020600020906008020160405180610100016040529081600082015481526020016001820180546122549061559c565b80601f01602080910402602001604051908101604052809291908181526020018280546122809061559c565b80156122cd5780601f106122a2576101008083540402835291602001916122cd565b820191906000526020600020905b8154815290600101906020018083116122b057829003601f168201915b50505050508152602001600282015481526020016003820180546122f09061559c565b80601f016020809104026020016040519081016040528092919081815260200182805461231c9061559c565b80156123695780601f1061233e57610100808354040283529160200191612369565b820191906000526020600020905b81548152906001019060200180831161234c57829003601f168201915b50505050508152602001600482015481526020016005820154815260200160068201548152602001600782015481525050915050919050565b806123ac816155d4565b9150506121d7565b606060006123c183614955565b905060008167ffffffffffffffff8111156123de576123de61563a565b60405190808252806020026020018201604052801561244157816020015b61242e6040518060a0016040528060008152602001606081526020016060815260200160008152602001600081525090565b8152602001906001900390816123fc5790505b5090506000805b600354811015610a4f57856003828154811061246657612466615621565b9060005260206000209060050201600401541415612617576003818154811061249157612491615621565b90600052602060002090600502016040518060a0016040529081600082015481526020016001820180546124c49061559c565b80601f01602080910402602001604051908101604052809291908181526020018280546124f09061559c565b801561253d5780601f106125125761010080835404028352916020019161253d565b820191906000526020600020905b81548152906001019060200180831161252057829003601f168201915b505050505081526020016002820180546125569061559c565b80601f01602080910402602001604051908101604052809291908181526020018280546125829061559c565b80156125cf5780601f106125a4576101008083540402835291602001916125cf565b820191906000526020600020905b8154815290600101906020018083116125b257829003601f168201915b50505050508152602001600382015481526020016004820154815250508383815181106125fe576125fe615621565b6020908102919091010152612614600183615584565b91505b80612621816155d4565b915050612448565b600060013360009081526011602052604090205460ff16600381111561265157612651615608565b1461265b57600080fd5b6040805160a081018252600d5481526020808201868152928201859052606082018890526080820187905260038054600181018255600091909152825160059091027fc2575a0e9e593c00f959f8c92f12db2869c3395a3b0502d05e2516446f71f85b810191825593518051939491936126fe937fc2575a0e9e593c00f959f8c92f12db2869c3395a3b0502d05e2516446f71f85c909301929190910190614a41565b506040820151805161271a916002840191602090910190614a41565b5060608201516003820155608090910151600490910155600d546040518181527f8bfed7c0004768df129b4900300816f8e85b8633621048ae882252021aa699b29060200160405180910390a16001600d600082825461277a9190615584565b90915550909695505050505050565b601054600160a060020a031633146127a057600080fd5b600160a060020a038116600090815260116020526040902080546001919060ff19168280611dac565b600080805b600554811015610d095783600582815481106127ec576127ec615621565b90600052602060002090600702016005015414156128125761280f600183615584565b91505b8061281c816155d4565b9150506127ce565b61284f6040518060800160405280600081526020016060815260200160608152602001600081525090565b60005b60015481101561112357826001828154811061287057612870615621565b906000526020600020906004020160000154141561289b57600181815481106116f4576116f4615621565b806128a5816155d4565b915050612852565b600481815481106128bd57600080fd5b600091825260209091206005909102018054600182018054919350906128e29061559c565b80601f016020809104026020016040519081016040528092919081815260200182805461290e9061559c565b801561295b5780601f106129305761010080835404028352916020019161295b565b820191906000526020600020905b81548152906001019060200180831161293e57829003601f168201915b5050505050908060020180546129709061559c565b80601f016020809104026020016040519081016040528092919081815260200182805461299c9061559c565b80156129e95780601f106129be576101008083540402835291602001916129e9565b820191906000526020600020905b8154815290600101906020018083116129cc57829003601f168201915b5050505050908060030154908060040154905085565b600381815481106128bd57600080fd5b612a17614a0b565b60005b600654811015611123578260068281548110612a3857612a38615621565b9060005260206000209060060201600001541415612bd05760068181548110612a6357612a63615621565b90600052602060002090600602016040518060c001604052908160008201548152602001600182018054612a969061559c565b80601f0160208091040260200160405190810160405280929190818152602001828054612ac29061559c565b8015612b0f5780601f10612ae457610100808354040283529160200191612b0f565b820191906000526020600020905b815481529060010190602001808311612af257829003601f168201915b50505050508152602001600282018054612b289061559c565b80601f0160208091040260200160405190810160405280929190818152602001828054612b549061559c565b8015612ba15780601f10612b7657610100808354040283529160200191612ba1565b820191906000526020600020905b815481529060010190602001808311612b8457829003601f168201915b505050505081526020016003820154815260200160048201548152602001600582015481525050915050919050565b80612bda816155d4565b915050612a1a565b60606000612bef8361185f565b905060008167ffffffffffffffff811115612c0c57612c0c61563a565b604051908082528060200260200182016040528015612c6f57816020015b612c5c6040518060a0016040528060008152602001606081526020016060815260200160008152602001600081525090565b815260200190600190039081612c2a5790505b5090506000805b600454811015610a4f578560048281548110612c9457612c94615621565b9060005260206000209060050201600301541415612e455760048181548110612cbf57612cbf615621565b90600052602060002090600502016040518060a001604052908160008201548152602001600182018054612cf29061559c565b80601f0160208091040260200160405190810160405280929190818152602001828054612d1e9061559c565b8015612d6b5780601f10612d4057610100808354040283529160200191612d6b565b820191906000526020600020905b815481529060010190602001808311612d4e57829003601f168201915b50505050508152602001600282018054612d849061559c565b80601f0160208091040260200160405190810160405280929190818152602001828054612db09061559c565b8015612dfd5780601f10612dd257610100808354040283529160200191612dfd565b820191906000526020600020905b815481529060010190602001808311612de057829003601f168201915b5050505050815260200160038201548152602001600482015481525050838381518110612e2c57612e2c615621565b6020908102919091010152612e42600183615584565b91505b80612e4f816155d4565b915050612c76565b60078181548110612e6757600080fd5b60009182526020909120600890910201805460018201805491935090612e8c9061559c565b80601f0160208091040260200160405190810160405280929190818152602001828054612eb89061559c565b8015612f055780601f10612eda57610100808354040283529160200191612f05565b820191906000526020600020905b815481529060010190602001808311612ee857829003601f168201915b505050505090806002015490806003018054612f209061559c565b80601f0160208091040260200160405190810160405280929190818152602001828054612f4c9061559c565b8015612f995780601f10612f6e57610100808354040283529160200191612f99565b820191906000526020600020905b815481529060010190602001808311612f7c57829003601f168201915b5050505050908060040154908060050154908060060154908060070154905088565b60606000612fc8836114f2565b905060008167ffffffffffffffff811115612fe557612fe561563a565b60405190808252806020026020018201604052801561301e57816020015b61300b614ac5565b8152602001906001900390816130035790505b5090506000805b600754811015610a4f57856007828154811061304357613043615621565b9060005260206000209060080201600701541415613213576007818154811061306e5761306e615621565b906000526020600020906008020160405180610100016040529081600082015481526020016001820180546130a29061559c565b80601f01602080910402602001604051908101604052809291908181526020018280546130ce9061559c565b801561311b5780601f106130f05761010080835404028352916020019161311b565b820191906000526020600020905b8154815290600101906020018083116130fe57829003601f168201915b505050505081526020016002820154815260200160038201805461313e9061559c565b80601f016020809104026020016040519081016040528092919081815260200182805461316a9061559c565b80156131b75780601f1061318c576101008083540402835291602001916131b7565b820191906000526020600020905b81548152906001019060200180831161319a57829003601f168201915b505050505081526020016004820154815260200160058201548152602001600682015481526020016007820154815250508383815181106131fa576131fa615621565b6020908102919091010152613210600183615584565b91505b8061321d816155d4565b915050613025565b60606000613232836149b0565b905060008167ffffffffffffffff81111561324f5761324f61563a565b6040519080825280602002602001820160405280156132b257816020015b61329f6040518060a0016040528060008152602001606081526020016060815260200160008152602001600081525090565b81526020019060019003908161326d5790505b5090506000805b600354811015610a4f5785600382815481106132d7576132d7615621565b9060005260206000209060050201600301541415613488576003818154811061330257613302615621565b90600052602060002090600502016040518060a0016040529081600082015481526020016001820180546133359061559c565b80601f01602080910402602001604051908101604052809291908181526020018280546133619061559c565b80156133ae5780601f10613383576101008083540402835291602001916133ae565b820191906000526020600020905b81548152906001019060200180831161339157829003601f168201915b505050505081526020016002820180546133c79061559c565b80601f01602080910402602001604051908101604052809291908181526020018280546133f39061559c565b80156134405780601f1061341557610100808354040283529160200191613440565b820191906000526020600020905b81548152906001019060200180831161342357829003601f168201915b505050505081526020016003820154815260200160048201548152505083838151811061346f5761346f615621565b6020908102919091010152613485600183615584565b91505b80613492816155d4565b9150506132b9565b606060006134a783614745565b905060008167ffffffffffffffff8111156134c4576134c461563a565b6040519080825280602002602001820160405280156134fd57816020015b6134ea614a0b565b8152602001906001900390816134e25790505b5090506000805b600654811015610a4f57856006828154811061352257613522615621565b90600052602060002090600602016005015414156136dd576006818154811061354d5761354d615621565b90600052602060002090600602016040518060c0016040529081600082015481526020016001820180546135809061559c565b80601f01602080910402602001604051908101604052809291908181526020018280546135ac9061559c565b80156135f95780601f106135ce576101008083540402835291602001916135f9565b820191906000526020600020905b8154815290600101906020018083116135dc57829003601f168201915b505050505081526020016002820180546136129061559c565b80601f016020809104026020016040519081016040528092919081815260200182805461363e9061559c565b801561368b5780601f106136605761010080835404028352916020019161368b565b820191906000526020600020905b81548152906001019060200180831161366e57829003601f168201915b5050505050815260200160038201548152602001600482015481526020016005820154815250508383815181106136c4576136c4615621565b60209081029190910101526136da600183615584565b91505b806136e7816155d4565b915050613504565b600080805b600654811015610d0957836006828154811061371257613712615621565b906000526020600020906006020160030154141561373857613735600183615584565b91505b80613742816155d4565b9150506136f4565b61378a6040518060e00160405280600081526020016060815260200160008152602001600081526020016060815260200160008152602001600081525090565b60005b6005548110156111235782600582815481106137ab576137ab615621565b906000526020600020906007020160000154141561394d57600581815481106137d6576137d6615621565b90600052602060002090600702016040518060e0016040529081600082015481526020016001820180546138099061559c565b80601f01602080910402602001604051908101604052809291908181526020018280546138359061559c565b80156138825780601f1061385757610100808354040283529160200191613882565b820191906000526020600020905b81548152906001019060200180831161386557829003601f168201915b5050505050815260200160028201548152602001600382015481526020016004820180546138af9061559c565b80601f01602080910402602001604051908101604052809291908181526020018280546138db9061559c565b80156139285780601f106138fd57610100808354040283529160200191613928565b820191906000526020600020905b81548152906001019060200180831161390b57829003601f168201915b5050505050815260200160058201548152602001600682015481525050915050919050565b80613957816155d4565b91505061378d565b600060013360009081526011602052604090205460ff16600381111561398757613987615608565b1461399157600080fd5b604080516080810182526009548152602080820186815292820185905260608201879052600180548082018255600091909152825160049091027fb10e2d527612073b26eecdfd717e6a320cf44b4afac2b0732d9fcbe2b7fa0cf681019182559351805193949193613a2c937fb10e2d527612073b26eecdfd717e6a320cf44b4afac2b0732d9fcbe2b7fa0cf7909301929190910190614a41565b5060408201518051613a48916002840191602090910190614a41565b506060919091015160039091015560098054906001906000613a6a8385615584565b90915550506040518181527f101b8ce2e1b11f01152c70ce8aaf6c82e8a3af259115d7032b0be0806ba1947b906020015b60405180910390a1949350505050565b600060023360009081526011602052604090205460ff166003811115613ad357613ad3615608565b1480613b02575060013360009081526011602052604090205460ff166003811115613b0057613b00615608565b145b613b0b57600080fd5b6040805160c081018252600e5481526020808201868152928201859052606082018990526080820188905260a08201879052600680546001810182556000829052835191027ff652222313e28459528d920b65115c16c04f3efc82aaedc97be59f3f377c0d3f81019182559351805193949193613bb1937ff652222313e28459528d920b65115c16c04f3efc82aaedc97be59f3f377c0d40909301929190910190614a41565b5060408201518051613bcd916002840191602090910190614a41565b50606082015160038201556080820151600482015560a090910151600590910155600e546040518181527f7e7350040e5c9d9d9c606a903992ccf66dda4dac7016a5cec61aa00ff426f4299060200160405180910390a16001600e6000828254613c379190615584565b9091555090979650505050505050565b60606000613c5483610cae565b905060008167ffffffffffffffff811115613c7157613c7161563a565b604051908082528060200260200182016040528015613ccd57816020015b613cba6040518060800160405280600081526020016060815260200160608152602001600081525090565b815260200190600190039081613c8f5790505b5090506000805b600154811015610a4f578560018281548110613cf257613cf2615621565b9060005260206000209060040201600301541415613e995760018181548110613d1d57613d1d615621565b906000526020600020906004020160405180608001604052908160008201548152602001600182018054613d509061559c565b80601f0160208091040260200160405190810160405280929190818152602001828054613d7c9061559c565b8015613dc95780601f10613d9e57610100808354040283529160200191613dc9565b820191906000526020600020905b815481529060010190602001808311613dac57829003601f168201915b50505050508152602001600282018054613de29061559c565b80601f0160208091040260200160405190810160405280929190818152602001828054613e0e9061559c565b8015613e5b5780601f10613e3057610100808354040283529160200191613e5b565b820191906000526020600020905b815481529060010190602001808311613e3e57829003601f168201915b50505050508152602001600382015481525050838381518110613e8057613e80615621565b6020908102919091010152613e96600183615584565b91505b80613ea3816155d4565b915050613cd4565b600080805b600654811015610d09578360068281548110613ece57613ece615621565b9060005260206000209060060201600401541415613ef457613ef1600183615584565b91505b80613efe816155d4565b915050613eb0565b60408051808201909152600854815260208082018381526000805460018101825581805284517f290decd9548b62a8d60345a988386fc84ba6bc95484008f6362f93160ef3e563600290920291820190815592518051929594613f90937f290decd9548b62a8d60345a988386fc84ba6bc95484008f6362f93160ef3e56490930192910190614a41565b50506008805491506001906000613fa78385615584565b90915550506040518181527f3eceb206415c0f0ca5dea3a04907e46fd723980f3a114f7805c45e5e5e204f939060200160405180910390a192915050565b60606000613ff28361194a565b905060008167ffffffffffffffff81111561400f5761400f61563a565b60405190808252806020026020018201604052801561404857816020015b614035614ac5565b81526020019060019003908161402d5790505b5090506000805b600754811015610a4f57856007828154811061406d5761406d615621565b906000526020600020906008020160060154141561423d576007818154811061409857614098615621565b906000526020600020906008020160405180610100016040529081600082015481526020016001820180546140cc9061559c565b80601f01602080910402602001604051908101604052809291908181526020018280546140f89061559c565b80156141455780601f1061411a57610100808354040283529160200191614145565b820191906000526020600020905b81548152906001019060200180831161412857829003601f168201915b50505050508152602001600282015481526020016003820180546141689061559c565b80601f01602080910402602001604051908101604052809291908181526020018280546141949061559c565b80156141e15780601f106141b6576101008083540402835291602001916141e1565b820191906000526020600020905b8154815290600101906020018083116141c457829003601f168201915b5050505050815260200160048201548152602001600582015481526020016006820154815260200160078201548152505083838151811061422457614224615621565b602090810291909101015261423a600183615584565b91505b80614247816155d4565b91505061404f565b6060600061425c83611129565b905060008167ffffffffffffffff8111156142795761427961563a565b6040519080825280602002602001820160405280156142d557816020015b6142c26040518060800160405280600081526020016060815260200160608152602001600081525090565b8152602001906001900390816142975790505b5090506000805b600254811015610a4f5785600282815481106142fa576142fa615621565b90600052602060002090600402016003015414156144a1576002818154811061432557614325615621565b9060005260206000209060040201604051806080016040529081600082015481526020016001820180546143589061559c565b80601f01602080910402602001604051908101604052809291908181526020018280546143849061559c565b80156143d15780601f106143a6576101008083540402835291602001916143d1565b820191906000526020600020905b8154815290600101906020018083116143b457829003601f168201915b505050505081526020016002820180546143ea9061559c565b80601f01602080910402602001604051908101604052809291908181526020018280546144169061559c565b80156144635780601f1061443857610100808354040283529160200191614463565b820191906000526020600020905b81548152906001019060200180831161444657829003601f168201915b5050505050815260200160038201548152505083838151811061448857614488615621565b602090810291909101015261449e600183615584565b91505b806144ab816155d4565b9150506142dc565b600060013360009081526011602052604090205460ff1660038111156144db576144db615608565b146144e557600080fd5b6040805160a081018252600b5481526020808201868152928201859052606082018890526080820187905260048054600181018255600091909152825160059091027f8a35acfbc15ff81a39ae7d344fd709f28e8600b4aa8c65c6b64bfe7fe36bd19b81019182559351805193949193614588937f8a35acfbc15ff81a39ae7d344fd709f28e8600b4aa8c65c6b64bfe7fe36bd19c909301929190910190614a41565b50604082015180516145a4916002840191602090910190614a41565b5060608201516003820155608090910151600490910155600b546040518181527fb8bdae7750b8aee9fe44da21d9ef2a5348edc16036798e108324d272ae96c22c9060200160405180910390a16001600b600082825461277a9190615584565b600060013360009081526011602052604090205460ff16600381111561462c5761462c615608565b1461463657600080fd5b60408051608081018252600a54815260208082018681529282018590526060820187905260028054600181018255600091909152825160049091027f405787fa12a823e0f2b7631cc41b3ba8828b3321ca811111fa75cd3aa3bb5ace810191825593518051939491936146d2937f405787fa12a823e0f2b7631cc41b3ba8828b3321ca811111fa75cd3aa3bb5acf909301929190910190614a41565b50604082015180516146ee916002840191602090910190614a41565b5060609190910151600390910155600a80549060019060006147108385615584565b90915550506040518181527f60d43d1d111ceefb7b9db2a3777616a53a6acf0d0a1a31a97959f4f36ee7b1e190602001613a9b565b600080805b600654811015610d0957836006828154811061476857614768615621565b906000526020600020906006020160050154141561478e5761478b600183615584565b91505b80614798816155d4565b91505061474a565b60606005805480602002602001604051908101604052809291908181526020016000905b8282101561494c57838290600052602060002090600702016040518060e0016040529081600082015481526020016001820180546148019061559c565b80601f016020809104026020016040519081016040528092919081815260200182805461482d9061559c565b801561487a5780601f1061484f5761010080835404028352916020019161487a565b820191906000526020600020905b81548152906001019060200180831161485d57829003601f168201915b5050505050815260200160028201548152602001600382015481526020016004820180546148a79061559c565b80601f01602080910402602001604051908101604052809291908181526020018280546148d39061559c565b80156149205780601f106148f557610100808354040283529160200191614920565b820191906000526020600020905b81548152906001019060200180831161490357829003601f168201915b5050505050815260200160058201548152602001600682015481525050815260200190600101906147c4565b50505050905090565b600080805b600354811015610d0957836003828154811061497857614978615621565b906000526020600020906005020160040154141561499e5761499b600183615584565b91505b806149a8816155d4565b91505061495a565b600080805b600354811015610d095783600382815481106149d3576149d3615621565b90600052602060002090600502016003015414156149f9576149f6600183615584565b91505b80614a03816155d4565b9150506149b5565b6040518060c001604052806000815260200160608152602001606081526020016000815260200160008152602001600081525090565b828054614a4d9061559c565b90600052602060002090601f016020900481019282614a6f5760008555614ab5565b82601f10614a8857805160ff1916838001178555614ab5565b82800160010185558215614ab5579182015b82811115614ab5578251825591602001919060010190614a9a565b50614ac1929150614b0a565b5090565b60405180610100016040528060008152602001606081526020016000815260200160608152602001600081526020016000815260200160008152602001600081525090565b5b80821115614ac15760008155600101614b0b565b600082601f830112614b3057600080fd5b813567ffffffffffffffff80821115614b4b57614b4b61563a565b604051601f8301601f19908116603f01168101908282118183101715614b7357614b7361563a565b81604052838152866020858801011115614b8c57600080fd5b836020870160208301376000602085830101528094505050505092915050565b600060208284031215614bbe57600080fd5b8135600160a060020a0381168114614bd557600080fd5b9392505050565b600060208284031215614bee57600080fd5b813567ffffffffffffffff811115614c0557600080fd5b614c1184828501614b1f565b949350505050565b600060208284031215614c2b57600080fd5b5035919050565b600080600060608486031215614c4757600080fd5b83359250602084013567ffffffffffffffff80821115614c6657600080fd5b614c7287838801614b1f565b93506040860135915080821115614c8857600080fd5b50614c9586828701614b1f565b9150509250925092565b60008060008060008060c08789031215614cb857600080fd5b8635955060208701359450604087013567ffffffffffffffff80821115614cde57600080fd5b614cea8a838b01614b1f565b9550606089013594506080890135935060a0890135915080821115614d0e57600080fd5b50614d1b89828a01614b1f565b9150509295509295509295565b60008060008060808587031215614d3e57600080fd5b8435935060208501359250604085013567ffffffffffffffff80821115614d6457600080fd5b614d7088838901614b1f565b93506060870135915080821115614d8657600080fd5b50614d9387828801614b1f565b91505092959194509250565b600080600080600080600060e0888a031215614dba57600080fd5b8735965060208801359550604088013567ffffffffffffffff80821115614de057600080fd5b614dec8b838c01614b1f565b965060608a0135955060808a0135915080821115614e0957600080fd5b50614e168a828b01614b1f565b93505060a0880135915060c0880135905092959891949750929550565b600080600080600060a08688031215614e4b57600080fd5b853594506020860135935060408601359250606086013567ffffffffffffffff80821115614e7857600080fd5b614e8489838a01614b1f565b93506080880135915080821115614e9a57600080fd5b50614ea788828901614b1f565b9150509295509295909350565b6000815180845260005b81811015614eda57602081850181015186830182015201614ebe565b81811115614eec576000602083870101525b50601f01601f19169290920160200192915050565b805182526000602082015160806020850152614f206080850182614eb4565b905060408301518482036040860152614f398282614eb4565b915050606083015160608501528091505092915050565b805182526000602082015160e06020850152614f6f60e0850182614eb4565b9050604083015160408501526060830151606085015260808301518482036080860152614f9c8282614eb4565b91505060a083015160a085015260c083015160c08501528091505092915050565b6000610100825184526020830151816020860152614fdd82860182614eb4565b91505060408301516040850152606083015184820360608601526150018282614eb4565b9150506080830151608085015260a083015160a085015260c083015160c085015260e083015160e08501528091505092915050565b805182526000602082015160c0602085015261505560c0850182614eb4565b90506040830151848203604086015261506e8282614eb4565b915050606083015160608501526080830151608085015260a083015160a08501528091505092915050565b805182526000602082015160a060208501526150b860a0850182614eb4565b9050604083015184820360408601526150d18282614eb4565b91505060608301516060850152608083015160808501528091505092915050565b600060208083018184528085518083526040860191506040848202870101925083870160005b8281101561514657603f19888603018452615134858351614f01565b94509285019290850190600101615118565b5092979650505050505050565b600060208083018184528085518083526040860191506040848202870101925083870160005b8281101561514657603f19888603018452615195858351614f50565b94509285019290850190600101615179565b600060208083018184528085518083526040860191506040848202870101925083870160005b8281101561514657603f198886030184526151e9858351614fbd565b945092850192908501906001016151cd565b600060208083018184528085518083526040860191506040848202870101925083870160005b8281101561514657603f1988860301845261523d858351615036565b94509285019290850190600101615221565b600060208083018184528085518083526040860191506040848202870101925083870160005b8281101561514657603f19888603018452615291858351615099565b94509285019290850190600101615275565b600060208083018184528085518083526040860191506040848202870101925083870160005b8281101561514657603f198886030184526152e5858351615099565b945092850192908501906001016152c9565b600060208083018184528085518083526040860191506040848202870101925083870160005b8281101561514657603f19888603018452615339858351614f01565b9450928501929085019060010161531d565b60208101600483106153705760e060020a634e487b7102600052602160045260246000fd5b91905290565b602081528151602082015260006020830151604080840152614c116060840182614eb4565b602081526000614bd56020830184614f01565b602081526000614bd56020830184614f50565b602081526000614bd56020830184614fbd565b602081526000614bd56020830184615036565b602081526000614bd56020830184615099565b828152604060208201526000614c116040830184614eb4565b87815260e06020820152600061542c60e0830189614eb4565b876040840152866060840152828103608084015261544a8187614eb4565b60a0840195909552505060c0015295945050505050565b84815260806020820152600061547a6080830186614eb4565b828103604084015261548c8186614eb4565b91505082606083015295945050505050565b85815260a0602082015260006154b760a0830187614eb4565b82810360408401526154c98187614eb4565b60608401959095525050608001529392505050565b86815260c0602082015260006154f760c0830188614eb4565b82810360408401526155098188614eb4565b60608401969096525050608081019290925260a0909101529392505050565b60006101008a83528060208401526155428184018b614eb4565b9050886040840152828103606084015261555c8189614eb4565b9150508560808301528460a08301528360c08301528260e08301529998505050505050505050565b60008219821115615597576155976155ef565b500190565b6002810460018216806155b057607f821691505b602082108114156111235760e060020a634e487b7102600052602260045260246000fd5b60006000198214156155e8576155e86155ef565b5060010190565b60e060020a634e487b7102600052601160045260246000fd5b60e060020a634e487b7102600052602160045260246000fd5b60e060020a634e487b7102600052603260045260246000fd5b60e060020a634e487b7102600052604160045260246000fdfea264697066735822122099683fc8cdeb15a7ef834cd4c56fdefb538ec8a7826e7b93a1a589a6f70ff4e264736f6c63430008050033",
  "immutableReferences": {},
  "source": "//SPDX-License-Identifier: LGPL-3.0-or-later\npragma solidity ^0.8.1;\npragma experimental ABIEncoderV2;\n\ncontract ICESmartContract {\n\n    enum USER_TYPE {NORMAL_USER, ADMIN, DATA_PROVIDER, OWNER}\n\n\n    struct Company {\n        uint256 id;\n        string name;\n    }\n\n    struct Machine {\n        uint256 id;\n        string name;\n        string description;\n        uint256 companyId;\n    }\n\n    struct Recipe {\n        uint256 id;\n        string name;\n        string description;\n        uint256 companyId;\n    }\n\n    struct Product {\n        uint256 id;\n        string name;\n        string description;\n        uint256 companyId;\n        uint256 recipeId;\n    }\n\n    struct RecipeStep {\n        uint256 id;\n        string name;\n        string description;\n        uint256 recipeId;\n        uint256 machineId;\n    }\n\n    struct MeasureConstraint {\n        uint256 id;\n        string name;\n        int256 maxMeasure;\n        int256 minMeasure;\n        string unitOfMeasure;\n        uint256 recipeStepId;\n        uint256 machineId;\n    }\n\n    struct Phase {\n        uint256 id;\n        string name;\n        string description;\n        uint256 productId;\n        uint256 machineId;\n        uint256 recipeStepId;\n    }\n\n    struct Measure {\n        uint256 id;\n        string name;\n        uint256 measure;\n        string unitOfMeasure;\n        uint256 measureStartTime;\n        uint256 measureEndTime;\n        uint256 phaseId;\n        uint256 measureConstraintId;\n    }\n\n\n    Company[] public companies;\n    Machine[] public machines;\n    Recipe[] public recipes;\n    Product[] public products;\n    RecipeStep[] public recipeSteps;\n    MeasureConstraint[] public measureConstraints;\n    Phase[] public phases;\n    Measure[] public measures;\n\n    uint256 private companyIdCounter;\n    uint256 private machineIdCounter;\n    uint256 private recipeIdCounter;\n    uint256 private recipeStepIdCounter;\n    uint256 private measureConstraintIdCounter;\n    uint256 private productIdCounter;\n    uint256 private phaseIdCounter;\n    uint256 private measureIdCounter;\n\n    address private owner; \n\n    mapping (address => USER_TYPE) private userMap;\n\n    event CompanyCreated(uint256 id);\n    event MachineCreated(uint256 id);\n    event RecipeCreated(uint256 id);\n    event RecipeStepCreated(uint256 id);\n    event MeasureConstraintCreated(uint256 id);\n    event ProductCreated(uint256 id);\n    event PhaseCreated(uint256 id);\n    event MeasureCreated(uint256 id);\n\n    constructor(){\n        owner = msg.sender; \n        userMap[owner] = USER_TYPE.OWNER; \n    }\n\n    function addAdmin(address admin) public {\n        require(msg.sender == owner);\n        userMap[admin] = USER_TYPE.ADMIN; \n    }\n\n    function addDataProvider(address dataProviderUser) public {\n        require(userMap[msg.sender] == USER_TYPE.ADMIN);\n        userMap[dataProviderUser] = USER_TYPE.DATA_PROVIDER; \n    }\n\n    function getUserType() public view returns(USER_TYPE userType){\n        return userMap[msg.sender]; \n    }\n\n    function addCompany(string memory name) public returns (uint256 companyId) {\n        companies.push(Company(companyIdCounter, name));\n        uint256 id = companyIdCounter;\n        companyIdCounter += 1;\n        emit CompanyCreated(id);\n        return id;\n    }\n\n    function addMachine(\n        uint256 companyId,\n        string memory name,\n        string memory description\n    ) public returns (uint256 machineId) {\n        require(userMap[msg.sender] == USER_TYPE.ADMIN);\n        machines.push(Machine(machineIdCounter, name, description, companyId));\n        uint256 id = machineIdCounter;\n        machineIdCounter += 1;\n        emit MachineCreated(id);\n        return id;\n    }\n\n    function addRecipe(\n        uint256 companyId,\n        string memory name,\n        string memory description\n    ) public returns (uint256 recipeId) {\n        require(userMap[msg.sender] == USER_TYPE.ADMIN);\n        recipes.push(Recipe(recipeIdCounter, name, description, companyId));\n        uint256 id = recipeIdCounter;\n        recipeIdCounter += 1;\n        emit RecipeCreated(id);\n        return id;\n    }\n\n    function addRecipeStep(\n        uint256 recipeId,\n        uint256 machineId,\n        string memory name,\n        string memory description\n    ) public returns (uint256 recipeStepId) {\n        require(userMap[msg.sender] == USER_TYPE.ADMIN);\n        recipeSteps.push(\n            RecipeStep(\n                recipeStepIdCounter,\n                name,\n                description,\n                recipeId,\n                machineId\n            )\n        );\n        uint256 id = recipeStepIdCounter;\n        emit RecipeStepCreated(id);\n        recipeStepIdCounter += 1;\n        return id;\n    }\n\n    function addMeasureConstraint(\n        uint256 recipeStepId,\n        uint256 machineId,\n        string memory name,\n        int256 maxMeasure,\n        int256 minMeasure,\n        string memory unitOfMeasure\n    ) public returns (uint256 measureId) {\n        require(userMap[msg.sender] == USER_TYPE.ADMIN);\n        measureConstraints.push(\n            MeasureConstraint(\n                measureConstraintIdCounter,\n                name,\n                maxMeasure,\n                minMeasure,\n                unitOfMeasure,\n                recipeStepId,\n                machineId\n            )\n        );\n        uint256 id = measureConstraintIdCounter;\n        measureConstraintIdCounter += 1;\n        emit MeasureConstraintCreated(id);\n        return id;\n    }\n\n    function addProduct(\n        uint256 companyId,\n        uint256 recipyId,\n        string memory name,\n        string memory description\n    ) public returns (uint256 productId) {\n        require(userMap[msg.sender] == USER_TYPE.ADMIN);\n        products.push(\n            Product(productIdCounter, name, description, companyId, recipyId)\n        );\n        uint256 id = productIdCounter;\n        emit ProductCreated(id);\n        productIdCounter += 1;\n        return id;\n    }\n\n    function addPhase(\n        uint256 productId,\n        uint256 machineId,\n        uint256 recipeStepId,\n        string memory name,\n        string memory description\n    ) public returns (uint256 phaseId) {\n        require(userMap[msg.sender] == USER_TYPE.DATA_PROVIDER || userMap[msg.sender] == USER_TYPE.ADMIN );\n        phases.push(\n            Phase(\n                phaseIdCounter,\n                name,\n                description,\n                productId,\n                machineId,\n                recipeStepId\n            )\n        );\n        uint256 id = phaseIdCounter;\n        emit PhaseCreated(id);\n        phaseIdCounter += 1;\n        return id;\n    }\n\n    function addMeasure(\n        uint256 phaseId,\n        uint256 measureConstraintId,\n        string memory name,\n        uint256 measure, \n        string memory unitOfMeasure,\n        uint256 measureStartTime,\n        uint256 measureEndTime\n    ) public returns (uint256 measureId) {\n        require(userMap[msg.sender] == USER_TYPE.DATA_PROVIDER || userMap[msg.sender] == USER_TYPE.ADMIN );\n        measures.push(\n            Measure(\n                measureIdCounter,\n                name,\n                measure, \n                unitOfMeasure,\n                measureStartTime,\n                measureEndTime,\n                phaseId,\n                measureConstraintId\n            )\n        );\n        uint256 id = measureIdCounter;\n        emit MeasureCreated(id);\n        measureIdCounter += 1;\n        return id;\n    }\n\n    function getCompanyById(uint256 companyId)\n        public\n        view\n        returns (Company memory company)\n    {\n        for (\n            uint256 companyIndex;\n            companyIndex < companies.length;\n            companyIndex++\n        ) {\n            if (companies[companyIndex].id == companyId) {\n                return companies[companyIndex];\n            }\n        }\n    }\n\n    function getRecipebyId(uint256 recipeId)\n        public\n        view\n        returns (Recipe memory recipe)\n    {\n        for (uint256 recipeIndex; recipeIndex < recipes.length; recipeIndex++) {\n            if (recipes[recipeIndex].id == recipeId) {\n                return recipes[recipeIndex];\n            }\n        }\n    }\n\n    function getRecipeStepbyId(uint256 recipeStepId)\n        public\n        view\n        returns (RecipeStep memory recipeStep)\n    {\n        for (\n            uint256 recipeStepIndex;\n            recipeStepIndex < recipeSteps.length;\n            recipeStepIndex++\n        ) {\n            if (recipeSteps[recipeStepIndex].id == recipeStepId) {\n                return recipeSteps[recipeStepIndex];\n            }\n        }\n    }\n\n    function getMeasureConstraintById(uint256 measureConstraintId)\n        public\n        view\n        returns (MeasureConstraint memory measureConstraint)\n    {\n        for (\n            uint256 measureConstraintIndex;\n            measureConstraintIndex < measureConstraints.length;\n            measureConstraintIndex++\n        ) {\n            if (\n                measureConstraints[measureConstraintIndex].id ==\n                measureConstraintId\n            ) {\n                return measureConstraints[measureConstraintIndex];\n            }\n        }\n    }\n\n    function getProductById(uint256 productId)\n        public\n        view\n        returns (Product memory product)\n    {\n        for (\n            uint256 productIndex;\n            productIndex < products.length;\n            productIndex++\n        ) {\n            if (products[productIndex].id == productId) {\n                return products[productIndex];\n            }\n        }\n    }\n\n    function getPhaseById(uint256 phaseId)\n        public\n        view\n        returns (Phase memory phase)\n    {\n        for (uint256 phaseIndex; phaseIndex < phases.length; phaseIndex++) {\n            if (phases[phaseIndex].id == phaseId) {\n                return phases[phaseIndex];\n            }\n        }\n    }\n\n    function getMeasureById(uint256 measureId)\n        public\n        view\n        returns (Measure memory measure)\n    {\n        for (\n            uint256 measureIndex;\n            measureIndex < measures.length;\n            measureIndex++\n        ) {\n            if (measures[measureIndex].id == measureId) {\n                return measures[measureIndex];\n            }\n        }\n    }\n\n    function getMachineById(uint256 machineId)\n        public\n        view\n        returns (Machine memory machine)\n    {\n        for (\n            uint256 machineIndex;\n            machineIndex < machines.length;\n            machineIndex++\n        ) {\n            if (machines[machineIndex].id == machineId) {\n                return machines[machineIndex];\n            }\n        }\n    }\n\n    function getNumOfProductsByCompanyId(uint256 companyId)\n        private\n        view\n        returns (uint256 numOfProducts)\n    {\n        uint256 productCounter = 0;\n        for (\n            uint256 productIndex = 0;\n            productIndex < products.length;\n            productIndex++\n        ) {\n            if (products[productIndex].companyId == companyId) {\n                productCounter += 1;\n            }\n        }\n        return productCounter;\n    }\n\n    function getProductsByCompanyId(uint256 companyId)\n        public\n        view\n        returns (Product[] memory)\n    {\n        uint256 numOfProducts = getNumOfProductsByCompanyId(companyId);\n        Product[] memory productTemp = new Product[](numOfProducts);\n        uint256 productCounter = 0;\n        for (\n            uint256 productIndex = 0;\n            productIndex < products.length;\n            productIndex++\n        ) {\n            if (products[productIndex].companyId == companyId) {\n                productTemp[productCounter] = products[productIndex];\n                productCounter += 1;\n            }\n        }\n        return productTemp;\n    }\n\n    function getNumOfProductsByRecipeId(uint256 recipeId)\n        private\n        view\n        returns (uint256 numOfProducts)\n    {\n        uint256 productCounter = 0;\n        for (\n            uint256 productIndex = 0;\n            productIndex < products.length;\n            productIndex++\n        ) {\n            if (products[productIndex].recipeId == recipeId) {\n                productCounter += 1;\n            }\n        }\n        return productCounter;\n    }\n\n    function getProductsByRecipyId(uint256 recipeId)\n        public\n        view\n        returns (Product[] memory)\n    {\n        uint256 numOfProducts = getNumOfProductsByRecipeId(recipeId);\n        Product[] memory productTemp = new Product[](numOfProducts);\n        uint256 productCounter = 0;\n        for (\n            uint256 productIndex = 0;\n            productIndex < products.length;\n            productIndex++\n        ) {\n            if (products[productIndex].recipeId == recipeId) {\n                productTemp[productCounter] = products[productIndex];\n                productCounter += 1;\n            }\n        }\n        return productTemp;\n    }\n\n    function getNumOfMachinesByCompanyId(uint256 companyId)\n        public\n        view\n        returns (uint256 numOfMachines)\n    {\n        uint256 machineCounter = 0;\n\n        for (\n            uint256 machineIndex = 0;\n            machineIndex < machines.length;\n            machineIndex++\n        ) {\n            if (machines[machineIndex].companyId == companyId) {\n                machineCounter += 1;\n            }\n        }\n        return machineCounter;\n    }\n\n    function getMachinesByCompanyId(uint256 companyId)\n        public\n        view\n        returns (Machine[] memory)\n    {\n        uint256 numOfMachine = getNumOfMachinesByCompanyId(companyId);\n        Machine[] memory machineTemp = new Machine[](numOfMachine);\n        uint256 machineCounter = 0;\n        for (\n            uint256 machineIndex = 0;\n            machineIndex < machines.length;\n            machineIndex++\n        ) {\n            if (machines[machineIndex].companyId == companyId) {\n                machineTemp[machineCounter] = machines[machineIndex];\n                machineCounter += 1;\n            }\n        }\n        return machineTemp;\n    }\n\n    function getNumOfRecipesByCompanyId(uint256 companyId)\n        public\n        view\n        returns (uint256 numOfRecepes)\n    {\n        uint256 counter = 0;\n\n        for (\n            uint256 recipesIndex = 0;\n            recipesIndex < recipes.length;\n            recipesIndex++\n        ) {\n            if (recipes[recipesIndex].companyId == companyId) {\n                counter += 1;\n            }\n        }\n        return counter;\n    }\n\n    function getRecipesByCompanyId(uint256 companyId)\n        public\n        view\n        returns (Recipe[] memory)\n    {\n        uint256 numOfRecepies = getNumOfRecipesByCompanyId(companyId);\n        Recipe[] memory recipeTemp = new Recipe[](numOfRecepies);\n        uint256 recipeCounter = 0;\n        for (\n            uint256 recipeIndex = 0;\n            recipeIndex < recipes.length;\n            recipeIndex++\n        ) {\n            if (recipes[recipeIndex].companyId == companyId) {\n                recipeTemp[recipeCounter] = recipes[recipeIndex];\n                recipeCounter += 1;\n            }\n        }\n        return recipeTemp;\n    }\n\n    function getNumOfRecipeStepsByRecipeId(uint256 recipeId)\n        public\n        view\n        returns (uint256 numOfRecepes)\n    {\n        uint256 counter = 0;\n\n        for (\n            uint256 recipeIndex = 0;\n            recipeIndex < recipeSteps.length;\n            recipeIndex++\n        ) {\n            if (recipeSteps[recipeIndex].recipeId == recipeId) {\n                counter += 1;\n            }\n        }\n        return counter;\n    }\n\n    function getRecipeStepsByRecipeId(uint256 recipeId)\n        public\n        view\n        returns (RecipeStep[] memory)\n    {\n        uint256 numOfRecipes = getNumOfRecipeStepsByRecipeId(recipeId);\n        RecipeStep[] memory recipeTemp = new RecipeStep[](numOfRecipes);\n        uint256 recipeCounter = 0;\n        for (\n            uint256 recipeIndex = 0;\n            recipeIndex < recipeSteps.length;\n            recipeIndex++\n        ) {\n            if (recipeSteps[recipeIndex].recipeId == recipeId) {\n                recipeTemp[recipeCounter] = recipeSteps[recipeIndex];\n                recipeCounter += 1;\n            }\n        }\n        return recipeTemp;\n    }\n\n    function getNumOfRecipeStepsByMachineId(uint256 machineId)\n        public\n        view\n        returns (uint256 numOfRecepes)\n    {\n        uint256 counter = 0;\n\n        for (\n            uint256 recipeIndex = 0;\n            recipeIndex < recipeSteps.length;\n            recipeIndex++\n        ) {\n            if (recipeSteps[recipeIndex].machineId == machineId) {\n                counter += 1;\n            }\n        }\n        return counter;\n    }\n\n    function getRecipeStepsByMachineId(uint256 machineId)\n        public\n        view\n        returns (RecipeStep[] memory)\n    {\n        uint256 numOfRecipes = getNumOfRecipeStepsByMachineId(machineId);\n        RecipeStep[] memory recipeTemp = new RecipeStep[](numOfRecipes);\n        uint256 recipeCounter = 0;\n        for (\n            uint256 recipeIndex = 0;\n            recipeIndex < recipeSteps.length;\n            recipeIndex++\n        ) {\n            if (recipeSteps[recipeIndex].machineId == machineId) {\n                recipeTemp[recipeCounter] = recipeSteps[recipeIndex];\n                recipeCounter += 1;\n            }\n        }\n        return recipeTemp;\n    }\n\n    function getNumOfMeasureConstraintByRecipeStepId(uint256 recipeStepId)\n        public\n        view\n        returns (uint256 numOfMeasureConstraints)\n    {\n        uint256 counter = 0;\n\n        for (\n            uint256 measureConstraintIndex = 0;\n            measureConstraintIndex < measureConstraints.length;\n            measureConstraintIndex++\n        ) {\n            if (\n                measureConstraints[measureConstraintIndex].recipeStepId ==\n                recipeStepId\n            ) {\n                counter += 1;\n            }\n        }\n        return counter;\n    }\n\n    function getMeasureConstraintsByRecipeStepId(uint256 recipeStepId)\n        public\n        view\n        returns (MeasureConstraint[] memory)\n    {\n        uint256 numOfMeasureConstraints =\n            getNumOfMeasureConstraintByRecipeStepId(recipeStepId);\n        MeasureConstraint[] memory measureConstraintTemp =\n            new MeasureConstraint[](numOfMeasureConstraints);\n        uint256 measureConstraintCounter = 0;\n        for (\n            uint256 measureConstraintIndex = 0;\n            measureConstraintIndex < measureConstraints.length;\n            measureConstraintIndex++\n        ) {\n            if (\n                measureConstraints[measureConstraintIndex].recipeStepId ==\n                recipeStepId\n            ) {\n                measureConstraintTemp[\n                    measureConstraintCounter\n                ] = measureConstraints[measureConstraintIndex];\n                measureConstraintCounter += 1;\n            }\n        }\n        return measureConstraintTemp;\n    }\n\n    function getNumOfPhasesByProductId(uint256 productId)\n        public\n        view\n        returns (uint256 numOfPhases)\n    {\n        uint256 counter = 0;\n\n        for (uint256 phaseIndex = 0; phaseIndex < phases.length; phaseIndex++) {\n            if (phases[phaseIndex].productId == productId) {\n                counter += 1;\n            }\n        }\n        return counter;\n    }\n\n    function getPhasesByProductId(uint256 productId)\n        public\n        view\n        returns (Phase[] memory)\n    {\n        uint256 numOfPhases = getNumOfPhasesByProductId(productId);\n        Phase[] memory phaseTemp = new Phase[](numOfPhases);\n        uint256 phaseCounter = 0;\n        for (uint256 phaseIndex = 0; phaseIndex < phases.length; phaseIndex++) {\n            if (phases[phaseIndex].productId == productId) {\n                phaseTemp[phaseCounter] = phases[phaseIndex];\n                phaseCounter += 1;\n            }\n        }\n        return phaseTemp;\n    }\n\n    function getNumOfPhasesByMachineId(uint256 machineId)\n        public\n        view\n        returns (uint256 numOfPhases)\n    {\n        uint256 counter = 0;\n\n        for (uint256 phaseIndex = 0; phaseIndex < phases.length; phaseIndex++) {\n            if (phases[phaseIndex].machineId == machineId) {\n                counter += 1;\n            }\n        }\n        return counter;\n    }\n\n    function getPhasesByMachineId(uint256 machineId)\n        public\n        view\n        returns (Phase[] memory)\n    {\n        uint256 numOfPhases = getNumOfPhasesByMachineId(machineId);\n        Phase[] memory phaseTemp = new Phase[](numOfPhases);\n        uint256 phaseCounter = 0;\n        for (uint256 phaseIndex = 0; phaseIndex < phases.length; phaseIndex++) {\n            if (phases[phaseIndex].machineId == machineId) {\n                phaseTemp[phaseCounter] = phases[phaseIndex];\n                phaseCounter += 1;\n            }\n        }\n        return phaseTemp;\n    }\n\n    function getNumOfPhasesByRecipeStepId(uint256 recipeStepId)\n        public\n        view\n        returns (uint256 numOfPhases)\n    {\n        uint256 counter = 0;\n\n        for (uint256 phaseIndex = 0; phaseIndex < phases.length; phaseIndex++) {\n            if (phases[phaseIndex].recipeStepId == recipeStepId) {\n                counter += 1;\n            }\n        }\n        return counter;\n    }\n\n    function getPhasesByRecipeStepId(uint256 recipeStepId)\n        public\n        view\n        returns (Phase[] memory)\n    {\n        uint256 numOfPhases = getNumOfPhasesByRecipeStepId(recipeStepId);\n        Phase[] memory phaseTemp = new Phase[](numOfPhases);\n        uint256 phaseCounter = 0;\n        for (uint256 phaseIndex = 0; phaseIndex < phases.length; phaseIndex++) {\n            if (phases[phaseIndex].recipeStepId == recipeStepId) {\n                phaseTemp[phaseCounter] = phases[phaseIndex];\n                phaseCounter += 1;\n            }\n        }\n        return phaseTemp;\n    }\n\n    function getNumOfMeasuresByPhaseId(uint256 phaseId)\n        public\n        view\n        returns (uint256 numOfMeasures)\n    {\n        uint256 counter = 0;\n\n        for (\n            uint256 measureIndex = 0;\n            measureIndex < measures.length;\n            measureIndex++\n        ) {\n            if (measures[measureIndex].phaseId == phaseId) {\n                counter += 1;\n            }\n        }\n        return counter;\n    }\n\n    function getMeasuresByPhaseId(uint256 phaseId)\n        public\n        view\n        returns (Measure[] memory)\n    {\n        uint256 numOfMeasures = getNumOfMeasuresByPhaseId(phaseId);\n        Measure[] memory measureTemp = new Measure[](numOfMeasures);\n        uint256 measureCounter = 0;\n        for (\n            uint256 measureIndex = 0;\n            measureIndex < measures.length;\n            measureIndex++\n        ) {\n            if (measures[measureIndex].phaseId == phaseId) {\n                measureTemp[measureCounter] = measures[measureIndex];\n                measureCounter += 1;\n            }\n        }\n        return measureTemp;\n    }\n\n    function getNumOfMeasureConstraintsByMeasureConstraintId(\n        uint256 measureConstraintId\n    ) public view returns (uint256 numOfMeasures) {\n        uint256 counter = 0;\n\n        for (\n            uint256 measureIndex = 0;\n            measureIndex < measures.length;\n            measureIndex++\n        ) {\n            if (\n                measures[measureIndex].measureConstraintId ==\n                measureConstraintId\n            ) {\n                counter += 1;\n            }\n        }\n        return counter;\n    }\n\n    function getMeasuresByMeasureConstraintId(uint256 measureConstraintId)\n        public\n        view\n        returns (Measure[] memory)\n    {\n        uint256 numOfMeasures =\n            getNumOfMeasureConstraintsByMeasureConstraintId(\n                measureConstraintId\n            );\n        Measure[] memory measureTemp = new Measure[](numOfMeasures);\n        uint256 measureCounter = 0;\n        for (\n            uint256 measureIndex = 0;\n            measureIndex < measures.length;\n            measureIndex++\n        ) {\n            if (\n                measures[measureIndex].measureConstraintId ==\n                measureConstraintId\n            ) {\n                measureTemp[measureCounter] = measures[measureIndex];\n                measureCounter += 1;\n            }\n        }\n        return measureTemp;\n    }\n\n    function getMeasureConstraints()\n        public\n        view\n        returns (MeasureConstraint[] memory)\n    {\n        return measureConstraints;\n    }\n\n    // function getMachinesByListOfPhase(Phase[] memory phasesUsed)\n    //     public\n    //     view\n    //     returns (Machine[] memory)\n    // {\n    //     Machine[] memory machinesUsed = new Machine[](phasesUsed.length);\n    //     for (uint256 phaseIndex; phaseIndex < phasesUsed.length; phaseIndex++) {\n    //         uint256 machineId = phasesUsed[phaseIndex].machineId;\n    //         machinesUsed[phaseIndex] = getMachineById(machineId);\n    //     }\n    //     return machinesUsed;\n    // }\n\n    // function getRecipeStepsByListOfPhase(Phase[] memory phasesUsed)\n    //     public\n    //     view\n    //     returns (RecipeStep[] memory)\n    // {\n    //     RecipeStep[] memory recipeStepsInPhases = new RecipeStep[](phasesUsed.length);\n    //     for (uint256 phaseIndex; phaseIndex < phasesUsed.length; phaseIndex++) {\n    //         uint256 recipeStepId = phasesUsed[phaseIndex].recipeStepId;\n    //         recipeStepsInPhases[phaseIndex] = getRecipeStepbyId(recipeStepId);\n    //     }\n    //     return recipeStepsInPhases;\n    // }\n\n    // function getAllMeasuresByListOfPhase(Phase[] memory phasesUsed) private view returns (mapping(uint256 => Measure[]) storage){\n    //     mapping(uint256 => Measure[]) storage prova;\n    // }\n\n    // function getProductInformationById(uint256 productId)\n    //     public\n    //     view\n    //     returns (ProductInformation memory)\n    // {\n    //     Product memory product = getProductById(productId);\n    //     Company memory company = getCompanyById(product.companyId);\n    //     Phase[] memory phases = getPhasesByProductId(productId);\n    //     Machine[] memory machines = getMachinesByListOfPhase(phases);\n    //     Recipe memory recipe = getRecipesbyId(product.recipeId);\n    //     RecipeStep[] memory recipeSteps = getRecipeStepsByListOfPhase(phases);\n\n    // }\n}\n",
  "sourcePath": "/home/giovanni/Scrivania/smart_contracts_cyber_securety/contracts/ICESmartContract.sol",
  "compiler": {
    "name": "solc",
    "version": "0.8.5+commit.a4f2e591.Emscripten.clang"
  },
  "schemaVersion": "3.4.1",
  "updatedAt": "2021-06-18T20:14:36.617Z",
  "devdoc": {
    "kind": "dev",
    "methods": {},
    "version": 1
  },
  "userdoc": {
    "kind": "user",
    "methods": {},
    "version": 1
  }
}