{
  "contractName": "ICESmartContract",
  "abi": [
    {
      "inputs": [
        {
          "internalType": "uint256",
          "name": "",
          "type": "uint256"
        }
      ],
      "name": "companies",
      "outputs": [
        {
          "internalType": "uint256",
          "name": "id",
          "type": "uint256"
        },
        {
          "internalType": "string",
          "name": "name",
          "type": "string"
        }
      ],
      "stateMutability": "view",
      "type": "function"
    },
    {
      "inputs": [
        {
          "internalType": "uint256",
          "name": "",
          "type": "uint256"
        }
      ],
      "name": "machines",
      "outputs": [
        {
          "internalType": "uint256",
          "name": "id",
          "type": "uint256"
        },
        {
          "internalType": "string",
          "name": "name",
          "type": "string"
        },
        {
          "internalType": "string",
          "name": "description",
          "type": "string"
        },
        {
          "internalType": "uint256",
          "name": "companyId",
          "type": "uint256"
        }
      ],
      "stateMutability": "view",
      "type": "function"
    },
    {
      "inputs": [
        {
          "internalType": "uint256",
          "name": "",
          "type": "uint256"
        }
      ],
      "name": "measureConstraints",
      "outputs": [
        {
          "internalType": "uint256",
          "name": "id",
          "type": "uint256"
        },
        {
          "internalType": "string",
          "name": "name",
          "type": "string"
        },
        {
          "internalType": "int256",
          "name": "maxMeasure",
          "type": "int256"
        },
        {
          "internalType": "int256",
          "name": "minMeasure",
          "type": "int256"
        },
        {
          "internalType": "string",
          "name": "unitOfMeasure",
          "type": "string"
        },
        {
          "internalType": "uint256",
          "name": "recipeStepId",
          "type": "uint256"
        },
        {
          "internalType": "uint256",
          "name": "machineId",
          "type": "uint256"
        }
      ],
      "stateMutability": "view",
      "type": "function"
    },
    {
      "inputs": [
        {
          "internalType": "uint256",
          "name": "",
          "type": "uint256"
        }
      ],
      "name": "measures",
      "outputs": [
        {
          "internalType": "uint256",
          "name": "id",
          "type": "uint256"
        },
        {
          "internalType": "string",
          "name": "name",
          "type": "string"
        },
        {
          "internalType": "string",
          "name": "unitOfMeasure",
          "type": "string"
        },
        {
          "internalType": "uint256",
          "name": "measureStartTime",
          "type": "uint256"
        },
        {
          "internalType": "uint256",
          "name": "measureEndTime",
          "type": "uint256"
        },
        {
          "internalType": "uint256",
          "name": "phaseId",
          "type": "uint256"
        },
        {
          "internalType": "uint256",
          "name": "measureConstraintId",
          "type": "uint256"
        }
      ],
      "stateMutability": "view",
      "type": "function"
    },
    {
      "inputs": [
        {
          "internalType": "uint256",
          "name": "",
          "type": "uint256"
        }
      ],
      "name": "phases",
      "outputs": [
        {
          "internalType": "uint256",
          "name": "id",
          "type": "uint256"
        },
        {
          "internalType": "string",
          "name": "name",
          "type": "string"
        },
        {
          "internalType": "string",
          "name": "description",
          "type": "string"
        },
        {
          "internalType": "uint256",
          "name": "productId",
          "type": "uint256"
        },
        {
          "internalType": "uint256",
          "name": "machineId",
          "type": "uint256"
        },
        {
          "internalType": "uint256",
          "name": "recipeStepId",
          "type": "uint256"
        }
      ],
      "stateMutability": "view",
      "type": "function"
    },
    {
      "inputs": [
        {
          "internalType": "uint256",
          "name": "",
          "type": "uint256"
        }
      ],
      "name": "products",
      "outputs": [
        {
          "internalType": "uint256",
          "name": "id",
          "type": "uint256"
        },
        {
          "internalType": "string",
          "name": "name",
          "type": "string"
        },
        {
          "internalType": "string",
          "name": "description",
          "type": "string"
        },
        {
          "internalType": "uint256",
          "name": "companyId",
          "type": "uint256"
        },
        {
          "internalType": "uint256",
          "name": "recipeId",
          "type": "uint256"
        }
      ],
      "stateMutability": "view",
      "type": "function"
    },
    {
      "inputs": [
        {
          "internalType": "uint256",
          "name": "",
          "type": "uint256"
        }
      ],
      "name": "recipeSteps",
      "outputs": [
        {
          "internalType": "uint256",
          "name": "id",
          "type": "uint256"
        },
        {
          "internalType": "string",
          "name": "name",
          "type": "string"
        },
        {
          "internalType": "string",
          "name": "description",
          "type": "string"
        },
        {
          "internalType": "uint256",
          "name": "recipeId",
          "type": "uint256"
        },
        {
          "internalType": "uint256",
          "name": "machineId",
          "type": "uint256"
        }
      ],
      "stateMutability": "view",
      "type": "function"
    },
    {
      "inputs": [
        {
          "internalType": "uint256",
          "name": "",
          "type": "uint256"
        }
      ],
      "name": "recipes",
      "outputs": [
        {
          "internalType": "uint256",
          "name": "id",
          "type": "uint256"
        },
        {
          "internalType": "string",
          "name": "name",
          "type": "string"
        },
        {
          "internalType": "string",
          "name": "description",
          "type": "string"
        },
        {
          "internalType": "uint256",
          "name": "companyId",
          "type": "uint256"
        }
      ],
      "stateMutability": "view",
      "type": "function"
    },
    {
      "inputs": [
        {
          "internalType": "string",
          "name": "name",
          "type": "string"
        }
      ],
      "name": "addCompany",
      "outputs": [
        {
          "internalType": "uint256",
          "name": "companyId",
          "type": "uint256"
        }
      ],
      "stateMutability": "nonpayable",
      "type": "function"
    },
    {
      "inputs": [
        {
          "internalType": "uint256",
          "name": "companyId",
          "type": "uint256"
        },
        {
          "internalType": "string",
          "name": "name",
          "type": "string"
        },
        {
          "internalType": "string",
          "name": "description",
          "type": "string"
        }
      ],
      "name": "addMachine",
      "outputs": [
        {
          "internalType": "uint256",
          "name": "machineId",
          "type": "uint256"
        }
      ],
      "stateMutability": "nonpayable",
      "type": "function"
    },
    {
      "inputs": [
        {
          "internalType": "uint256",
          "name": "companyId",
          "type": "uint256"
        },
        {
          "internalType": "string",
          "name": "name",
          "type": "string"
        },
        {
          "internalType": "string",
          "name": "description",
          "type": "string"
        }
      ],
      "name": "addRecipe",
      "outputs": [
        {
          "internalType": "uint256",
          "name": "recipeId",
          "type": "uint256"
        }
      ],
      "stateMutability": "nonpayable",
      "type": "function"
    },
    {
      "inputs": [
        {
          "internalType": "uint256",
          "name": "recipeId",
          "type": "uint256"
        },
        {
          "internalType": "uint256",
          "name": "machineId",
          "type": "uint256"
        },
        {
          "internalType": "string",
          "name": "name",
          "type": "string"
        },
        {
          "internalType": "string",
          "name": "description",
          "type": "string"
        }
      ],
      "name": "addRecipeStep",
      "outputs": [
        {
          "internalType": "uint256",
          "name": "recipeStepId",
          "type": "uint256"
        }
      ],
      "stateMutability": "nonpayable",
      "type": "function"
    },
    {
      "inputs": [
        {
          "internalType": "uint256",
          "name": "recipeStepId",
          "type": "uint256"
        },
        {
          "internalType": "uint256",
          "name": "machineId",
          "type": "uint256"
        },
        {
          "internalType": "string",
          "name": "name",
          "type": "string"
        },
        {
          "internalType": "int256",
          "name": "maxMeasure",
          "type": "int256"
        },
        {
          "internalType": "int256",
          "name": "minMeasure",
          "type": "int256"
        },
        {
          "internalType": "string",
          "name": "unitOfMeasure",
          "type": "string"
        }
      ],
      "name": "addMeasureConstraint",
      "outputs": [
        {
          "internalType": "uint256",
          "name": "measureId",
          "type": "uint256"
        }
      ],
      "stateMutability": "nonpayable",
      "type": "function"
    },
    {
      "inputs": [
        {
          "internalType": "uint256",
          "name": "companyId",
          "type": "uint256"
        },
        {
          "internalType": "uint256",
          "name": "recipyId",
          "type": "uint256"
        },
        {
          "internalType": "string",
          "name": "name",
          "type": "string"
        },
        {
          "internalType": "string",
          "name": "description",
          "type": "string"
        }
      ],
      "name": "addProduct",
      "outputs": [
        {
          "internalType": "uint256",
          "name": "productId",
          "type": "uint256"
        }
      ],
      "stateMutability": "nonpayable",
      "type": "function"
    },
    {
      "inputs": [
        {
          "internalType": "uint256",
          "name": "productId",
          "type": "uint256"
        },
        {
          "internalType": "uint256",
          "name": "machineId",
          "type": "uint256"
        },
        {
          "internalType": "uint256",
          "name": "recipeStepId",
          "type": "uint256"
        },
        {
          "internalType": "string",
          "name": "name",
          "type": "string"
        },
        {
          "internalType": "string",
          "name": "description",
          "type": "string"
        }
      ],
      "name": "addPhase",
      "outputs": [
        {
          "internalType": "uint256",
          "name": "phaseId",
          "type": "uint256"
        }
      ],
      "stateMutability": "nonpayable",
      "type": "function"
    },
    {
      "inputs": [
        {
          "internalType": "uint256",
          "name": "phaseId",
          "type": "uint256"
        },
        {
          "internalType": "uint256",
          "name": "measureConstraintId",
          "type": "uint256"
        },
        {
          "internalType": "string",
          "name": "name",
          "type": "string"
        },
        {
          "internalType": "string",
          "name": "unitOfMeasure",
          "type": "string"
        },
        {
          "internalType": "uint256",
          "name": "measureStartTime",
          "type": "uint256"
        },
        {
          "internalType": "uint256",
          "name": "measureEndTime",
          "type": "uint256"
        }
      ],
      "name": "addMeasure",
      "outputs": [
        {
          "internalType": "uint256",
          "name": "measureId",
          "type": "uint256"
        }
      ],
      "stateMutability": "nonpayable",
      "type": "function"
    },
    {
      "inputs": [
        {
          "internalType": "uint256",
          "name": "companyId",
          "type": "uint256"
        }
      ],
      "name": "getCompanyById",
      "outputs": [
        {
          "components": [
            {
              "internalType": "uint256",
              "name": "id",
              "type": "uint256"
            },
            {
              "internalType": "string",
              "name": "name",
              "type": "string"
            }
          ],
          "internalType": "struct ICESmartContract.Company",
          "name": "company",
          "type": "tuple"
        }
      ],
      "stateMutability": "view",
      "type": "function"
    },
    {
      "inputs": [
        {
          "internalType": "uint256",
          "name": "recipeId",
          "type": "uint256"
        }
      ],
      "name": "getRecipesbyId",
      "outputs": [
        {
          "components": [
            {
              "internalType": "uint256",
              "name": "id",
              "type": "uint256"
            },
            {
              "internalType": "string",
              "name": "name",
              "type": "string"
            },
            {
              "internalType": "string",
              "name": "description",
              "type": "string"
            },
            {
              "internalType": "uint256",
              "name": "companyId",
              "type": "uint256"
            }
          ],
          "internalType": "struct ICESmartContract.Recipe",
          "name": "recipe",
          "type": "tuple"
        }
      ],
      "stateMutability": "view",
      "type": "function"
    },
    {
      "inputs": [
        {
          "internalType": "uint256",
          "name": "recipeStepId",
          "type": "uint256"
        }
      ],
      "name": "getRecipeStepbyId",
      "outputs": [
        {
          "components": [
            {
              "internalType": "uint256",
              "name": "id",
              "type": "uint256"
            },
            {
              "internalType": "string",
              "name": "name",
              "type": "string"
            },
            {
              "internalType": "string",
              "name": "description",
              "type": "string"
            },
            {
              "internalType": "uint256",
              "name": "recipeId",
              "type": "uint256"
            },
            {
              "internalType": "uint256",
              "name": "machineId",
              "type": "uint256"
            }
          ],
          "internalType": "struct ICESmartContract.RecipeStep",
          "name": "recipeStep",
          "type": "tuple"
        }
      ],
      "stateMutability": "view",
      "type": "function"
    },
    {
      "inputs": [
        {
          "internalType": "uint256",
          "name": "measureConstraintId",
          "type": "uint256"
        }
      ],
      "name": "getMeasureConstraintById",
      "outputs": [
        {
          "components": [
            {
              "internalType": "uint256",
              "name": "id",
              "type": "uint256"
            },
            {
              "internalType": "string",
              "name": "name",
              "type": "string"
            },
            {
              "internalType": "int256",
              "name": "maxMeasure",
              "type": "int256"
            },
            {
              "internalType": "int256",
              "name": "minMeasure",
              "type": "int256"
            },
            {
              "internalType": "string",
              "name": "unitOfMeasure",
              "type": "string"
            },
            {
              "internalType": "uint256",
              "name": "recipeStepId",
              "type": "uint256"
            },
            {
              "internalType": "uint256",
              "name": "machineId",
              "type": "uint256"
            }
          ],
          "internalType": "struct ICESmartContract.MeasureConstraint",
          "name": "measureConstraint",
          "type": "tuple"
        }
      ],
      "stateMutability": "view",
      "type": "function"
    },
    {
      "inputs": [
        {
          "internalType": "uint256",
          "name": "productId",
          "type": "uint256"
        }
      ],
      "name": "getProductById",
      "outputs": [
        {
          "components": [
            {
              "internalType": "uint256",
              "name": "id",
              "type": "uint256"
            },
            {
              "internalType": "string",
              "name": "name",
              "type": "string"
            },
            {
              "internalType": "string",
              "name": "description",
              "type": "string"
            },
            {
              "internalType": "uint256",
              "name": "companyId",
              "type": "uint256"
            },
            {
              "internalType": "uint256",
              "name": "recipeId",
              "type": "uint256"
            }
          ],
          "internalType": "struct ICESmartContract.Product",
          "name": "product",
          "type": "tuple"
        }
      ],
      "stateMutability": "view",
      "type": "function"
    },
    {
      "inputs": [
        {
          "internalType": "uint256",
          "name": "phaseId",
          "type": "uint256"
        }
      ],
      "name": "getPhaseById",
      "outputs": [
        {
          "components": [
            {
              "internalType": "uint256",
              "name": "id",
              "type": "uint256"
            },
            {
              "internalType": "string",
              "name": "name",
              "type": "string"
            },
            {
              "internalType": "string",
              "name": "description",
              "type": "string"
            },
            {
              "internalType": "uint256",
              "name": "productId",
              "type": "uint256"
            },
            {
              "internalType": "uint256",
              "name": "machineId",
              "type": "uint256"
            },
            {
              "internalType": "uint256",
              "name": "recipeStepId",
              "type": "uint256"
            }
          ],
          "internalType": "struct ICESmartContract.Phase",
          "name": "phase",
          "type": "tuple"
        }
      ],
      "stateMutability": "view",
      "type": "function"
    },
    {
      "inputs": [
        {
          "internalType": "uint256",
          "name": "measureId",
          "type": "uint256"
        }
      ],
      "name": "getMeasureById",
      "outputs": [
        {
          "components": [
            {
              "internalType": "uint256",
              "name": "id",
              "type": "uint256"
            },
            {
              "internalType": "string",
              "name": "name",
              "type": "string"
            },
            {
              "internalType": "string",
              "name": "unitOfMeasure",
              "type": "string"
            },
            {
              "internalType": "uint256",
              "name": "measureStartTime",
              "type": "uint256"
            },
            {
              "internalType": "uint256",
              "name": "measureEndTime",
              "type": "uint256"
            },
            {
              "internalType": "uint256",
              "name": "phaseId",
              "type": "uint256"
            },
            {
              "internalType": "uint256",
              "name": "measureConstraintId",
              "type": "uint256"
            }
          ],
          "internalType": "struct ICESmartContract.Measure",
          "name": "measure",
          "type": "tuple"
        }
      ],
      "stateMutability": "view",
      "type": "function"
    },
    {
      "inputs": [
        {
          "internalType": "uint256",
          "name": "machineId",
          "type": "uint256"
        }
      ],
      "name": "getMachineById",
      "outputs": [
        {
          "components": [
            {
              "internalType": "uint256",
              "name": "id",
              "type": "uint256"
            },
            {
              "internalType": "string",
              "name": "name",
              "type": "string"
            },
            {
              "internalType": "string",
              "name": "description",
              "type": "string"
            },
            {
              "internalType": "uint256",
              "name": "companyId",
              "type": "uint256"
            }
          ],
          "internalType": "struct ICESmartContract.Machine",
          "name": "machine",
          "type": "tuple"
        }
      ],
      "stateMutability": "view",
      "type": "function"
    },
    {
      "inputs": [
        {
          "internalType": "uint256",
          "name": "companyId",
          "type": "uint256"
        }
      ],
      "name": "getProductsByCompanyId",
      "outputs": [
        {
          "components": [
            {
              "internalType": "uint256",
              "name": "id",
              "type": "uint256"
            },
            {
              "internalType": "string",
              "name": "name",
              "type": "string"
            },
            {
              "internalType": "string",
              "name": "description",
              "type": "string"
            },
            {
              "internalType": "uint256",
              "name": "companyId",
              "type": "uint256"
            },
            {
              "internalType": "uint256",
              "name": "recipeId",
              "type": "uint256"
            }
          ],
          "internalType": "struct ICESmartContract.Product[]",
          "name": "",
          "type": "tuple[]"
        }
      ],
      "stateMutability": "view",
      "type": "function"
    },
    {
      "inputs": [
        {
          "internalType": "uint256",
          "name": "recipeId",
          "type": "uint256"
        }
      ],
      "name": "getProductsByRecipyId",
      "outputs": [
        {
          "components": [
            {
              "internalType": "uint256",
              "name": "id",
              "type": "uint256"
            },
            {
              "internalType": "string",
              "name": "name",
              "type": "string"
            },
            {
              "internalType": "string",
              "name": "description",
              "type": "string"
            },
            {
              "internalType": "uint256",
              "name": "companyId",
              "type": "uint256"
            },
            {
              "internalType": "uint256",
              "name": "recipeId",
              "type": "uint256"
            }
          ],
          "internalType": "struct ICESmartContract.Product[]",
          "name": "",
          "type": "tuple[]"
        }
      ],
      "stateMutability": "view",
      "type": "function"
    },
    {
      "inputs": [
        {
          "internalType": "uint256",
          "name": "companyId",
          "type": "uint256"
        }
      ],
      "name": "getNumOfMachinesByCompanyId",
      "outputs": [
        {
          "internalType": "uint256",
          "name": "numOfMachines",
          "type": "uint256"
        }
      ],
      "stateMutability": "view",
      "type": "function"
    },
    {
      "inputs": [
        {
          "internalType": "uint256",
          "name": "companyId",
          "type": "uint256"
        }
      ],
      "name": "getMachinesByCompanyId",
      "outputs": [
        {
          "components": [
            {
              "internalType": "uint256",
              "name": "id",
              "type": "uint256"
            },
            {
              "internalType": "string",
              "name": "name",
              "type": "string"
            },
            {
              "internalType": "string",
              "name": "description",
              "type": "string"
            },
            {
              "internalType": "uint256",
              "name": "companyId",
              "type": "uint256"
            }
          ],
          "internalType": "struct ICESmartContract.Machine[]",
          "name": "",
          "type": "tuple[]"
        }
      ],
      "stateMutability": "view",
      "type": "function"
    },
    {
      "inputs": [
        {
          "internalType": "uint256",
          "name": "companyId",
          "type": "uint256"
        }
      ],
      "name": "getNumOfRecipesByCompanyId",
      "outputs": [
        {
          "internalType": "uint256",
          "name": "numOfRecepes",
          "type": "uint256"
        }
      ],
      "stateMutability": "view",
      "type": "function"
    },
    {
      "inputs": [
        {
          "internalType": "uint256",
          "name": "companyId",
          "type": "uint256"
        }
      ],
      "name": "getRecipesByCompanyId",
      "outputs": [
        {
          "components": [
            {
              "internalType": "uint256",
              "name": "id",
              "type": "uint256"
            },
            {
              "internalType": "string",
              "name": "name",
              "type": "string"
            },
            {
              "internalType": "string",
              "name": "description",
              "type": "string"
            },
            {
              "internalType": "uint256",
              "name": "companyId",
              "type": "uint256"
            }
          ],
          "internalType": "struct ICESmartContract.Recipe[]",
          "name": "",
          "type": "tuple[]"
        }
      ],
      "stateMutability": "view",
      "type": "function"
    },
    {
      "inputs": [
        {
          "internalType": "uint256",
          "name": "recipeId",
          "type": "uint256"
        }
      ],
      "name": "getNumOfRecipeStepsByRecipeId",
      "outputs": [
        {
          "internalType": "uint256",
          "name": "numOfRecepes",
          "type": "uint256"
        }
      ],
      "stateMutability": "view",
      "type": "function"
    },
    {
      "inputs": [
        {
          "internalType": "uint256",
          "name": "recipeId",
          "type": "uint256"
        }
      ],
      "name": "getRecipeStepsByRecipeId",
      "outputs": [
        {
          "components": [
            {
              "internalType": "uint256",
              "name": "id",
              "type": "uint256"
            },
            {
              "internalType": "string",
              "name": "name",
              "type": "string"
            },
            {
              "internalType": "string",
              "name": "description",
              "type": "string"
            },
            {
              "internalType": "uint256",
              "name": "recipeId",
              "type": "uint256"
            },
            {
              "internalType": "uint256",
              "name": "machineId",
              "type": "uint256"
            }
          ],
          "internalType": "struct ICESmartContract.RecipeStep[]",
          "name": "",
          "type": "tuple[]"
        }
      ],
      "stateMutability": "view",
      "type": "function"
    },
    {
      "inputs": [
        {
          "internalType": "uint256",
          "name": "machineId",
          "type": "uint256"
        }
      ],
      "name": "getNumOfRecipeStepsByMachineId",
      "outputs": [
        {
          "internalType": "uint256",
          "name": "numOfRecepes",
          "type": "uint256"
        }
      ],
      "stateMutability": "view",
      "type": "function"
    },
    {
      "inputs": [
        {
          "internalType": "uint256",
          "name": "machineId",
          "type": "uint256"
        }
      ],
      "name": "getRecipeStepsByMachineId",
      "outputs": [
        {
          "components": [
            {
              "internalType": "uint256",
              "name": "id",
              "type": "uint256"
            },
            {
              "internalType": "string",
              "name": "name",
              "type": "string"
            },
            {
              "internalType": "string",
              "name": "description",
              "type": "string"
            },
            {
              "internalType": "uint256",
              "name": "recipeId",
              "type": "uint256"
            },
            {
              "internalType": "uint256",
              "name": "machineId",
              "type": "uint256"
            }
          ],
          "internalType": "struct ICESmartContract.RecipeStep[]",
          "name": "",
          "type": "tuple[]"
        }
      ],
      "stateMutability": "view",
      "type": "function"
    },
    {
      "inputs": [
        {
          "internalType": "uint256",
          "name": "recipeStepId",
          "type": "uint256"
        }
      ],
      "name": "getNumOfMeasureConstraintByRecipeStepId",
      "outputs": [
        {
          "internalType": "uint256",
          "name": "numOfMeasureConstraints",
          "type": "uint256"
        }
      ],
      "stateMutability": "view",
      "type": "function"
    },
    {
      "inputs": [
        {
          "internalType": "uint256",
          "name": "recipeStepId",
          "type": "uint256"
        }
      ],
      "name": "getMeasureConstraintsByRecipeStepId",
      "outputs": [
        {
          "components": [
            {
              "internalType": "uint256",
              "name": "id",
              "type": "uint256"
            },
            {
              "internalType": "string",
              "name": "name",
              "type": "string"
            },
            {
              "internalType": "int256",
              "name": "maxMeasure",
              "type": "int256"
            },
            {
              "internalType": "int256",
              "name": "minMeasure",
              "type": "int256"
            },
            {
              "internalType": "string",
              "name": "unitOfMeasure",
              "type": "string"
            },
            {
              "internalType": "uint256",
              "name": "recipeStepId",
              "type": "uint256"
            },
            {
              "internalType": "uint256",
              "name": "machineId",
              "type": "uint256"
            }
          ],
          "internalType": "struct ICESmartContract.MeasureConstraint[]",
          "name": "",
          "type": "tuple[]"
        }
      ],
      "stateMutability": "view",
      "type": "function"
    },
    {
      "inputs": [
        {
          "internalType": "uint256",
          "name": "productId",
          "type": "uint256"
        }
      ],
      "name": "getNumOfPhasesByProductId",
      "outputs": [
        {
          "internalType": "uint256",
          "name": "numOfPhases",
          "type": "uint256"
        }
      ],
      "stateMutability": "view",
      "type": "function"
    },
    {
      "inputs": [
        {
          "internalType": "uint256",
          "name": "productId",
          "type": "uint256"
        }
      ],
      "name": "getPhasesByProductId",
      "outputs": [
        {
          "components": [
            {
              "internalType": "uint256",
              "name": "id",
              "type": "uint256"
            },
            {
              "internalType": "string",
              "name": "name",
              "type": "string"
            },
            {
              "internalType": "string",
              "name": "description",
              "type": "string"
            },
            {
              "internalType": "uint256",
              "name": "productId",
              "type": "uint256"
            },
            {
              "internalType": "uint256",
              "name": "machineId",
              "type": "uint256"
            },
            {
              "internalType": "uint256",
              "name": "recipeStepId",
              "type": "uint256"
            }
          ],
          "internalType": "struct ICESmartContract.Phase[]",
          "name": "",
          "type": "tuple[]"
        }
      ],
      "stateMutability": "view",
      "type": "function"
    },
    {
      "inputs": [
        {
          "internalType": "uint256",
          "name": "machineId",
          "type": "uint256"
        }
      ],
      "name": "getNumOfPhasesByMachineId",
      "outputs": [
        {
          "internalType": "uint256",
          "name": "numOfPhases",
          "type": "uint256"
        }
      ],
      "stateMutability": "view",
      "type": "function"
    },
    {
      "inputs": [
        {
          "internalType": "uint256",
          "name": "machineId",
          "type": "uint256"
        }
      ],
      "name": "getPhasesByMachineId",
      "outputs": [
        {
          "components": [
            {
              "internalType": "uint256",
              "name": "id",
              "type": "uint256"
            },
            {
              "internalType": "string",
              "name": "name",
              "type": "string"
            },
            {
              "internalType": "string",
              "name": "description",
              "type": "string"
            },
            {
              "internalType": "uint256",
              "name": "productId",
              "type": "uint256"
            },
            {
              "internalType": "uint256",
              "name": "machineId",
              "type": "uint256"
            },
            {
              "internalType": "uint256",
              "name": "recipeStepId",
              "type": "uint256"
            }
          ],
          "internalType": "struct ICESmartContract.Phase[]",
          "name": "",
          "type": "tuple[]"
        }
      ],
      "stateMutability": "view",
      "type": "function"
    },
    {
      "inputs": [
        {
          "internalType": "uint256",
          "name": "recipeStepId",
          "type": "uint256"
        }
      ],
      "name": "getNumOfPhasesByRecipeStepId",
      "outputs": [
        {
          "internalType": "uint256",
          "name": "numOfPhases",
          "type": "uint256"
        }
      ],
      "stateMutability": "view",
      "type": "function"
    },
    {
      "inputs": [
        {
          "internalType": "uint256",
          "name": "recipeStepId",
          "type": "uint256"
        }
      ],
      "name": "getPhasesByRecipeStepId",
      "outputs": [
        {
          "components": [
            {
              "internalType": "uint256",
              "name": "id",
              "type": "uint256"
            },
            {
              "internalType": "string",
              "name": "name",
              "type": "string"
            },
            {
              "internalType": "string",
              "name": "description",
              "type": "string"
            },
            {
              "internalType": "uint256",
              "name": "productId",
              "type": "uint256"
            },
            {
              "internalType": "uint256",
              "name": "machineId",
              "type": "uint256"
            },
            {
              "internalType": "uint256",
              "name": "recipeStepId",
              "type": "uint256"
            }
          ],
          "internalType": "struct ICESmartContract.Phase[]",
          "name": "",
          "type": "tuple[]"
        }
      ],
      "stateMutability": "view",
      "type": "function"
    },
    {
      "inputs": [
        {
          "internalType": "uint256",
          "name": "phaseId",
          "type": "uint256"
        }
      ],
      "name": "getNumOfMeasuresByPhaseId",
      "outputs": [
        {
          "internalType": "uint256",
          "name": "numOfMeasures",
          "type": "uint256"
        }
      ],
      "stateMutability": "view",
      "type": "function"
    },
    {
      "inputs": [
        {
          "internalType": "uint256",
          "name": "phaseId",
          "type": "uint256"
        }
      ],
      "name": "getMeasuresByPhaseId",
      "outputs": [
        {
          "components": [
            {
              "internalType": "uint256",
              "name": "id",
              "type": "uint256"
            },
            {
              "internalType": "string",
              "name": "name",
              "type": "string"
            },
            {
              "internalType": "string",
              "name": "unitOfMeasure",
              "type": "string"
            },
            {
              "internalType": "uint256",
              "name": "measureStartTime",
              "type": "uint256"
            },
            {
              "internalType": "uint256",
              "name": "measureEndTime",
              "type": "uint256"
            },
            {
              "internalType": "uint256",
              "name": "phaseId",
              "type": "uint256"
            },
            {
              "internalType": "uint256",
              "name": "measureConstraintId",
              "type": "uint256"
            }
          ],
          "internalType": "struct ICESmartContract.Measure[]",
          "name": "",
          "type": "tuple[]"
        }
      ],
      "stateMutability": "view",
      "type": "function"
    },
    {
      "inputs": [
        {
          "internalType": "uint256",
          "name": "measureConstraintId",
          "type": "uint256"
        }
      ],
      "name": "getNumOfMeasureConstraintsByMeasureConstraintId",
      "outputs": [
        {
          "internalType": "uint256",
          "name": "numOfMeasures",
          "type": "uint256"
        }
      ],
      "stateMutability": "view",
      "type": "function"
    },
    {
      "inputs": [
        {
          "internalType": "uint256",
          "name": "measureConstraintId",
          "type": "uint256"
        }
      ],
      "name": "getMeasuresByMeasureConstraintId",
      "outputs": [
        {
          "components": [
            {
              "internalType": "uint256",
              "name": "id",
              "type": "uint256"
            },
            {
              "internalType": "string",
              "name": "name",
              "type": "string"
            },
            {
              "internalType": "string",
              "name": "unitOfMeasure",
              "type": "string"
            },
            {
              "internalType": "uint256",
              "name": "measureStartTime",
              "type": "uint256"
            },
            {
              "internalType": "uint256",
              "name": "measureEndTime",
              "type": "uint256"
            },
            {
              "internalType": "uint256",
              "name": "phaseId",
              "type": "uint256"
            },
            {
              "internalType": "uint256",
              "name": "measureConstraintId",
              "type": "uint256"
            }
          ],
          "internalType": "struct ICESmartContract.Measure[]",
          "name": "",
          "type": "tuple[]"
        }
      ],
      "stateMutability": "view",
      "type": "function"
    }
  ],
  "bytecode": "0x608060405234801561001057600080fd5b506154a2806100206000396000f3fe608060405234801561001057600080fd5b50600436106102a7576000357c0100000000000000000000000000000000000000000000000000000000900480637050967911610179578063b196fba0116100eb578063d6483d17116100a4578063d6483d17146106be578063da3693c9146106d1578063dc5fbbd7146106e4578063e31ed51b14610704578063e46e8b4a14610717578063f3ea0a731461072a57600080fd5b8063b196fba014610632578063bafca80c14610645578063c65ef56a14610665578063c8ae51c914610678578063cad29c2b1461068b578063cdc5b7cd146106ab57600080fd5b806384d86ec31161013d57806384d86ec3146105a05780638e40be4b146105b35780638f28685f146105c65780639134293e146105ec5780639ba8cf3b1461060c578063af6d1e391461061f57600080fd5b806370509679146105165780637387616614610529578063788c3214146105495780637acc0b201461056d578063826541dc1461058057600080fd5b8063393752001161021d57806355f1d4d9116101d657806355f1d4d91461047d5780635dd4f342146104905780635de5bee7146104a3578063602ffca7146104c35780636bc5245a146104e35780636db513021461050357600080fd5b806339375200146103fb5780633f70c2b41461040e578063441ca54a14610421578063443c227c14610434578063459e5788146104575780634d42845c1461046a57600080fd5b8063175a7c3d1161026f578063175a7c3d146103495780632813d19d1461035c578063292b181c1461037d5780632e37eef6146103a357806331d4a63b146103c857806334e2ad59146103db57600080fd5b8063045a08dd146102ac57806308970329146102d55780630cce816f146102f5578063141955021461031657806316496db414610329575b600080fd5b6102bf6102ba366004614aab565b61073d565b6040516102cc9190615107565b60405180910390f35b6102e86102e3366004614aab565b610a00565b6040516102cc9190615061565b610308610303366004614aab565b610c99565b6040519081526020016102cc565b610308610324366004614aab565b610d0c565b61033c610337366004614aab565b610d78565b6040516102cc9190615225565b610308610357366004614aab565b610f93565b61036f61036a366004614aab565b610fff565b6040516102cc929190615238565b61039061038b366004614aab565b6110b7565b6040516102cc9796959493929190615251565b6103b66103b1366004614aab565b611215565b6040516102cc9695949392919061531c565b6103086103d6366004614aab565b61136d565b6103ee6103e9366004614aab565b6113d9565b6040516102cc91906151ad565b610308610409366004614aab565b61152b565b61033c61041c366004614aab565b611597565b61030861042f366004614aab565b611649565b610447610442366004614aab565b6116b5565b6040516102cc949392919061529f565b6102e8610465366004614aab565b611801565b610447610478366004614aab565b611a9a565b61030861048b366004614c27565b611aaa565b61030861049e366004614b2d565b611bcf565b6104b66104b1366004614aab565b611ceb565b6040516102cc9190614fbb565b6104d66104d1366004614aab565b611fc6565b6040516102cc91906151ff565b6104f66104f1366004614aab565b6121c5565b6040516102cc91906150b4565b610308610511366004614bb3565b61247e565b610308610524366004614aab565b612581565b61053c610537366004614aab565b6125ed565b6040516102cc91906151d2565b61055c610557366004614aab565b6127f1565b6040516102cc9594939291906152dc565b61055c61057b366004614aab565b612943565b61059361058e366004614aab565b612953565b6040516102cc9190615212565b6102bf6105ae366004614aab565b612b48565b61053c6105c1366004614aab565b612e01565b6105d96105d4366004614aab565b612eac565b6040516102cc9796959493929190615366565b6105ff6105fa366004614aab565b61300a565b6040516102cc919061500e565b6104f661061a366004614aab565b6132ad565b6102e861062d366004614aab565b613566565b610308610640366004614aab565b6137ff565b610658610653366004614aab565b61386b565b6040516102cc91906151ec565b610308610673366004614ac3565b613aa2565b610308610686366004614cad565b613b92565b61069e610699366004614aab565b613ca5565b6040516102cc9190614f5b565b6103086106b9366004614aab565b613f4d565b6103086106cc366004614a78565b613fb9565b6105ff6106df366004614aab565b614073565b6106f76106f2366004614aab565b614316565b6040516102cc919061515a565b610308610712366004614bb3565b6145be565b610308610725366004614ac3565b6146b8565b610308610738366004614aab565b6147a1565b6060600061074a83610d0c565b905060008167ffffffffffffffff8111156107785760e060020a634e487b7102600052604160045260246000fd5b6040519080825280602002602001820160405280156107db57816020015b6107c86040518060a0016040528060008152602001606081526020016060815260200160008152602001600081525090565b8152602001906001900390816107965790505b5090506000805b6004548110156109f65785600482815481106108115760e060020a634e487b7102600052603260045260246000fd5b90600052602060002090600502016004015414156109e4576004818154811061084d5760e060020a634e487b7102600052603260045260246000fd5b90600052602060002090600502016040518060a001604052908160008201548152602001600182018054610880906153e7565b80601f01602080910402602001604051908101604052809291908181526020018280546108ac906153e7565b80156108f95780601f106108ce576101008083540402835291602001916108f9565b820191906000526020600020905b8154815290600101906020018083116108dc57829003601f168201915b50505050508152602001600282018054610912906153e7565b80601f016020809104026020016040519081016040528092919081815260200182805461093e906153e7565b801561098b5780601f106109605761010080835404028352916020019161098b565b820191906000526020600020905b81548152906001019060200180831161096e57829003601f168201915b50505050508152602001600382015481526020016004820154815250508383815181106109cb5760e060020a634e487b7102600052603260045260246000fd5b60209081029190910101526109e16001836153b8565b91505b806109ee8161541f565b9150506107e2565b5090949350505050565b60606000610a0d836137ff565b905060008167ffffffffffffffff811115610a3b5760e060020a634e487b7102600052604160045260246000fd5b604051908082528060200260200182016040528015610a7457816020015b610a616148e5565b815260200190600190039081610a595790505b5090506000805b6006548110156109f6578560068281548110610aaa5760e060020a634e487b7102600052603260045260246000fd5b9060005260206000209060060201600301541415610c875760068181548110610ae65760e060020a634e487b7102600052603260045260246000fd5b90600052602060002090600602016040518060c001604052908160008201548152602001600182018054610b19906153e7565b80601f0160208091040260200160405190810160405280929190818152602001828054610b45906153e7565b8015610b925780601f10610b6757610100808354040283529160200191610b92565b820191906000526020600020905b815481529060010190602001808311610b7557829003601f168201915b50505050508152602001600282018054610bab906153e7565b80601f0160208091040260200160405190810160405280929190818152602001828054610bd7906153e7565b8015610c245780601f10610bf957610100808354040283529160200191610c24565b820191906000526020600020905b815481529060010190602001808311610c0757829003601f168201915b505050505081526020016003820154815260200160048201548152602001600582015481525050838381518110610c6e5760e060020a634e487b7102600052603260045260246000fd5b6020908102919091010152610c846001836153b8565b91505b80610c918161541f565b915050610a7b565b600080805b600154811015610d05578360018281548110610ccd5760e060020a634e487b7102600052603260045260246000fd5b9060005260206000209060040201600301541415610cf357610cf06001836153b8565b91505b80610cfd8161541f565b915050610c9e565b5092915050565b600080805b600454811015610d05578360048281548110610d405760e060020a634e487b7102600052603260045260246000fd5b9060005260206000209060050201600401541415610d6657610d636001836153b8565b91505b80610d708161541f565b915050610d11565b610daa6040518060a0016040528060008152602001606081526020016060815260200160008152602001600081525090565b60005b600454811015610f8d578260048281548110610ddc5760e060020a634e487b7102600052603260045260246000fd5b9060005260206000209060050201600001541415610f7b5760048181548110610e185760e060020a634e487b7102600052603260045260246000fd5b90600052602060002090600502016040518060a001604052908160008201548152602001600182018054610e4b906153e7565b80601f0160208091040260200160405190810160405280929190818152602001828054610e77906153e7565b8015610ec45780601f10610e9957610100808354040283529160200191610ec4565b820191906000526020600020905b815481529060010190602001808311610ea757829003601f168201915b50505050508152602001600282018054610edd906153e7565b80601f0160208091040260200160405190810160405280929190818152602001828054610f09906153e7565b8015610f565780601f10610f2b57610100808354040283529160200191610f56565b820191906000526020600020905b815481529060010190602001808311610f3957829003601f168201915b5050505050815260200160038201548152602001600482015481525050915050919050565b80610f858161541f565b915050610dad565b50919050565b600080805b600254811015610d05578360028281548110610fc75760e060020a634e487b7102600052603260045260246000fd5b9060005260206000209060040201600301541415610fed57610fea6001836153b8565b91505b80610ff78161541f565b915050610f98565b6000818154811061100f57600080fd5b60009182526020909120600290910201805460018201805491935090611034906153e7565b80601f0160208091040260200160405190810160405280929190818152602001828054611060906153e7565b80156110ad5780601f10611082576101008083540402835291602001916110ad565b820191906000526020600020905b81548152906001019060200180831161109057829003601f168201915b5050505050905082565b600581815481106110c757600080fd5b600091825260209091206007909102018054600182018054919350906110ec906153e7565b80601f0160208091040260200160405190810160405280929190818152602001828054611118906153e7565b80156111655780601f1061113a57610100808354040283529160200191611165565b820191906000526020600020905b81548152906001019060200180831161114857829003601f168201915b505050505090806002015490806003015490806004018054611186906153e7565b80601f01602080910402602001604051908101604052809291908181526020018280546111b2906153e7565b80156111ff5780601f106111d4576101008083540402835291602001916111ff565b820191906000526020600020905b8154815290600101906020018083116111e257829003601f168201915b5050505050908060050154908060060154905087565b6006818154811061122557600080fd5b6000918252602090912060069091020180546001820180549193509061124a906153e7565b80601f0160208091040260200160405190810160405280929190818152602001828054611276906153e7565b80156112c35780601f10611298576101008083540402835291602001916112c3565b820191906000526020600020905b8154815290600101906020018083116112a657829003601f168201915b5050505050908060020180546112d8906153e7565b80601f0160208091040260200160405190810160405280929190818152602001828054611304906153e7565b80156113515780601f1061132657610100808354040283529160200191611351565b820191906000526020600020905b81548152906001019060200180831161133457829003601f168201915b5050505050908060030154908060040154908060050154905086565b600080805b600754811015610d055783600782815481106113a15760e060020a634e487b7102600052603260045260246000fd5b90600052602060002090600702016006015414156113c7576113c46001836153b8565b91505b806113d18161541f565b915050611372565b60408051808201909152600081526060602082015260005b600054811015610f8d5782600082815481106114205760e060020a634e487b7102600052603260045260246000fd5b9060005260206000209060020201600001541415611519576000818154811061145c5760e060020a634e487b7102600052603260045260246000fd5b90600052602060002090600202016040518060400160405290816000820154815260200160018201805461148f906153e7565b80601f01602080910402602001604051908101604052809291908181526020018280546114bb906153e7565b80156115085780601f106114dd57610100808354040283529160200191611508565b820191906000526020600020905b8154815290600101906020018083116114eb57829003601f168201915b505050505081525050915050919050565b806115238161541f565b9150506113f1565b600080805b600454811015610d0557836004828154811061155f5760e060020a634e487b7102600052603260045260246000fd5b9060005260206000209060050201600301541415611585576115826001836153b8565b91505b8061158f8161541f565b915050611530565b6115c96040518060a0016040528060008152602001606081526020016060815260200160008152602001600081525090565b60005b600354811015610f8d5782600382815481106115fb5760e060020a634e487b7102600052603260045260246000fd5b90600052602060002090600502016000015414156116375760038181548110610e185760e060020a634e487b7102600052603260045260246000fd5b806116418161541f565b9150506115cc565b600080805b600754811015610d0557836007828154811061167d5760e060020a634e487b7102600052603260045260246000fd5b90600052602060002090600702016005015414156116a3576116a06001836153b8565b91505b806116ad8161541f565b91505061164e565b600281815481106116c557600080fd5b600091825260209091206004909102018054600182018054919350906116ea906153e7565b80601f0160208091040260200160405190810160405280929190818152602001828054611716906153e7565b80156117635780601f1061173857610100808354040283529160200191611763565b820191906000526020600020905b81548152906001019060200180831161174657829003601f168201915b505050505090806002018054611778906153e7565b80601f01602080910402602001604051908101604052809291908181526020018280546117a4906153e7565b80156117f15780601f106117c6576101008083540402835291602001916117f1565b820191906000526020600020905b8154815290600101906020018083116117d457829003601f168201915b5050505050908060030154905084565b6060600061180e83613f4d565b905060008167ffffffffffffffff81111561183c5760e060020a634e487b7102600052604160045260246000fd5b60405190808252806020026020018201604052801561187557816020015b6118626148e5565b81526020019060019003908161185a5790505b5090506000805b6006548110156109f65785600682815481106118ab5760e060020a634e487b7102600052603260045260246000fd5b9060005260206000209060060201600401541415611a8857600681815481106118e75760e060020a634e487b7102600052603260045260246000fd5b90600052602060002090600602016040518060c00160405290816000820154815260200160018201805461191a906153e7565b80601f0160208091040260200160405190810160405280929190818152602001828054611946906153e7565b80156119935780601f1061196857610100808354040283529160200191611993565b820191906000526020600020905b81548152906001019060200180831161197657829003601f168201915b505050505081526020016002820180546119ac906153e7565b80601f01602080910402602001604051908101604052809291908181526020018280546119d8906153e7565b8015611a255780601f106119fa57610100808354040283529160200191611a25565b820191906000526020600020905b815481529060010190602001808311611a0857829003601f168201915b505050505081526020016003820154815260200160048201548152602001600582015481525050838381518110611a6f5760e060020a634e487b7102600052603260045260246000fd5b6020908102919091010152611a856001836153b8565b91505b80611a928161541f565b91505061187c565b600181815481106116c557600080fd5b6040805160e081018252600f5481526020808201878152928201869052606082018590526080820184905260a0820189905260c0820188905260078054600181018255600082815284517fa66cc928b5edb82af9bd49922954155ab7b0942694bea4ce44661d9a8736c68892909302918201928355945180519293611b56937fa66cc928b5edb82af9bd49922954155ab7b0942694bea4ce44661d9a8736c6899093019291019061491b565b5060408201518051611b7291600284019160209091019061491b565b50606082015181600301556080820151816004015560a0820151816005015560c0820151816006015550506001600f6000828254611bb091906153b8565b9091555050600f54611bc4906001906153d0565b979650505050505050565b6040805160e081018252600c5481526020808201878152928201869052606082018590526080820184905260a0820189905260c08201889052600580546001810182556000918252835160079091027f036b6384b5eca791c62761152d0c79bb0604c104a5fb6f4eb0703f3154bb3db081019182559451805192959193611c7d937f036b6384b5eca791c62761152d0c79bb0604c104a5fb6f4eb0703f3154bb3db19093019291019061491b565b50604082015160028201556060820151600382015560808201518051611cad91600484019160209091019061491b565b5060a0820151816005015560c0820151816006015550506001600c6000828254611cd791906153b8565b9091555050600c54611bc4906001906153d0565b60606000611cf883612581565b905060008167ffffffffffffffff811115611d265760e060020a634e487b7102600052604160045260246000fd5b604051908082528060200260200182016040528015611d9757816020015b611d846040518060e00160405280600081526020016060815260200160008152602001600081526020016060815260200160008152602001600081525090565b815260200190600190039081611d445790505b5090506000805b6005548110156109f6578560058281548110611dcd5760e060020a634e487b7102600052603260045260246000fd5b9060005260206000209060070201600501541415611fb45760058181548110611e095760e060020a634e487b7102600052603260045260246000fd5b90600052602060002090600702016040518060e001604052908160008201548152602001600182018054611e3c906153e7565b80601f0160208091040260200160405190810160405280929190818152602001828054611e68906153e7565b8015611eb55780601f10611e8a57610100808354040283529160200191611eb5565b820191906000526020600020905b815481529060010190602001808311611e9857829003601f168201915b505050505081526020016002820154815260200160038201548152602001600482018054611ee2906153e7565b80601f0160208091040260200160405190810160405280929190818152602001828054611f0e906153e7565b8015611f5b5780601f10611f3057610100808354040283529160200191611f5b565b820191906000526020600020905b815481529060010190602001808311611f3e57829003601f168201915b5050505050815260200160058201548152602001600682015481525050838381518110611f9b5760e060020a634e487b7102600052603260045260246000fd5b6020908102919091010152611fb16001836153b8565b91505b80611fbe8161541f565b915050611d9e565b611fce61499f565b60005b600754811015610f8d5782600782815481106120005760e060020a634e487b7102600052603260045260246000fd5b90600052602060002090600702016000015414156121b3576007818154811061203c5760e060020a634e487b7102600052603260045260246000fd5b90600052602060002090600702016040518060e00160405290816000820154815260200160018201805461206f906153e7565b80601f016020809104026020016040519081016040528092919081815260200182805461209b906153e7565b80156120e85780601f106120bd576101008083540402835291602001916120e8565b820191906000526020600020905b8154815290600101906020018083116120cb57829003601f168201915b50505050508152602001600282018054612101906153e7565b80601f016020809104026020016040519081016040528092919081815260200182805461212d906153e7565b801561217a5780601f1061214f5761010080835404028352916020019161217a565b820191906000526020600020905b81548152906001019060200180831161215d57829003601f168201915b50505050508152602001600382015481526020016004820154815260200160058201548152602001600682015481525050915050919050565b806121bd8161541f565b915050611fd1565b606060006121d28361480d565b905060008167ffffffffffffffff8111156122005760e060020a634e487b7102600052604160045260246000fd5b60405190808252806020026020018201604052801561226357816020015b6122506040518060a0016040528060008152602001606081526020016060815260200160008152602001600081525090565b81526020019060019003908161221e5790505b5090506000805b6003548110156109f65785600382815481106122995760e060020a634e487b7102600052603260045260246000fd5b906000526020600020906005020160040154141561246c57600381815481106122d55760e060020a634e487b7102600052603260045260246000fd5b90600052602060002090600502016040518060a001604052908160008201548152602001600182018054612308906153e7565b80601f0160208091040260200160405190810160405280929190818152602001828054612334906153e7565b80156123815780601f1061235657610100808354040283529160200191612381565b820191906000526020600020905b81548152906001019060200180831161236457829003601f168201915b5050505050815260200160028201805461239a906153e7565b80601f01602080910402602001604051908101604052809291908181526020018280546123c6906153e7565b80156124135780601f106123e857610100808354040283529160200191612413565b820191906000526020600020905b8154815290600101906020018083116123f657829003601f168201915b50505050508152602001600382015481526020016004820154815250508383815181106124535760e060020a634e487b7102600052603260045260246000fd5b60209081029190910101526124696001836153b8565b91505b806124768161541f565b91505061226a565b6040805160a081018252600d54815260208082018581529282018490526060820187905260808201869052600380546001810182556000918252835160059091027fc2575a0e9e593c00f959f8c92f12db2869c3395a3b0502d05e2516446f71f85b8101918255945180519295919361251e937fc2575a0e9e593c00f959f8c92f12db2869c3395a3b0502d05e2516446f71f85c9093019291019061491b565b506040820151805161253a91600284019160209091019061491b565b50606082015181600301556080820151816004015550506001600d600082825461256491906153b8565b9091555050600d54612578906001906153d0565b95945050505050565b600080805b600554811015610d055783600582815481106125b55760e060020a634e487b7102600052603260045260246000fd5b90600052602060002090600702016005015414156125db576125d86001836153b8565b91505b806125e58161541f565b915050612586565b6126186040518060800160405280600081526020016060815260200160608152602001600081525090565b60005b600154811015610f8d57826001828154811061264a5760e060020a634e487b7102600052603260045260246000fd5b90600052602060002090600402016000015414156127df57600181815481106126865760e060020a634e487b7102600052603260045260246000fd5b9060005260206000209060040201604051806080016040529081600082015481526020016001820180546126b9906153e7565b80601f01602080910402602001604051908101604052809291908181526020018280546126e5906153e7565b80156127325780601f1061270757610100808354040283529160200191612732565b820191906000526020600020905b81548152906001019060200180831161271557829003601f168201915b5050505050815260200160028201805461274b906153e7565b80601f0160208091040260200160405190810160405280929190818152602001828054612777906153e7565b80156127c45780601f10612799576101008083540402835291602001916127c4565b820191906000526020600020905b8154815290600101906020018083116127a757829003601f168201915b50505050508152602001600382015481525050915050919050565b806127e98161541f565b91505061261b565b6004818154811061280157600080fd5b60009182526020909120600590910201805460018201805491935090612826906153e7565b80601f0160208091040260200160405190810160405280929190818152602001828054612852906153e7565b801561289f5780601f106128745761010080835404028352916020019161289f565b820191906000526020600020905b81548152906001019060200180831161288257829003601f168201915b5050505050908060020180546128b4906153e7565b80601f01602080910402602001604051908101604052809291908181526020018280546128e0906153e7565b801561292d5780601f106129025761010080835404028352916020019161292d565b820191906000526020600020905b81548152906001019060200180831161291057829003601f168201915b5050505050908060030154908060040154905085565b6003818154811061280157600080fd5b61295b6148e5565b60005b600654811015610f8d57826006828154811061298d5760e060020a634e487b7102600052603260045260246000fd5b9060005260206000209060060201600001541415612b3657600681815481106129c95760e060020a634e487b7102600052603260045260246000fd5b90600052602060002090600602016040518060c0016040529081600082015481526020016001820180546129fc906153e7565b80601f0160208091040260200160405190810160405280929190818152602001828054612a28906153e7565b8015612a755780601f10612a4a57610100808354040283529160200191612a75565b820191906000526020600020905b815481529060010190602001808311612a5857829003601f168201915b50505050508152602001600282018054612a8e906153e7565b80601f0160208091040260200160405190810160405280929190818152602001828054612aba906153e7565b8015612b075780601f10612adc57610100808354040283529160200191612b07565b820191906000526020600020905b815481529060010190602001808311612aea57829003601f168201915b505050505081526020016003820154815260200160048201548152602001600582015481525050915050919050565b80612b408161541f565b91505061295e565b60606000612b558361152b565b905060008167ffffffffffffffff811115612b835760e060020a634e487b7102600052604160045260246000fd5b604051908082528060200260200182016040528015612be657816020015b612bd36040518060a0016040528060008152602001606081526020016060815260200160008152602001600081525090565b815260200190600190039081612ba15790505b5090506000805b6004548110156109f6578560048281548110612c1c5760e060020a634e487b7102600052603260045260246000fd5b9060005260206000209060050201600301541415612def5760048181548110612c585760e060020a634e487b7102600052603260045260246000fd5b90600052602060002090600502016040518060a001604052908160008201548152602001600182018054612c8b906153e7565b80601f0160208091040260200160405190810160405280929190818152602001828054612cb7906153e7565b8015612d045780601f10612cd957610100808354040283529160200191612d04565b820191906000526020600020905b815481529060010190602001808311612ce757829003601f168201915b50505050508152602001600282018054612d1d906153e7565b80601f0160208091040260200160405190810160405280929190818152602001828054612d49906153e7565b8015612d965780601f10612d6b57610100808354040283529160200191612d96565b820191906000526020600020905b815481529060010190602001808311612d7957829003601f168201915b5050505050815260200160038201548152602001600482015481525050838381518110612dd65760e060020a634e487b7102600052603260045260246000fd5b6020908102919091010152612dec6001836153b8565b91505b80612df98161541f565b915050612bed565b612e2c6040518060800160405280600081526020016060815260200160608152602001600081525090565b60005b600254811015610f8d578260028281548110612e5e5760e060020a634e487b7102600052603260045260246000fd5b9060005260206000209060040201600001541415612e9a57600281815481106126865760e060020a634e487b7102600052603260045260246000fd5b80612ea48161541f565b915050612e2f565b60078181548110612ebc57600080fd5b60009182526020909120600790910201805460018201805491935090612ee1906153e7565b80601f0160208091040260200160405190810160405280929190818152602001828054612f0d906153e7565b8015612f5a5780601f10612f2f57610100808354040283529160200191612f5a565b820191906000526020600020905b815481529060010190602001808311612f3d57829003601f168201915b505050505090806002018054612f6f906153e7565b80601f0160208091040260200160405190810160405280929190818152602001828054612f9b906153e7565b8015612fe85780601f10612fbd57610100808354040283529160200191612fe8565b820191906000526020600020905b815481529060010190602001808311612fcb57829003601f168201915b5050505050908060030154908060040154908060050154908060060154905087565b606060006130178361136d565b905060008167ffffffffffffffff8111156130455760e060020a634e487b7102600052604160045260246000fd5b60405190808252806020026020018201604052801561307e57816020015b61306b61499f565b8152602001906001900390816130635790505b5090506000805b6007548110156109f65785600782815481106130b45760e060020a634e487b7102600052603260045260246000fd5b906000526020600020906007020160060154141561329b57600781815481106130f05760e060020a634e487b7102600052603260045260246000fd5b90600052602060002090600702016040518060e001604052908160008201548152602001600182018054613123906153e7565b80601f016020809104026020016040519081016040528092919081815260200182805461314f906153e7565b801561319c5780601f106131715761010080835404028352916020019161319c565b820191906000526020600020905b81548152906001019060200180831161317f57829003601f168201915b505050505081526020016002820180546131b5906153e7565b80601f01602080910402602001604051908101604052809291908181526020018280546131e1906153e7565b801561322e5780601f106132035761010080835404028352916020019161322e565b820191906000526020600020905b81548152906001019060200180831161321157829003601f168201915b505050505081526020016003820154815260200160048201548152602001600582015481526020016006820154815250508383815181106132825760e060020a634e487b7102600052603260045260246000fd5b60209081029190910101526132986001836153b8565b91505b806132a58161541f565b915050613085565b606060006132ba83614879565b905060008167ffffffffffffffff8111156132e85760e060020a634e487b7102600052604160045260246000fd5b60405190808252806020026020018201604052801561334b57816020015b6133386040518060a0016040528060008152602001606081526020016060815260200160008152602001600081525090565b8152602001906001900390816133065790505b5090506000805b6003548110156109f65785600382815481106133815760e060020a634e487b7102600052603260045260246000fd5b906000526020600020906005020160030154141561355457600381815481106133bd5760e060020a634e487b7102600052603260045260246000fd5b90600052602060002090600502016040518060a0016040529081600082015481526020016001820180546133f0906153e7565b80601f016020809104026020016040519081016040528092919081815260200182805461341c906153e7565b80156134695780601f1061343e57610100808354040283529160200191613469565b820191906000526020600020905b81548152906001019060200180831161344c57829003601f168201915b50505050508152602001600282018054613482906153e7565b80601f01602080910402602001604051908101604052809291908181526020018280546134ae906153e7565b80156134fb5780601f106134d0576101008083540402835291602001916134fb565b820191906000526020600020905b8154815290600101906020018083116134de57829003601f168201915b505050505081526020016003820154815260200160048201548152505083838151811061353b5760e060020a634e487b7102600052603260045260246000fd5b60209081029190910101526135516001836153b8565b91505b8061355e8161541f565b915050613352565b60606000613573836147a1565b905060008167ffffffffffffffff8111156135a15760e060020a634e487b7102600052604160045260246000fd5b6040519080825280602002602001820160405280156135da57816020015b6135c76148e5565b8152602001906001900390816135bf5790505b5090506000805b6006548110156109f65785600682815481106136105760e060020a634e487b7102600052603260045260246000fd5b90600052602060002090600602016005015414156137ed576006818154811061364c5760e060020a634e487b7102600052603260045260246000fd5b90600052602060002090600602016040518060c00160405290816000820154815260200160018201805461367f906153e7565b80601f01602080910402602001604051908101604052809291908181526020018280546136ab906153e7565b80156136f85780601f106136cd576101008083540402835291602001916136f8565b820191906000526020600020905b8154815290600101906020018083116136db57829003601f168201915b50505050508152602001600282018054613711906153e7565b80601f016020809104026020016040519081016040528092919081815260200182805461373d906153e7565b801561378a5780601f1061375f5761010080835404028352916020019161378a565b820191906000526020600020905b81548152906001019060200180831161376d57829003601f168201915b5050505050815260200160038201548152602001600482015481526020016005820154815250508383815181106137d45760e060020a634e487b7102600052603260045260246000fd5b60209081029190910101526137ea6001836153b8565b91505b806137f78161541f565b9150506135e1565b600080805b600654811015610d055783600682815481106138335760e060020a634e487b7102600052603260045260246000fd5b9060005260206000209060060201600301541415613859576138566001836153b8565b91505b806138638161541f565b915050613804565b6138ab6040518060e00160405280600081526020016060815260200160008152602001600081526020016060815260200160008152602001600081525090565b60005b600554811015610f8d5782600582815481106138dd5760e060020a634e487b7102600052603260045260246000fd5b9060005260206000209060070201600001541415613a9057600581815481106139195760e060020a634e487b7102600052603260045260246000fd5b90600052602060002090600702016040518060e00160405290816000820154815260200160018201805461394c906153e7565b80601f0160208091040260200160405190810160405280929190818152602001828054613978906153e7565b80156139c55780601f1061399a576101008083540402835291602001916139c5565b820191906000526020600020905b8154815290600101906020018083116139a857829003601f168201915b5050505050815260200160028201548152602001600382015481526020016004820180546139f2906153e7565b80601f0160208091040260200160405190810160405280929190818152602001828054613a1e906153e7565b8015613a6b5780601f10613a4057610100808354040283529160200191613a6b565b820191906000526020600020905b815481529060010190602001808311613a4e57829003601f168201915b5050505050815260200160058201548152602001600682015481525050915050919050565b80613a9a8161541f565b9150506138ae565b6040805160808101825260095481526020808201858152928201849052606082018690526001805480820182556000918252835160049091027fb10e2d527612073b26eecdfd717e6a320cf44b4afac2b0732d9fcbe2b7fa0cf681019182559451805192959193613b3a937fb10e2d527612073b26eecdfd717e6a320cf44b4afac2b0732d9fcbe2b7fa0cf79093019291019061491b565b5060408201518051613b5691600284019160209091019061491b565b50606082015181600301555050600160096000828254613b7691906153b8565b9091555050600954613b8a906001906153d0565b949350505050565b6040805160c081018252600e5481526020808201858152928201849052606082018890526080820187905260a0820186905260068054600181018255600082815284517ff652222313e28459528d920b65115c16c04f3efc82aaedc97be59f3f377c0d3f92909302918201928355945180519293613c37937ff652222313e28459528d920b65115c16c04f3efc82aaedc97be59f3f377c0d409093019291019061491b565b5060408201518051613c5391600284019160209091019061491b565b50606082015181600301556080820151816004015560a0820151816005015550506001600e6000828254613c8791906153b8565b9091555050600e54613c9b906001906153d0565b9695505050505050565b60606000613cb283610c99565b905060008167ffffffffffffffff811115613ce05760e060020a634e487b7102600052604160045260246000fd5b604051908082528060200260200182016040528015613d3c57816020015b613d296040518060800160405280600081526020016060815260200160608152602001600081525090565b815260200190600190039081613cfe5790505b5090506000805b6001548110156109f6578560018281548110613d725760e060020a634e487b7102600052603260045260246000fd5b9060005260206000209060040201600301541415613f3b5760018181548110613dae5760e060020a634e487b7102600052603260045260246000fd5b906000526020600020906004020160405180608001604052908160008201548152602001600182018054613de1906153e7565b80601f0160208091040260200160405190810160405280929190818152602001828054613e0d906153e7565b8015613e5a5780601f10613e2f57610100808354040283529160200191613e5a565b820191906000526020600020905b815481529060010190602001808311613e3d57829003601f168201915b50505050508152602001600282018054613e73906153e7565b80601f0160208091040260200160405190810160405280929190818152602001828054613e9f906153e7565b8015613eec5780601f10613ec157610100808354040283529160200191613eec565b820191906000526020600020905b815481529060010190602001808311613ecf57829003601f168201915b50505050508152602001600382015481525050838381518110613f225760e060020a634e487b7102600052603260045260246000fd5b6020908102919091010152613f386001836153b8565b91505b80613f458161541f565b915050613d43565b600080805b600654811015610d05578360068281548110613f815760e060020a634e487b7102600052603260045260246000fd5b9060005260206000209060060201600401541415613fa757613fa46001836153b8565b91505b80613fb18161541f565b915050613f52565b60408051808201909152600854815260208082018381526000805460018101825581805284517f290decd9548b62a8d60345a988386fc84ba6bc95484008f6362f93160ef3e563600290920291820190815592518051929594614043937f290decd9548b62a8d60345a988386fc84ba6bc95484008f6362f93160ef3e5649093019291019061491b565b50505060016008600082825461405991906153b8565b909155505060085461406d906001906153d0565b92915050565b6060600061408083611649565b905060008167ffffffffffffffff8111156140ae5760e060020a634e487b7102600052604160045260246000fd5b6040519080825280602002602001820160405280156140e757816020015b6140d461499f565b8152602001906001900390816140cc5790505b5090506000805b6007548110156109f657856007828154811061411d5760e060020a634e487b7102600052603260045260246000fd5b906000526020600020906007020160050154141561430457600781815481106141595760e060020a634e487b7102600052603260045260246000fd5b90600052602060002090600702016040518060e00160405290816000820154815260200160018201805461418c906153e7565b80601f01602080910402602001604051908101604052809291908181526020018280546141b8906153e7565b80156142055780601f106141da57610100808354040283529160200191614205565b820191906000526020600020905b8154815290600101906020018083116141e857829003601f168201915b5050505050815260200160028201805461421e906153e7565b80601f016020809104026020016040519081016040528092919081815260200182805461424a906153e7565b80156142975780601f1061426c57610100808354040283529160200191614297565b820191906000526020600020905b81548152906001019060200180831161427a57829003601f168201915b505050505081526020016003820154815260200160048201548152602001600582015481526020016006820154815250508383815181106142eb5760e060020a634e487b7102600052603260045260246000fd5b60209081029190910101526143016001836153b8565b91505b8061430e8161541f565b9150506140ee565b6060600061432383610f93565b905060008167ffffffffffffffff8111156143515760e060020a634e487b7102600052604160045260246000fd5b6040519080825280602002602001820160405280156143ad57816020015b61439a6040518060800160405280600081526020016060815260200160608152602001600081525090565b81526020019060019003908161436f5790505b5090506000805b6002548110156109f65785600282815481106143e35760e060020a634e487b7102600052603260045260246000fd5b90600052602060002090600402016003015414156145ac576002818154811061441f5760e060020a634e487b7102600052603260045260246000fd5b906000526020600020906004020160405180608001604052908160008201548152602001600182018054614452906153e7565b80601f016020809104026020016040519081016040528092919081815260200182805461447e906153e7565b80156144cb5780601f106144a0576101008083540402835291602001916144cb565b820191906000526020600020905b8154815290600101906020018083116144ae57829003601f168201915b505050505081526020016002820180546144e4906153e7565b80601f0160208091040260200160405190810160405280929190818152602001828054614510906153e7565b801561455d5780601f106145325761010080835404028352916020019161455d565b820191906000526020600020905b81548152906001019060200180831161454057829003601f168201915b505050505081526020016003820154815250508383815181106145935760e060020a634e487b7102600052603260045260246000fd5b60209081029190910101526145a96001836153b8565b91505b806145b68161541f565b9150506143b4565b6040805160a081018252600b54815260208082018581529282018490526060820187905260808201869052600480546001810182556000918252835160059091027f8a35acfbc15ff81a39ae7d344fd709f28e8600b4aa8c65c6b64bfe7fe36bd19b8101918255945180519295919361465e937f8a35acfbc15ff81a39ae7d344fd709f28e8600b4aa8c65c6b64bfe7fe36bd19c9093019291019061491b565b506040820151805161467a91600284019160209091019061491b565b50606082015181600301556080820151816004015550506001600b60008282546146a491906153b8565b9091555050600b54612578906001906153d0565b60408051608081018252600a548152602080820185815292820184905260608201869052600280546001810182556000918252835160049091027f405787fa12a823e0f2b7631cc41b3ba8828b3321ca811111fa75cd3aa3bb5ace81019182559451805192959193614751937f405787fa12a823e0f2b7631cc41b3ba8828b3321ca811111fa75cd3aa3bb5acf9093019291019061491b565b506040820151805161476d91600284019160209091019061491b565b506060820151816003015550506001600a600082825461478d91906153b8565b9091555050600a54613b8a906001906153d0565b600080805b600654811015610d055783600682815481106147d55760e060020a634e487b7102600052603260045260246000fd5b90600052602060002090600602016005015414156147fb576147f86001836153b8565b91505b806148058161541f565b9150506147a6565b600080805b600354811015610d055783600382815481106148415760e060020a634e487b7102600052603260045260246000fd5b9060005260206000209060050201600401541415614867576148646001836153b8565b91505b806148718161541f565b915050614812565b600080805b600354811015610d055783600382815481106148ad5760e060020a634e487b7102600052603260045260246000fd5b90600052602060002090600502016003015414156148d3576148d06001836153b8565b91505b806148dd8161541f565b91505061487e565b6040518060c001604052806000815260200160608152602001606081526020016000815260200160008152602001600081525090565b828054614927906153e7565b90600052602060002090601f016020900481019282614949576000855561498f565b82601f1061496257805160ff191683800117855561498f565b8280016001018555821561498f579182015b8281111561498f578251825591602001919060010190614974565b5061499b9291506149dc565b5090565b6040518060e00160405280600081526020016060815260200160608152602001600081526020016000815260200160008152602001600081525090565b5b8082111561499b57600081556001016149dd565b600082601f830112614a01578081fd5b813567ffffffffffffffff80821115614a1c57614a1c615453565b604051601f8301601f19908116603f01168101908282118183101715614a4457614a44615453565b81604052838152866020858801011115614a5c578485fd5b8360208701602083013792830160200193909352509392505050565b600060208284031215614a89578081fd5b813567ffffffffffffffff811115614a9f578182fd5b613b8a848285016149f1565b600060208284031215614abc578081fd5b5035919050565b600080600060608486031215614ad7578182fd5b83359250602084013567ffffffffffffffff80821115614af5578384fd5b614b01878388016149f1565b93506040860135915080821115614b16578283fd5b50614b23868287016149f1565b9150509250925092565b60008060008060008060c08789031215614b45578182fd5b8635955060208701359450604087013567ffffffffffffffff80821115614b6a578384fd5b614b768a838b016149f1565b9550606089013594506080890135935060a0890135915080821115614b99578283fd5b50614ba689828a016149f1565b9150509295509295509295565b60008060008060808587031215614bc8578384fd5b8435935060208501359250604085013567ffffffffffffffff80821115614bed578384fd5b614bf9888389016149f1565b93506060870135915080821115614c0e578283fd5b50614c1b878288016149f1565b91505092959194509250565b60008060008060008060c08789031215614c3f578182fd5b8635955060208701359450604087013567ffffffffffffffff80821115614c64578384fd5b614c708a838b016149f1565b95506060890135915080821115614c85578384fd5b50614c9289828a016149f1565b9350506080870135915060a087013590509295509295509295565b600080600080600060a08688031215614cc4578081fd5b853594506020860135935060408601359250606086013567ffffffffffffffff80821115614cf0578283fd5b614cfc89838a016149f1565b93506080880135915080821115614d11578283fd5b50614d1e888289016149f1565b9150509295509295909350565b60008151808452815b81811015614d5057602081850181015186830182015201614d34565b81811115614d615782602083870101525b50601f01601f19169290920160200192915050565b805182526000602082015160806020850152614d956080850182614d2b565b905060408301518482036040860152614dae8282614d2b565b915050606083015160608501528091505092915050565b805182526000602082015160e06020850152614de460e0850182614d2b565b9050604083015160408501526060830151606085015260808301518482036080860152614e118282614d2b565b91505060a083015160a085015260c083015160c08501528091505092915050565b805182526000602082015160e06020850152614e5160e0850182614d2b565b905060408301518482036040860152614e6a8282614d2b565b915050606083015160608501526080830151608085015260a083015160a085015260c083015160c08501528091505092915050565b805182526000602082015160c06020850152614ebe60c0850182614d2b565b905060408301518482036040860152614ed78282614d2b565b915050606083015160608501526080830151608085015260a083015160a08501528091505092915050565b805182526000602082015160a06020850152614f2160a0850182614d2b565b905060408301518482036040860152614f3a8282614d2b565b91505060608301516060850152608083015160808501528091505092915050565b6000602080830181845280855180835260408601915060408482028701019250838701855b82811015614fae57603f19888603018452614f9c858351614d76565b94509285019290850190600101614f80565b5092979650505050505050565b6000602080830181845280855180835260408601915060408482028701019250838701855b82811015614fae57603f19888603018452614ffc858351614dc5565b94509285019290850190600101614fe0565b6000602080830181845280855180835260408601915060408482028701019250838701855b82811015614fae57603f1988860301845261504f858351614e32565b94509285019290850190600101615033565b6000602080830181845280855180835260408601915060408482028701019250838701855b82811015614fae57603f198886030184526150a2858351614e9f565b94509285019290850190600101615086565b6000602080830181845280855180835260408601915060408482028701019250838701855b82811015614fae57603f198886030184526150f5858351614f02565b945092850192908501906001016150d9565b6000602080830181845280855180835260408601915060408482028701019250838701855b82811015614fae57603f19888603018452615148858351614f02565b9450928501929085019060010161512c565b6000602080830181845280855180835260408601915060408482028701019250838701855b82811015614fae57603f1988860301845261519b858351614d76565b9450928501929085019060010161517f565b602081528151602082015260006020830151604080840152613b8a6060840182614d2b565b6020815260006151e56020830184614d76565b9392505050565b6020815260006151e56020830184614dc5565b6020815260006151e56020830184614e32565b6020815260006151e56020830184614e9f565b6020815260006151e56020830184614f02565b828152604060208201526000613b8a6040830184614d2b565b87815260e06020820152600061526a60e0830189614d2b565b87604084015286606084015282810360808401526152888187614d2b565b60a0840195909552505060c0015295945050505050565b8481526080602082015260006152b86080830186614d2b565b82810360408401526152ca8186614d2b565b91505082606083015295945050505050565b85815260a0602082015260006152f560a0830187614d2b565b82810360408401526153078187614d2b565b60608401959095525050608001529392505050565b86815260c06020820152600061533560c0830188614d2b565b82810360408401526153478188614d2b565b60608401969096525050608081019290925260a0909101529392505050565b87815260e06020820152600061537f60e0830189614d2b565b82810360408401526153918189614d2b565b9150508560608301528460808301528360a08301528260c083015298975050505050505050565b600082198211156153cb576153cb61543a565b500190565b6000828210156153e2576153e261543a565b500390565b6002810460018216806153fb57607f821691505b60208210811415610f8d5760e060020a634e487b7102600052602260045260246000fd5b60006000198214156154335761543361543a565b5060010190565b60e060020a634e487b7102600052601160045260246000fd5b60e060020a634e487b7102600052604160045260246000fdfea264697066735822122064f5e4cc82fde4cbb1546177fcd4c321f0c2c275566aadad5b5645549e4ca6c664736f6c63430008040033",
  "immutableReferences": {},
  "source": "//SPDX-License-Identifier: LGPL-3.0-or-later\npragma solidity ^0.8.1;\npragma experimental ABIEncoderV2;\n\ncontract ICESmartContract {\n    struct Company {\n        uint256 id;\n        string name;\n    }\n\n    struct Machine {\n        uint256 id;\n        string name;\n        string description;\n        uint256 companyId;\n    }\n\n    struct Recipe {\n        uint256 id;\n        string name;\n        string description;\n        uint256 companyId;\n    }\n\n    struct Product {\n        uint256 id;\n        string name;\n        string description;\n        uint256 companyId;\n        uint256 recipeId;\n    }\n\n    struct RecipeStep {\n        uint256 id;\n        string name;\n        string description;\n        uint256 recipeId;\n        uint256 machineId;\n    }\n\n    struct MeasureConstraint {\n        uint256 id;\n        string name;\n        int256 maxMeasure;\n        int256 minMeasure;\n        string unitOfMeasure;\n        uint256 recipeStepId;\n        uint256 machineId;\n    }\n\n    struct Phase {\n        uint256 id;\n        string name;\n        string description;\n        uint256 productId;\n        uint256 machineId;\n        uint256 recipeStepId;\n    }\n\n    struct Measure {\n        uint256 id;\n        string name;\n        string unitOfMeasure;\n        uint256 measureStartTime;\n        uint256 measureEndTime;\n        uint256 phaseId;\n        uint256 measureConstraintId;\n    }\n\n    // struct ProductInformation {\n    //     Product product;\n    //     Company company;\n    //     Phase[] phases;\n    //     Machine[] machinesUsed;\n    //     Recipe recipeUsed;\n    //     RecipeStep[] recipeSteps;\n    //     Measure[] allMeasures;\n    // }\n\n    Company[] public companies;\n    Machine[] public machines;\n    Recipe[] public recipes;\n    Product[] public products;\n    RecipeStep[] public recipeSteps;\n    MeasureConstraint[] public measureConstraints;\n    Phase[] public phases;\n    Measure[] public measures;\n\n    uint256 private companyIdCounter;\n    uint256 private machineIdCounter;\n    uint256 private recipeIdCounter;\n    uint256 private recipeStepIdCounter;\n    uint256 private measureConstraintIdCounter;\n    uint256 private productIdCounter;\n    uint256 private phaseIdCounter;\n    uint256 private measureIdCounter;\n\n    function addCompany(string memory name) public returns (uint256 companyId) {\n        companies.push(Company(companyIdCounter, name));\n        companyIdCounter += 1;\n        return companyIdCounter - 1;\n    }\n\n    function addMachine(\n        uint256 companyId,\n        string memory name,\n        string memory description\n    ) public returns (uint256 machineId) {\n        machines.push(Machine(machineIdCounter, name, description, companyId));\n        machineIdCounter += 1;\n        return machineIdCounter - 1;\n    }\n\n    function addRecipe(\n        uint256 companyId,\n        string memory name,\n        string memory description\n    ) public returns (uint256 recipeId) {\n        recipes.push(Recipe(recipeIdCounter, name, description, companyId));\n        recipeIdCounter += 1;\n        return recipeIdCounter - 1;\n    }\n\n    function addRecipeStep(\n        uint256 recipeId,\n        uint256 machineId,\n        string memory name,\n        string memory description\n    ) public returns (uint256 recipeStepId) {\n        recipeSteps.push(\n            RecipeStep(\n                recipeStepIdCounter,\n                name,\n                description,\n                recipeId,\n                machineId\n            )\n        );\n        recipeStepIdCounter += 1;\n        return recipeStepIdCounter - 1;\n    }\n\n    function addMeasureConstraint(\n        uint256 recipeStepId,\n        uint256 machineId,\n        string memory name,\n        int256 maxMeasure,\n        int256 minMeasure,\n        string memory unitOfMeasure\n    ) public returns (uint256 measureId) {\n        measureConstraints.push(\n            MeasureConstraint(\n                measureConstraintIdCounter,\n                name,\n                maxMeasure,\n                minMeasure,\n                unitOfMeasure,\n                recipeStepId,\n                machineId\n            )\n        );\n        measureConstraintIdCounter += 1;\n        return measureConstraintIdCounter - 1;\n    }\n\n    function addProduct(\n        uint256 companyId,\n        uint256 recipyId,\n        string memory name,\n        string memory description\n    ) public returns (uint256 productId) {\n        products.push(\n            Product(productIdCounter, name, description, companyId, recipyId)\n        );\n        productIdCounter += 1;\n        return productIdCounter - 1;\n    }\n\n    function addPhase(\n        uint256 productId,\n        uint256 machineId,\n        uint256 recipeStepId,\n        string memory name,\n        string memory description\n    ) public returns (uint256 phaseId) {\n        phases.push(\n            Phase(\n                phaseIdCounter,\n                name,\n                description,\n                productId,\n                machineId,\n                recipeStepId\n            )\n        );\n        phaseIdCounter += 1;\n        return phaseIdCounter - 1;\n    }\n\n    function addMeasure(\n        uint256 phaseId,\n        uint256 measureConstraintId,\n        string memory name,\n        string memory unitOfMeasure,\n        uint256 measureStartTime,\n        uint256 measureEndTime\n    ) public returns (uint256 measureId) {\n        measures.push(\n            Measure(\n                measureIdCounter,\n                name,\n                unitOfMeasure,\n                measureStartTime,\n                measureEndTime,\n                phaseId,\n                measureConstraintId\n            )\n        );\n        measureIdCounter += 1;\n        return measureIdCounter - 1;\n    }\n\n    function getCompanyById(uint256 companyId)\n        public\n        view\n        returns (Company memory company)\n    {\n        for (\n            uint256 companyIndex;\n            companyIndex < companies.length;\n            companyIndex++\n        ) {\n            if (companies[companyIndex].id == companyId) {\n                return companies[companyIndex];\n            }\n        }\n    }\n\n    function getRecipesbyId(uint256 recipeId)\n        public\n        view\n        returns (Recipe memory recipe)\n    {\n        for (uint256 recipeIndex; recipeIndex < recipes.length; recipeIndex++) {\n            if (recipes[recipeIndex].id == recipeId) {\n                return recipes[recipeIndex];\n            }\n        }\n    }\n\n    function getRecipeStepbyId(uint256 recipeStepId)\n        public\n        view\n        returns (RecipeStep memory recipeStep)\n    {\n        for (\n            uint256 recipeStepIndex;\n            recipeStepIndex < recipeSteps.length;\n            recipeStepIndex++\n        ) {\n            if (recipeSteps[recipeStepIndex].id == recipeStepId) {\n                return recipeSteps[recipeStepIndex];\n            }\n        }\n    }\n\n    function getMeasureConstraintById(uint256 measureConstraintId)\n        public\n        view\n        returns (MeasureConstraint memory measureConstraint)\n    {\n        for (\n            uint256 measureConstraintIndex;\n            measureConstraintIndex < measureConstraints.length;\n            measureConstraintIndex++\n        ) {\n            if (\n                measureConstraints[measureConstraintIndex].id ==\n                measureConstraintId\n            ) {\n                return measureConstraints[measureConstraintIndex];\n            }\n        }\n    }\n\n    function getProductById(uint256 productId)\n        public\n        view\n        returns (Product memory product)\n    {\n        for (\n            uint256 productIndex;\n            productIndex < products.length;\n            productIndex++\n        ) {\n            if (products[productIndex].id == productId) {\n                return products[productIndex];\n            }\n        }\n    }\n\n    function getPhaseById(uint256 phaseId)\n        public\n        view\n        returns (Phase memory phase)\n    {\n        for (uint256 phaseIndex; phaseIndex < phases.length; phaseIndex++) {\n            if (phases[phaseIndex].id == phaseId) {\n                return phases[phaseIndex];\n            }\n        }\n    }\n\n    function getMeasureById(uint256 measureId)\n        public\n        view\n        returns (Measure memory measure)\n    {\n        for (\n            uint256 measureIndex;\n            measureIndex < measures.length;\n            measureIndex++\n        ) {\n            if (measures[measureIndex].id == measureId) {\n                return measures[measureIndex];\n            }\n        }\n    }\n\n    function getMachineById(uint256 machineId)\n        public\n        view\n        returns (Machine memory machine)\n    {\n        for (\n            uint256 machineIndex;\n            machineIndex < machines.length;\n            machineIndex++\n        ) {\n            if (machines[machineIndex].id == machineId) {\n                return machines[machineIndex];\n            }\n        }\n    }\n\n    function getNumOfProductsByCompanyId(uint256 companyId)\n        private\n        view\n        returns (uint256 numOfProducts)\n    {\n        uint256 productCounter = 0;\n        for (\n            uint256 productIndex = 0;\n            productIndex < products.length;\n            productIndex++\n        ) {\n            if (products[productIndex].companyId == companyId) {\n                productCounter += 1;\n            }\n        }\n        return productCounter;\n    }\n\n    function getProductsByCompanyId(uint256 companyId)\n        public\n        view\n        returns (Product[] memory)\n    {\n        uint256 numOfProducts = getNumOfProductsByCompanyId(companyId);\n        Product[] memory productTemp = new Product[](numOfProducts);\n        uint256 productCounter = 0;\n        for (\n            uint256 productIndex = 0;\n            productIndex < products.length;\n            productIndex++\n        ) {\n            if (products[productIndex].companyId == companyId) {\n                productTemp[productCounter] = products[productIndex];\n                productCounter += 1;\n            }\n        }\n        return productTemp;\n    }\n\n    function getNumOfProductsByRecipeId(uint256 recipeId)\n        private\n        view\n        returns (uint256 numOfProducts)\n    {\n        uint256 productCounter = 0;\n        for (\n            uint256 productIndex = 0;\n            productIndex < products.length;\n            productIndex++\n        ) {\n            if (products[productIndex].recipeId == recipeId) {\n                productCounter += 1;\n            }\n        }\n        return productCounter;\n    }\n\n    function getProductsByRecipyId(uint256 recipeId)\n        public\n        view\n        returns (Product[] memory)\n    {\n        uint256 numOfProducts = getNumOfProductsByRecipeId(recipeId);\n        Product[] memory productTemp = new Product[](numOfProducts);\n        uint256 productCounter = 0;\n        for (\n            uint256 productIndex = 0;\n            productIndex < products.length;\n            productIndex++\n        ) {\n            if (products[productIndex].recipeId == recipeId) {\n                productTemp[productCounter] = products[productIndex];\n                productCounter += 1;\n            }\n        }\n        return productTemp;\n    }\n\n    function getNumOfMachinesByCompanyId(uint256 companyId)\n        public\n        view\n        returns (uint256 numOfMachines)\n    {\n        uint256 machineCounter = 0;\n\n        for (\n            uint256 machineIndex = 0;\n            machineIndex < machines.length;\n            machineIndex++\n        ) {\n            if (machines[machineIndex].companyId == companyId) {\n                machineCounter += 1;\n            }\n        }\n        return machineCounter;\n    }\n\n    function getMachinesByCompanyId(uint256 companyId)\n        public\n        view\n        returns (Machine[] memory)\n    {\n        uint256 numOfMachine = getNumOfMachinesByCompanyId(companyId);\n        Machine[] memory machineTemp = new Machine[](numOfMachine);\n        uint256 machineCounter = 0;\n        for (\n            uint256 machineIndex = 0;\n            machineIndex < machines.length;\n            machineIndex++\n        ) {\n            if (machines[machineIndex].companyId == companyId) {\n                machineTemp[machineCounter] = machines[machineIndex];\n                machineCounter += 1;\n            }\n        }\n        return machineTemp;\n    }\n\n    function getNumOfRecipesByCompanyId(uint256 companyId)\n        public\n        view\n        returns (uint256 numOfRecepes)\n    {\n        uint256 counter = 0;\n\n        for (\n            uint256 recipesIndex = 0;\n            recipesIndex < recipes.length;\n            recipesIndex++\n        ) {\n            if (recipes[recipesIndex].companyId == companyId) {\n                counter += 1;\n            }\n        }\n        return counter;\n    }\n\n    function getRecipesByCompanyId(uint256 companyId)\n        public\n        view\n        returns (Recipe[] memory)\n    {\n        uint256 numOfRecepies = getNumOfRecipesByCompanyId(companyId);\n        Recipe[] memory recipeTemp = new Recipe[](numOfRecepies);\n        uint256 recipeCounter = 0;\n        for (\n            uint256 recipeIndex = 0;\n            recipeIndex < recipes.length;\n            recipeIndex++\n        ) {\n            if (recipes[recipeIndex].companyId == companyId) {\n                recipeTemp[recipeCounter] = recipes[recipeIndex];\n                recipeCounter += 1;\n            }\n        }\n        return recipeTemp;\n    }\n\n    function getNumOfRecipeStepsByRecipeId(uint256 recipeId)\n        public\n        view\n        returns (uint256 numOfRecepes)\n    {\n        uint256 counter = 0;\n\n        for (\n            uint256 recipeIndex = 0;\n            recipeIndex < recipeSteps.length;\n            recipeIndex++\n        ) {\n            if (recipeSteps[recipeIndex].recipeId == recipeId) {\n                counter += 1;\n            }\n        }\n        return counter;\n    }\n\n    function getRecipeStepsByRecipeId(uint256 recipeId)\n        public\n        view\n        returns (RecipeStep[] memory)\n    {\n        uint256 numOfRecipes = getNumOfRecipeStepsByRecipeId(recipeId);\n        RecipeStep[] memory recipeTemp = new RecipeStep[](numOfRecipes);\n        uint256 recipeCounter = 0;\n        for (\n            uint256 recipeIndex = 0;\n            recipeIndex < recipeSteps.length;\n            recipeIndex++\n        ) {\n            if (recipeSteps[recipeIndex].recipeId == recipeId) {\n                recipeTemp[recipeCounter] = recipeSteps[recipeIndex];\n                recipeCounter += 1;\n            }\n        }\n        return recipeTemp;\n    }\n\n    function getNumOfRecipeStepsByMachineId(uint256 machineId)\n        public\n        view\n        returns (uint256 numOfRecepes)\n    {\n        uint256 counter = 0;\n\n        for (\n            uint256 recipeIndex = 0;\n            recipeIndex < recipeSteps.length;\n            recipeIndex++\n        ) {\n            if (recipeSteps[recipeIndex].machineId == machineId) {\n                counter += 1;\n            }\n        }\n        return counter;\n    }\n\n    function getRecipeStepsByMachineId(uint256 machineId)\n        public\n        view\n        returns (RecipeStep[] memory)\n    {\n        uint256 numOfRecipes = getNumOfRecipeStepsByMachineId(machineId);\n        RecipeStep[] memory recipeTemp = new RecipeStep[](numOfRecipes);\n        uint256 recipeCounter = 0;\n        for (\n            uint256 recipeIndex = 0;\n            recipeIndex < recipeSteps.length;\n            recipeIndex++\n        ) {\n            if (recipeSteps[recipeIndex].machineId == machineId) {\n                recipeTemp[recipeCounter] = recipeSteps[recipeIndex];\n                recipeCounter += 1;\n            }\n        }\n        return recipeTemp;\n    }\n\n    function getNumOfMeasureConstraintByRecipeStepId(uint256 recipeStepId)\n        public\n        view\n        returns (uint256 numOfMeasureConstraints)\n    {\n        uint256 counter = 0;\n\n        for (\n            uint256 measureConstraintIndex = 0;\n            measureConstraintIndex < measureConstraints.length;\n            measureConstraintIndex++\n        ) {\n            if (\n                measureConstraints[measureConstraintIndex].recipeStepId ==\n                recipeStepId\n            ) {\n                counter += 1;\n            }\n        }\n        return counter;\n    }\n\n    function getMeasureConstraintsByRecipeStepId(uint256 recipeStepId)\n        public\n        view\n        returns (MeasureConstraint[] memory)\n    {\n        uint256 numOfMeasureConstraints =\n            getNumOfMeasureConstraintByRecipeStepId(recipeStepId);\n        MeasureConstraint[] memory measureConstraintTemp =\n            new MeasureConstraint[](numOfMeasureConstraints);\n        uint256 measureConstraintCounter = 0;\n        for (\n            uint256 measureConstraintIndex = 0;\n            measureConstraintIndex < measureConstraints.length;\n            measureConstraintIndex++\n        ) {\n            if (\n                measureConstraints[measureConstraintIndex].recipeStepId ==\n                recipeStepId\n            ) {\n                measureConstraintTemp[\n                    measureConstraintCounter\n                ] = measureConstraints[measureConstraintIndex];\n                measureConstraintCounter += 1;\n            }\n        }\n        return measureConstraintTemp;\n    }\n\n    function getNumOfPhasesByProductId(uint256 productId)\n        public\n        view\n        returns (uint256 numOfPhases)\n    {\n        uint256 counter = 0;\n\n        for (uint256 phaseIndex = 0; phaseIndex < phases.length; phaseIndex++) {\n            if (phases[phaseIndex].productId == productId) {\n                counter += 1;\n            }\n        }\n        return counter;\n    }\n\n    function getPhasesByProductId(uint256 productId)\n        public\n        view\n        returns (Phase[] memory)\n    {\n        uint256 numOfPhases = getNumOfPhasesByProductId(productId);\n        Phase[] memory phaseTemp = new Phase[](numOfPhases);\n        uint256 phaseCounter = 0;\n        for (uint256 phaseIndex = 0; phaseIndex < phases.length; phaseIndex++) {\n            if (phases[phaseIndex].productId == productId) {\n                phaseTemp[phaseCounter] = phases[phaseIndex];\n                phaseCounter += 1;\n            }\n        }\n        return phaseTemp;\n    }\n\n    function getNumOfPhasesByMachineId(uint256 machineId)\n        public\n        view\n        returns (uint256 numOfPhases)\n    {\n        uint256 counter = 0;\n\n        for (uint256 phaseIndex = 0; phaseIndex < phases.length; phaseIndex++) {\n            if (phases[phaseIndex].machineId == machineId) {\n                counter += 1;\n            }\n        }\n        return counter;\n    }\n\n    function getPhasesByMachineId(uint256 machineId)\n        public\n        view\n        returns (Phase[] memory)\n    {\n        uint256 numOfPhases = getNumOfPhasesByMachineId(machineId);\n        Phase[] memory phaseTemp = new Phase[](numOfPhases);\n        uint256 phaseCounter = 0;\n        for (uint256 phaseIndex = 0; phaseIndex < phases.length; phaseIndex++) {\n            if (phases[phaseIndex].machineId == machineId) {\n                phaseTemp[phaseCounter] = phases[phaseIndex];\n                phaseCounter += 1;\n            }\n        }\n        return phaseTemp;\n    }\n\n    function getNumOfPhasesByRecipeStepId(uint256 recipeStepId)\n        public\n        view\n        returns (uint256 numOfPhases)\n    {\n        uint256 counter = 0;\n\n        for (uint256 phaseIndex = 0; phaseIndex < phases.length; phaseIndex++) {\n            if (phases[phaseIndex].recipeStepId == recipeStepId) {\n                counter += 1;\n            }\n        }\n        return counter;\n    }\n\n    function getPhasesByRecipeStepId(uint256 recipeStepId)\n        public\n        view\n        returns (Phase[] memory)\n    {\n        uint256 numOfPhases = getNumOfPhasesByRecipeStepId(recipeStepId);\n        Phase[] memory phaseTemp = new Phase[](numOfPhases);\n        uint256 phaseCounter = 0;\n        for (uint256 phaseIndex = 0; phaseIndex < phases.length; phaseIndex++) {\n            if (phases[phaseIndex].recipeStepId == recipeStepId) {\n                phaseTemp[phaseCounter] = phases[phaseIndex];\n                phaseCounter += 1;\n            }\n        }\n        return phaseTemp;\n    }\n\n    function getNumOfMeasuresByPhaseId(uint256 phaseId)\n        public\n        view\n        returns (uint256 numOfMeasures)\n    {\n        uint256 counter = 0;\n\n        for (\n            uint256 measureIndex = 0;\n            measureIndex < measures.length;\n            measureIndex++\n        ) {\n            if (measures[measureIndex].phaseId == phaseId) {\n                counter += 1;\n            }\n        }\n        return counter;\n    }\n\n    function getMeasuresByPhaseId(uint256 phaseId)\n        public\n        view\n        returns (Measure[] memory)\n    {\n        uint256 numOfMeasures = getNumOfMeasuresByPhaseId(phaseId);\n        Measure[] memory measureTemp = new Measure[](numOfMeasures);\n        uint256 measureCounter = 0;\n        for (\n            uint256 measureIndex = 0;\n            measureIndex < measures.length;\n            measureIndex++\n        ) {\n            if (measures[measureIndex].phaseId == phaseId) {\n                measureTemp[measureCounter] = measures[measureIndex];\n                measureCounter += 1;\n            }\n        }\n        return measureTemp;\n    }\n\n    function getNumOfMeasureConstraintsByMeasureConstraintId(\n        uint256 measureConstraintId\n    ) public view returns (uint256 numOfMeasures) {\n        uint256 counter = 0;\n\n        for (\n            uint256 measureIndex = 0;\n            measureIndex < measures.length;\n            measureIndex++\n        ) {\n            if (\n                measures[measureIndex].measureConstraintId ==\n                measureConstraintId\n            ) {\n                counter += 1;\n            }\n        }\n        return counter;\n    }\n\n    function getMeasuresByMeasureConstraintId(uint256 measureConstraintId)\n        public\n        view\n        returns (Measure[] memory)\n    {\n        uint256 numOfMeasures =\n            getNumOfMeasureConstraintsByMeasureConstraintId(\n                measureConstraintId\n            );\n        Measure[] memory measureTemp = new Measure[](numOfMeasures);\n        uint256 measureCounter = 0;\n        for (\n            uint256 measureIndex = 0;\n            measureIndex < measures.length;\n            measureIndex++\n        ) {\n            if (\n                measures[measureIndex].measureConstraintId ==\n                measureConstraintId\n            ) {\n                measureTemp[measureCounter] = measures[measureIndex];\n                measureCounter += 1;\n            }\n        }\n        return measureTemp;\n    }\n\n    // function getMachinesByListOfPhase(Phase[] memory phasesUsed)\n    //     public\n    //     view\n    //     returns (Machine[] memory)\n    // {\n    //     Machine[] memory machinesUsed = new Machine[](phasesUsed.length);\n    //     for (uint256 phaseIndex; phaseIndex < phasesUsed.length; phaseIndex++) {\n    //         uint256 machineId = phasesUsed[phaseIndex].machineId;\n    //         machinesUsed[phaseIndex] = getMachineById(machineId);\n    //     }\n    //     return machinesUsed;\n    // }\n\n    // function getRecipeStepsByListOfPhase(Phase[] memory phasesUsed)\n    //     public\n    //     view\n    //     returns (RecipeStep[] memory)\n    // {\n    //     RecipeStep[] memory recipeStepsInPhases = new RecipeStep[](phasesUsed.length);\n    //     for (uint256 phaseIndex; phaseIndex < phasesUsed.length; phaseIndex++) {\n    //         uint256 recipeStepId = phasesUsed[phaseIndex].recipeStepId;\n    //         recipeStepsInPhases[phaseIndex] = getRecipeStepbyId(recipeStepId);\n    //     }\n    //     return recipeStepsInPhases;\n    // }\n\n    // function getAllMeasuresByListOfPhase(Phase[] memory phasesUsed) private view returns (mapping(uint256 => Measure[]) storage){\n    //     mapping(uint256 => Measure[]) storage prova;\n    // }\n\n    // function getProductInformationById(uint256 productId)\n    //     public\n    //     view\n    //     returns (ProductInformation memory)\n    // {\n    //     Product memory product = getProductById(productId);\n    //     Company memory company = getCompanyById(product.companyId);\n    //     Phase[] memory phases = getPhasesByProductId(productId);\n    //     Machine[] memory machines = getMachinesByListOfPhase(phases);\n    //     Recipe memory recipe = getRecipesbyId(product.recipeId);\n    //     RecipeStep[] memory recipeSteps = getRecipeStepsByListOfPhase(phases);\n\n    // }\n}\n",
  "sourcePath": "/home/giovanni/Scrivania/truffle-ice-smart-contract/contracts/ICESmartContract.sol",
  "compiler": {
    "name": "solc",
    "version": "0.8.4+commit.c7e474f2.Emscripten.clang"
  },
  "schemaVersion": "3.4.1",
  "updatedAt": "2021-05-27T10:38:10.306Z",
  "devdoc": {
    "kind": "dev",
    "methods": {},
    "version": 1
  },
  "userdoc": {
    "kind": "user",
    "methods": {},
    "version": 1
  }
}