{
  "contractName": "ICESmartContract",
  "abi": [
    {
      "anonymous": false,
      "inputs": [
        {
          "indexed": false,
          "internalType": "uint256",
          "name": "id",
          "type": "uint256"
        }
      ],
      "name": "CompanyCreated",
      "type": "event"
    },
    {
      "anonymous": false,
      "inputs": [
        {
          "indexed": false,
          "internalType": "uint256",
          "name": "id",
          "type": "uint256"
        }
      ],
      "name": "MachineCreated",
      "type": "event"
    },
    {
      "anonymous": false,
      "inputs": [
        {
          "indexed": false,
          "internalType": "uint256",
          "name": "id",
          "type": "uint256"
        }
      ],
      "name": "MeasureConstraintCreated",
      "type": "event"
    },
    {
      "anonymous": false,
      "inputs": [
        {
          "indexed": false,
          "internalType": "uint256",
          "name": "id",
          "type": "uint256"
        }
      ],
      "name": "MeasureCreated",
      "type": "event"
    },
    {
      "anonymous": false,
      "inputs": [
        {
          "indexed": false,
          "internalType": "uint256",
          "name": "id",
          "type": "uint256"
        }
      ],
      "name": "PhaseCreated",
      "type": "event"
    },
    {
      "anonymous": false,
      "inputs": [
        {
          "indexed": false,
          "internalType": "uint256",
          "name": "id",
          "type": "uint256"
        }
      ],
      "name": "ProductCreated",
      "type": "event"
    },
    {
      "anonymous": false,
      "inputs": [
        {
          "indexed": false,
          "internalType": "uint256",
          "name": "id",
          "type": "uint256"
        }
      ],
      "name": "RecipeCreated",
      "type": "event"
    },
    {
      "anonymous": false,
      "inputs": [
        {
          "indexed": false,
          "internalType": "uint256",
          "name": "id",
          "type": "uint256"
        }
      ],
      "name": "RecipeStepCreated",
      "type": "event"
    },
    {
      "inputs": [
        {
          "internalType": "uint256",
          "name": "",
          "type": "uint256"
        }
      ],
      "name": "companies",
      "outputs": [
        {
          "internalType": "uint256",
          "name": "id",
          "type": "uint256"
        },
        {
          "internalType": "string",
          "name": "name",
          "type": "string"
        }
      ],
      "stateMutability": "view",
      "type": "function"
    },
    {
      "inputs": [
        {
          "internalType": "uint256",
          "name": "",
          "type": "uint256"
        }
      ],
      "name": "machines",
      "outputs": [
        {
          "internalType": "uint256",
          "name": "id",
          "type": "uint256"
        },
        {
          "internalType": "string",
          "name": "name",
          "type": "string"
        },
        {
          "internalType": "string",
          "name": "description",
          "type": "string"
        },
        {
          "internalType": "uint256",
          "name": "companyId",
          "type": "uint256"
        }
      ],
      "stateMutability": "view",
      "type": "function"
    },
    {
      "inputs": [
        {
          "internalType": "uint256",
          "name": "",
          "type": "uint256"
        }
      ],
      "name": "measureConstraints",
      "outputs": [
        {
          "internalType": "uint256",
          "name": "id",
          "type": "uint256"
        },
        {
          "internalType": "string",
          "name": "name",
          "type": "string"
        },
        {
          "internalType": "int256",
          "name": "maxMeasure",
          "type": "int256"
        },
        {
          "internalType": "int256",
          "name": "minMeasure",
          "type": "int256"
        },
        {
          "internalType": "string",
          "name": "unitOfMeasure",
          "type": "string"
        },
        {
          "internalType": "uint256",
          "name": "recipeStepId",
          "type": "uint256"
        },
        {
          "internalType": "uint256",
          "name": "machineId",
          "type": "uint256"
        }
      ],
      "stateMutability": "view",
      "type": "function"
    },
    {
      "inputs": [
        {
          "internalType": "uint256",
          "name": "",
          "type": "uint256"
        }
      ],
      "name": "measures",
      "outputs": [
        {
          "internalType": "uint256",
          "name": "id",
          "type": "uint256"
        },
        {
          "internalType": "string",
          "name": "name",
          "type": "string"
        },
        {
          "internalType": "uint256",
          "name": "measure",
          "type": "uint256"
        },
        {
          "internalType": "string",
          "name": "unitOfMeasure",
          "type": "string"
        },
        {
          "internalType": "uint256",
          "name": "measureStartTime",
          "type": "uint256"
        },
        {
          "internalType": "uint256",
          "name": "measureEndTime",
          "type": "uint256"
        },
        {
          "internalType": "uint256",
          "name": "phaseId",
          "type": "uint256"
        },
        {
          "internalType": "uint256",
          "name": "measureConstraintId",
          "type": "uint256"
        }
      ],
      "stateMutability": "view",
      "type": "function"
    },
    {
      "inputs": [
        {
          "internalType": "uint256",
          "name": "",
          "type": "uint256"
        }
      ],
      "name": "phases",
      "outputs": [
        {
          "internalType": "uint256",
          "name": "id",
          "type": "uint256"
        },
        {
          "internalType": "string",
          "name": "name",
          "type": "string"
        },
        {
          "internalType": "string",
          "name": "description",
          "type": "string"
        },
        {
          "internalType": "uint256",
          "name": "productId",
          "type": "uint256"
        },
        {
          "internalType": "uint256",
          "name": "machineId",
          "type": "uint256"
        },
        {
          "internalType": "uint256",
          "name": "recipeStepId",
          "type": "uint256"
        }
      ],
      "stateMutability": "view",
      "type": "function"
    },
    {
      "inputs": [
        {
          "internalType": "uint256",
          "name": "",
          "type": "uint256"
        }
      ],
      "name": "products",
      "outputs": [
        {
          "internalType": "uint256",
          "name": "id",
          "type": "uint256"
        },
        {
          "internalType": "string",
          "name": "name",
          "type": "string"
        },
        {
          "internalType": "string",
          "name": "description",
          "type": "string"
        },
        {
          "internalType": "uint256",
          "name": "companyId",
          "type": "uint256"
        },
        {
          "internalType": "uint256",
          "name": "recipeId",
          "type": "uint256"
        }
      ],
      "stateMutability": "view",
      "type": "function"
    },
    {
      "inputs": [
        {
          "internalType": "uint256",
          "name": "",
          "type": "uint256"
        }
      ],
      "name": "recipeSteps",
      "outputs": [
        {
          "internalType": "uint256",
          "name": "id",
          "type": "uint256"
        },
        {
          "internalType": "string",
          "name": "name",
          "type": "string"
        },
        {
          "internalType": "string",
          "name": "description",
          "type": "string"
        },
        {
          "internalType": "uint256",
          "name": "recipeId",
          "type": "uint256"
        },
        {
          "internalType": "uint256",
          "name": "machineId",
          "type": "uint256"
        }
      ],
      "stateMutability": "view",
      "type": "function"
    },
    {
      "inputs": [
        {
          "internalType": "uint256",
          "name": "",
          "type": "uint256"
        }
      ],
      "name": "recipes",
      "outputs": [
        {
          "internalType": "uint256",
          "name": "id",
          "type": "uint256"
        },
        {
          "internalType": "string",
          "name": "name",
          "type": "string"
        },
        {
          "internalType": "string",
          "name": "description",
          "type": "string"
        },
        {
          "internalType": "uint256",
          "name": "companyId",
          "type": "uint256"
        }
      ],
      "stateMutability": "view",
      "type": "function"
    },
    {
      "inputs": [
        {
          "internalType": "string",
          "name": "name",
          "type": "string"
        }
      ],
      "name": "addCompany",
      "outputs": [
        {
          "internalType": "uint256",
          "name": "companyId",
          "type": "uint256"
        }
      ],
      "stateMutability": "nonpayable",
      "type": "function"
    },
    {
      "inputs": [
        {
          "internalType": "uint256",
          "name": "companyId",
          "type": "uint256"
        },
        {
          "internalType": "string",
          "name": "name",
          "type": "string"
        },
        {
          "internalType": "string",
          "name": "description",
          "type": "string"
        }
      ],
      "name": "addMachine",
      "outputs": [
        {
          "internalType": "uint256",
          "name": "machineId",
          "type": "uint256"
        }
      ],
      "stateMutability": "nonpayable",
      "type": "function"
    },
    {
      "inputs": [
        {
          "internalType": "uint256",
          "name": "companyId",
          "type": "uint256"
        },
        {
          "internalType": "string",
          "name": "name",
          "type": "string"
        },
        {
          "internalType": "string",
          "name": "description",
          "type": "string"
        }
      ],
      "name": "addRecipe",
      "outputs": [
        {
          "internalType": "uint256",
          "name": "recipeId",
          "type": "uint256"
        }
      ],
      "stateMutability": "nonpayable",
      "type": "function"
    },
    {
      "inputs": [
        {
          "internalType": "uint256",
          "name": "recipeId",
          "type": "uint256"
        },
        {
          "internalType": "uint256",
          "name": "machineId",
          "type": "uint256"
        },
        {
          "internalType": "string",
          "name": "name",
          "type": "string"
        },
        {
          "internalType": "string",
          "name": "description",
          "type": "string"
        }
      ],
      "name": "addRecipeStep",
      "outputs": [
        {
          "internalType": "uint256",
          "name": "recipeStepId",
          "type": "uint256"
        }
      ],
      "stateMutability": "nonpayable",
      "type": "function"
    },
    {
      "inputs": [
        {
          "internalType": "uint256",
          "name": "recipeStepId",
          "type": "uint256"
        },
        {
          "internalType": "uint256",
          "name": "machineId",
          "type": "uint256"
        },
        {
          "internalType": "string",
          "name": "name",
          "type": "string"
        },
        {
          "internalType": "int256",
          "name": "maxMeasure",
          "type": "int256"
        },
        {
          "internalType": "int256",
          "name": "minMeasure",
          "type": "int256"
        },
        {
          "internalType": "string",
          "name": "unitOfMeasure",
          "type": "string"
        }
      ],
      "name": "addMeasureConstraint",
      "outputs": [
        {
          "internalType": "uint256",
          "name": "measureId",
          "type": "uint256"
        }
      ],
      "stateMutability": "nonpayable",
      "type": "function"
    },
    {
      "inputs": [
        {
          "internalType": "uint256",
          "name": "companyId",
          "type": "uint256"
        },
        {
          "internalType": "uint256",
          "name": "recipyId",
          "type": "uint256"
        },
        {
          "internalType": "string",
          "name": "name",
          "type": "string"
        },
        {
          "internalType": "string",
          "name": "description",
          "type": "string"
        }
      ],
      "name": "addProduct",
      "outputs": [
        {
          "internalType": "uint256",
          "name": "productId",
          "type": "uint256"
        }
      ],
      "stateMutability": "nonpayable",
      "type": "function"
    },
    {
      "inputs": [
        {
          "internalType": "uint256",
          "name": "productId",
          "type": "uint256"
        },
        {
          "internalType": "uint256",
          "name": "machineId",
          "type": "uint256"
        },
        {
          "internalType": "uint256",
          "name": "recipeStepId",
          "type": "uint256"
        },
        {
          "internalType": "string",
          "name": "name",
          "type": "string"
        },
        {
          "internalType": "string",
          "name": "description",
          "type": "string"
        }
      ],
      "name": "addPhase",
      "outputs": [
        {
          "internalType": "uint256",
          "name": "phaseId",
          "type": "uint256"
        }
      ],
      "stateMutability": "nonpayable",
      "type": "function"
    },
    {
      "inputs": [
        {
          "internalType": "uint256",
          "name": "phaseId",
          "type": "uint256"
        },
        {
          "internalType": "uint256",
          "name": "measureConstraintId",
          "type": "uint256"
        },
        {
          "internalType": "string",
          "name": "name",
          "type": "string"
        },
        {
          "internalType": "uint256",
          "name": "measure",
          "type": "uint256"
        },
        {
          "internalType": "string",
          "name": "unitOfMeasure",
          "type": "string"
        },
        {
          "internalType": "uint256",
          "name": "measureStartTime",
          "type": "uint256"
        },
        {
          "internalType": "uint256",
          "name": "measureEndTime",
          "type": "uint256"
        }
      ],
      "name": "addMeasure",
      "outputs": [
        {
          "internalType": "uint256",
          "name": "measureId",
          "type": "uint256"
        }
      ],
      "stateMutability": "nonpayable",
      "type": "function"
    },
    {
      "inputs": [
        {
          "internalType": "uint256",
          "name": "companyId",
          "type": "uint256"
        }
      ],
      "name": "getCompanyById",
      "outputs": [
        {
          "components": [
            {
              "internalType": "uint256",
              "name": "id",
              "type": "uint256"
            },
            {
              "internalType": "string",
              "name": "name",
              "type": "string"
            }
          ],
          "internalType": "struct ICESmartContract.Company",
          "name": "company",
          "type": "tuple"
        }
      ],
      "stateMutability": "view",
      "type": "function"
    },
    {
      "inputs": [
        {
          "internalType": "uint256",
          "name": "recipeId",
          "type": "uint256"
        }
      ],
      "name": "getRecipebyId",
      "outputs": [
        {
          "components": [
            {
              "internalType": "uint256",
              "name": "id",
              "type": "uint256"
            },
            {
              "internalType": "string",
              "name": "name",
              "type": "string"
            },
            {
              "internalType": "string",
              "name": "description",
              "type": "string"
            },
            {
              "internalType": "uint256",
              "name": "companyId",
              "type": "uint256"
            }
          ],
          "internalType": "struct ICESmartContract.Recipe",
          "name": "recipe",
          "type": "tuple"
        }
      ],
      "stateMutability": "view",
      "type": "function"
    },
    {
      "inputs": [
        {
          "internalType": "uint256",
          "name": "recipeStepId",
          "type": "uint256"
        }
      ],
      "name": "getRecipeStepbyId",
      "outputs": [
        {
          "components": [
            {
              "internalType": "uint256",
              "name": "id",
              "type": "uint256"
            },
            {
              "internalType": "string",
              "name": "name",
              "type": "string"
            },
            {
              "internalType": "string",
              "name": "description",
              "type": "string"
            },
            {
              "internalType": "uint256",
              "name": "recipeId",
              "type": "uint256"
            },
            {
              "internalType": "uint256",
              "name": "machineId",
              "type": "uint256"
            }
          ],
          "internalType": "struct ICESmartContract.RecipeStep",
          "name": "recipeStep",
          "type": "tuple"
        }
      ],
      "stateMutability": "view",
      "type": "function"
    },
    {
      "inputs": [
        {
          "internalType": "uint256",
          "name": "measureConstraintId",
          "type": "uint256"
        }
      ],
      "name": "getMeasureConstraintById",
      "outputs": [
        {
          "components": [
            {
              "internalType": "uint256",
              "name": "id",
              "type": "uint256"
            },
            {
              "internalType": "string",
              "name": "name",
              "type": "string"
            },
            {
              "internalType": "int256",
              "name": "maxMeasure",
              "type": "int256"
            },
            {
              "internalType": "int256",
              "name": "minMeasure",
              "type": "int256"
            },
            {
              "internalType": "string",
              "name": "unitOfMeasure",
              "type": "string"
            },
            {
              "internalType": "uint256",
              "name": "recipeStepId",
              "type": "uint256"
            },
            {
              "internalType": "uint256",
              "name": "machineId",
              "type": "uint256"
            }
          ],
          "internalType": "struct ICESmartContract.MeasureConstraint",
          "name": "measureConstraint",
          "type": "tuple"
        }
      ],
      "stateMutability": "view",
      "type": "function"
    },
    {
      "inputs": [
        {
          "internalType": "uint256",
          "name": "productId",
          "type": "uint256"
        }
      ],
      "name": "getProductById",
      "outputs": [
        {
          "components": [
            {
              "internalType": "uint256",
              "name": "id",
              "type": "uint256"
            },
            {
              "internalType": "string",
              "name": "name",
              "type": "string"
            },
            {
              "internalType": "string",
              "name": "description",
              "type": "string"
            },
            {
              "internalType": "uint256",
              "name": "companyId",
              "type": "uint256"
            },
            {
              "internalType": "uint256",
              "name": "recipeId",
              "type": "uint256"
            }
          ],
          "internalType": "struct ICESmartContract.Product",
          "name": "product",
          "type": "tuple"
        }
      ],
      "stateMutability": "view",
      "type": "function"
    },
    {
      "inputs": [
        {
          "internalType": "uint256",
          "name": "phaseId",
          "type": "uint256"
        }
      ],
      "name": "getPhaseById",
      "outputs": [
        {
          "components": [
            {
              "internalType": "uint256",
              "name": "id",
              "type": "uint256"
            },
            {
              "internalType": "string",
              "name": "name",
              "type": "string"
            },
            {
              "internalType": "string",
              "name": "description",
              "type": "string"
            },
            {
              "internalType": "uint256",
              "name": "productId",
              "type": "uint256"
            },
            {
              "internalType": "uint256",
              "name": "machineId",
              "type": "uint256"
            },
            {
              "internalType": "uint256",
              "name": "recipeStepId",
              "type": "uint256"
            }
          ],
          "internalType": "struct ICESmartContract.Phase",
          "name": "phase",
          "type": "tuple"
        }
      ],
      "stateMutability": "view",
      "type": "function"
    },
    {
      "inputs": [
        {
          "internalType": "uint256",
          "name": "measureId",
          "type": "uint256"
        }
      ],
      "name": "getMeasureById",
      "outputs": [
        {
          "components": [
            {
              "internalType": "uint256",
              "name": "id",
              "type": "uint256"
            },
            {
              "internalType": "string",
              "name": "name",
              "type": "string"
            },
            {
              "internalType": "uint256",
              "name": "measure",
              "type": "uint256"
            },
            {
              "internalType": "string",
              "name": "unitOfMeasure",
              "type": "string"
            },
            {
              "internalType": "uint256",
              "name": "measureStartTime",
              "type": "uint256"
            },
            {
              "internalType": "uint256",
              "name": "measureEndTime",
              "type": "uint256"
            },
            {
              "internalType": "uint256",
              "name": "phaseId",
              "type": "uint256"
            },
            {
              "internalType": "uint256",
              "name": "measureConstraintId",
              "type": "uint256"
            }
          ],
          "internalType": "struct ICESmartContract.Measure",
          "name": "measure",
          "type": "tuple"
        }
      ],
      "stateMutability": "view",
      "type": "function"
    },
    {
      "inputs": [
        {
          "internalType": "uint256",
          "name": "machineId",
          "type": "uint256"
        }
      ],
      "name": "getMachineById",
      "outputs": [
        {
          "components": [
            {
              "internalType": "uint256",
              "name": "id",
              "type": "uint256"
            },
            {
              "internalType": "string",
              "name": "name",
              "type": "string"
            },
            {
              "internalType": "string",
              "name": "description",
              "type": "string"
            },
            {
              "internalType": "uint256",
              "name": "companyId",
              "type": "uint256"
            }
          ],
          "internalType": "struct ICESmartContract.Machine",
          "name": "machine",
          "type": "tuple"
        }
      ],
      "stateMutability": "view",
      "type": "function"
    },
    {
      "inputs": [
        {
          "internalType": "uint256",
          "name": "companyId",
          "type": "uint256"
        }
      ],
      "name": "getProductsByCompanyId",
      "outputs": [
        {
          "components": [
            {
              "internalType": "uint256",
              "name": "id",
              "type": "uint256"
            },
            {
              "internalType": "string",
              "name": "name",
              "type": "string"
            },
            {
              "internalType": "string",
              "name": "description",
              "type": "string"
            },
            {
              "internalType": "uint256",
              "name": "companyId",
              "type": "uint256"
            },
            {
              "internalType": "uint256",
              "name": "recipeId",
              "type": "uint256"
            }
          ],
          "internalType": "struct ICESmartContract.Product[]",
          "name": "",
          "type": "tuple[]"
        }
      ],
      "stateMutability": "view",
      "type": "function"
    },
    {
      "inputs": [
        {
          "internalType": "uint256",
          "name": "recipeId",
          "type": "uint256"
        }
      ],
      "name": "getProductsByRecipyId",
      "outputs": [
        {
          "components": [
            {
              "internalType": "uint256",
              "name": "id",
              "type": "uint256"
            },
            {
              "internalType": "string",
              "name": "name",
              "type": "string"
            },
            {
              "internalType": "string",
              "name": "description",
              "type": "string"
            },
            {
              "internalType": "uint256",
              "name": "companyId",
              "type": "uint256"
            },
            {
              "internalType": "uint256",
              "name": "recipeId",
              "type": "uint256"
            }
          ],
          "internalType": "struct ICESmartContract.Product[]",
          "name": "",
          "type": "tuple[]"
        }
      ],
      "stateMutability": "view",
      "type": "function"
    },
    {
      "inputs": [
        {
          "internalType": "uint256",
          "name": "companyId",
          "type": "uint256"
        }
      ],
      "name": "getNumOfMachinesByCompanyId",
      "outputs": [
        {
          "internalType": "uint256",
          "name": "numOfMachines",
          "type": "uint256"
        }
      ],
      "stateMutability": "view",
      "type": "function"
    },
    {
      "inputs": [
        {
          "internalType": "uint256",
          "name": "companyId",
          "type": "uint256"
        }
      ],
      "name": "getMachinesByCompanyId",
      "outputs": [
        {
          "components": [
            {
              "internalType": "uint256",
              "name": "id",
              "type": "uint256"
            },
            {
              "internalType": "string",
              "name": "name",
              "type": "string"
            },
            {
              "internalType": "string",
              "name": "description",
              "type": "string"
            },
            {
              "internalType": "uint256",
              "name": "companyId",
              "type": "uint256"
            }
          ],
          "internalType": "struct ICESmartContract.Machine[]",
          "name": "",
          "type": "tuple[]"
        }
      ],
      "stateMutability": "view",
      "type": "function"
    },
    {
      "inputs": [
        {
          "internalType": "uint256",
          "name": "companyId",
          "type": "uint256"
        }
      ],
      "name": "getNumOfRecipesByCompanyId",
      "outputs": [
        {
          "internalType": "uint256",
          "name": "numOfRecepes",
          "type": "uint256"
        }
      ],
      "stateMutability": "view",
      "type": "function"
    },
    {
      "inputs": [
        {
          "internalType": "uint256",
          "name": "companyId",
          "type": "uint256"
        }
      ],
      "name": "getRecipesByCompanyId",
      "outputs": [
        {
          "components": [
            {
              "internalType": "uint256",
              "name": "id",
              "type": "uint256"
            },
            {
              "internalType": "string",
              "name": "name",
              "type": "string"
            },
            {
              "internalType": "string",
              "name": "description",
              "type": "string"
            },
            {
              "internalType": "uint256",
              "name": "companyId",
              "type": "uint256"
            }
          ],
          "internalType": "struct ICESmartContract.Recipe[]",
          "name": "",
          "type": "tuple[]"
        }
      ],
      "stateMutability": "view",
      "type": "function"
    },
    {
      "inputs": [
        {
          "internalType": "uint256",
          "name": "recipeId",
          "type": "uint256"
        }
      ],
      "name": "getNumOfRecipeStepsByRecipeId",
      "outputs": [
        {
          "internalType": "uint256",
          "name": "numOfRecepes",
          "type": "uint256"
        }
      ],
      "stateMutability": "view",
      "type": "function"
    },
    {
      "inputs": [
        {
          "internalType": "uint256",
          "name": "recipeId",
          "type": "uint256"
        }
      ],
      "name": "getRecipeStepsByRecipeId",
      "outputs": [
        {
          "components": [
            {
              "internalType": "uint256",
              "name": "id",
              "type": "uint256"
            },
            {
              "internalType": "string",
              "name": "name",
              "type": "string"
            },
            {
              "internalType": "string",
              "name": "description",
              "type": "string"
            },
            {
              "internalType": "uint256",
              "name": "recipeId",
              "type": "uint256"
            },
            {
              "internalType": "uint256",
              "name": "machineId",
              "type": "uint256"
            }
          ],
          "internalType": "struct ICESmartContract.RecipeStep[]",
          "name": "",
          "type": "tuple[]"
        }
      ],
      "stateMutability": "view",
      "type": "function"
    },
    {
      "inputs": [
        {
          "internalType": "uint256",
          "name": "machineId",
          "type": "uint256"
        }
      ],
      "name": "getNumOfRecipeStepsByMachineId",
      "outputs": [
        {
          "internalType": "uint256",
          "name": "numOfRecepes",
          "type": "uint256"
        }
      ],
      "stateMutability": "view",
      "type": "function"
    },
    {
      "inputs": [
        {
          "internalType": "uint256",
          "name": "machineId",
          "type": "uint256"
        }
      ],
      "name": "getRecipeStepsByMachineId",
      "outputs": [
        {
          "components": [
            {
              "internalType": "uint256",
              "name": "id",
              "type": "uint256"
            },
            {
              "internalType": "string",
              "name": "name",
              "type": "string"
            },
            {
              "internalType": "string",
              "name": "description",
              "type": "string"
            },
            {
              "internalType": "uint256",
              "name": "recipeId",
              "type": "uint256"
            },
            {
              "internalType": "uint256",
              "name": "machineId",
              "type": "uint256"
            }
          ],
          "internalType": "struct ICESmartContract.RecipeStep[]",
          "name": "",
          "type": "tuple[]"
        }
      ],
      "stateMutability": "view",
      "type": "function"
    },
    {
      "inputs": [
        {
          "internalType": "uint256",
          "name": "recipeStepId",
          "type": "uint256"
        }
      ],
      "name": "getNumOfMeasureConstraintByRecipeStepId",
      "outputs": [
        {
          "internalType": "uint256",
          "name": "numOfMeasureConstraints",
          "type": "uint256"
        }
      ],
      "stateMutability": "view",
      "type": "function"
    },
    {
      "inputs": [
        {
          "internalType": "uint256",
          "name": "recipeStepId",
          "type": "uint256"
        }
      ],
      "name": "getMeasureConstraintsByRecipeStepId",
      "outputs": [
        {
          "components": [
            {
              "internalType": "uint256",
              "name": "id",
              "type": "uint256"
            },
            {
              "internalType": "string",
              "name": "name",
              "type": "string"
            },
            {
              "internalType": "int256",
              "name": "maxMeasure",
              "type": "int256"
            },
            {
              "internalType": "int256",
              "name": "minMeasure",
              "type": "int256"
            },
            {
              "internalType": "string",
              "name": "unitOfMeasure",
              "type": "string"
            },
            {
              "internalType": "uint256",
              "name": "recipeStepId",
              "type": "uint256"
            },
            {
              "internalType": "uint256",
              "name": "machineId",
              "type": "uint256"
            }
          ],
          "internalType": "struct ICESmartContract.MeasureConstraint[]",
          "name": "",
          "type": "tuple[]"
        }
      ],
      "stateMutability": "view",
      "type": "function"
    },
    {
      "inputs": [
        {
          "internalType": "uint256",
          "name": "productId",
          "type": "uint256"
        }
      ],
      "name": "getNumOfPhasesByProductId",
      "outputs": [
        {
          "internalType": "uint256",
          "name": "numOfPhases",
          "type": "uint256"
        }
      ],
      "stateMutability": "view",
      "type": "function"
    },
    {
      "inputs": [
        {
          "internalType": "uint256",
          "name": "productId",
          "type": "uint256"
        }
      ],
      "name": "getPhasesByProductId",
      "outputs": [
        {
          "components": [
            {
              "internalType": "uint256",
              "name": "id",
              "type": "uint256"
            },
            {
              "internalType": "string",
              "name": "name",
              "type": "string"
            },
            {
              "internalType": "string",
              "name": "description",
              "type": "string"
            },
            {
              "internalType": "uint256",
              "name": "productId",
              "type": "uint256"
            },
            {
              "internalType": "uint256",
              "name": "machineId",
              "type": "uint256"
            },
            {
              "internalType": "uint256",
              "name": "recipeStepId",
              "type": "uint256"
            }
          ],
          "internalType": "struct ICESmartContract.Phase[]",
          "name": "",
          "type": "tuple[]"
        }
      ],
      "stateMutability": "view",
      "type": "function"
    },
    {
      "inputs": [
        {
          "internalType": "uint256",
          "name": "machineId",
          "type": "uint256"
        }
      ],
      "name": "getNumOfPhasesByMachineId",
      "outputs": [
        {
          "internalType": "uint256",
          "name": "numOfPhases",
          "type": "uint256"
        }
      ],
      "stateMutability": "view",
      "type": "function"
    },
    {
      "inputs": [
        {
          "internalType": "uint256",
          "name": "machineId",
          "type": "uint256"
        }
      ],
      "name": "getPhasesByMachineId",
      "outputs": [
        {
          "components": [
            {
              "internalType": "uint256",
              "name": "id",
              "type": "uint256"
            },
            {
              "internalType": "string",
              "name": "name",
              "type": "string"
            },
            {
              "internalType": "string",
              "name": "description",
              "type": "string"
            },
            {
              "internalType": "uint256",
              "name": "productId",
              "type": "uint256"
            },
            {
              "internalType": "uint256",
              "name": "machineId",
              "type": "uint256"
            },
            {
              "internalType": "uint256",
              "name": "recipeStepId",
              "type": "uint256"
            }
          ],
          "internalType": "struct ICESmartContract.Phase[]",
          "name": "",
          "type": "tuple[]"
        }
      ],
      "stateMutability": "view",
      "type": "function"
    },
    {
      "inputs": [
        {
          "internalType": "uint256",
          "name": "recipeStepId",
          "type": "uint256"
        }
      ],
      "name": "getNumOfPhasesByRecipeStepId",
      "outputs": [
        {
          "internalType": "uint256",
          "name": "numOfPhases",
          "type": "uint256"
        }
      ],
      "stateMutability": "view",
      "type": "function"
    },
    {
      "inputs": [
        {
          "internalType": "uint256",
          "name": "recipeStepId",
          "type": "uint256"
        }
      ],
      "name": "getPhasesByRecipeStepId",
      "outputs": [
        {
          "components": [
            {
              "internalType": "uint256",
              "name": "id",
              "type": "uint256"
            },
            {
              "internalType": "string",
              "name": "name",
              "type": "string"
            },
            {
              "internalType": "string",
              "name": "description",
              "type": "string"
            },
            {
              "internalType": "uint256",
              "name": "productId",
              "type": "uint256"
            },
            {
              "internalType": "uint256",
              "name": "machineId",
              "type": "uint256"
            },
            {
              "internalType": "uint256",
              "name": "recipeStepId",
              "type": "uint256"
            }
          ],
          "internalType": "struct ICESmartContract.Phase[]",
          "name": "",
          "type": "tuple[]"
        }
      ],
      "stateMutability": "view",
      "type": "function"
    },
    {
      "inputs": [
        {
          "internalType": "uint256",
          "name": "phaseId",
          "type": "uint256"
        }
      ],
      "name": "getNumOfMeasuresByPhaseId",
      "outputs": [
        {
          "internalType": "uint256",
          "name": "numOfMeasures",
          "type": "uint256"
        }
      ],
      "stateMutability": "view",
      "type": "function"
    },
    {
      "inputs": [
        {
          "internalType": "uint256",
          "name": "phaseId",
          "type": "uint256"
        }
      ],
      "name": "getMeasuresByPhaseId",
      "outputs": [
        {
          "components": [
            {
              "internalType": "uint256",
              "name": "id",
              "type": "uint256"
            },
            {
              "internalType": "string",
              "name": "name",
              "type": "string"
            },
            {
              "internalType": "uint256",
              "name": "measure",
              "type": "uint256"
            },
            {
              "internalType": "string",
              "name": "unitOfMeasure",
              "type": "string"
            },
            {
              "internalType": "uint256",
              "name": "measureStartTime",
              "type": "uint256"
            },
            {
              "internalType": "uint256",
              "name": "measureEndTime",
              "type": "uint256"
            },
            {
              "internalType": "uint256",
              "name": "phaseId",
              "type": "uint256"
            },
            {
              "internalType": "uint256",
              "name": "measureConstraintId",
              "type": "uint256"
            }
          ],
          "internalType": "struct ICESmartContract.Measure[]",
          "name": "",
          "type": "tuple[]"
        }
      ],
      "stateMutability": "view",
      "type": "function"
    },
    {
      "inputs": [
        {
          "internalType": "uint256",
          "name": "measureConstraintId",
          "type": "uint256"
        }
      ],
      "name": "getNumOfMeasureConstraintsByMeasureConstraintId",
      "outputs": [
        {
          "internalType": "uint256",
          "name": "numOfMeasures",
          "type": "uint256"
        }
      ],
      "stateMutability": "view",
      "type": "function"
    },
    {
      "inputs": [
        {
          "internalType": "uint256",
          "name": "measureConstraintId",
          "type": "uint256"
        }
      ],
      "name": "getMeasuresByMeasureConstraintId",
      "outputs": [
        {
          "components": [
            {
              "internalType": "uint256",
              "name": "id",
              "type": "uint256"
            },
            {
              "internalType": "string",
              "name": "name",
              "type": "string"
            },
            {
              "internalType": "uint256",
              "name": "measure",
              "type": "uint256"
            },
            {
              "internalType": "string",
              "name": "unitOfMeasure",
              "type": "string"
            },
            {
              "internalType": "uint256",
              "name": "measureStartTime",
              "type": "uint256"
            },
            {
              "internalType": "uint256",
              "name": "measureEndTime",
              "type": "uint256"
            },
            {
              "internalType": "uint256",
              "name": "phaseId",
              "type": "uint256"
            },
            {
              "internalType": "uint256",
              "name": "measureConstraintId",
              "type": "uint256"
            }
          ],
          "internalType": "struct ICESmartContract.Measure[]",
          "name": "",
          "type": "tuple[]"
        }
      ],
      "stateMutability": "view",
      "type": "function"
    },
    {
      "inputs": [],
      "name": "getMeasureConstraints",
      "outputs": [
        {
          "components": [
            {
              "internalType": "uint256",
              "name": "id",
              "type": "uint256"
            },
            {
              "internalType": "string",
              "name": "name",
              "type": "string"
            },
            {
              "internalType": "int256",
              "name": "maxMeasure",
              "type": "int256"
            },
            {
              "internalType": "int256",
              "name": "minMeasure",
              "type": "int256"
            },
            {
              "internalType": "string",
              "name": "unitOfMeasure",
              "type": "string"
            },
            {
              "internalType": "uint256",
              "name": "recipeStepId",
              "type": "uint256"
            },
            {
              "internalType": "uint256",
              "name": "machineId",
              "type": "uint256"
            }
          ],
          "internalType": "struct ICESmartContract.MeasureConstraint[]",
          "name": "",
          "type": "tuple[]"
        }
      ],
      "stateMutability": "view",
      "type": "function"
    }
  ],
  "bytecode": "0x608060405234801561001057600080fd5b506157fa80620000216000396000f3fe608060405234801561001057600080fd5b50600436106102b2576000357c0100000000000000000000000000000000000000000000000000000000900480636db5130211610184578063bafca80c116100eb578063da3693c9116100a4578063da3693c9146106dd578063dc5fbbd7146106f0578063e31ed51b14610710578063e46e8b4a14610723578063f3ea0a7314610736578063ffa0b9761461074957600080fd5b8063bafca80c14610651578063c65ef56a14610671578063c8ae51c914610684578063cad29c2b14610697578063cdc5b7cd146106b7578063d6483d17146106ca57600080fd5b806384d86ec31161013d57806384d86ec3146105be5780638f28685f146105d15780639134293e146105f85780639ba8cf3b14610618578063af6d1e391461062b578063b196fba01461063e57600080fd5b80636db513021461052e57806370509679146105415780637387616614610554578063788c3214146105675780637acc0b201461058b578063826541dc1461059e57600080fd5b806334e2ad5911610228578063459e5788116101e1578063459e5788146104955780634d42845c146104a85780635dd4f342146104bb5780635de5bee7146104ce578063602ffca7146104ee5780636bc5245a1461050e57600080fd5b806334e2ad59146103f957806338cd8d631461041957806339375200146104395780633f70c2b41461044c578063441ca54a1461045f578063443c227c1461047257600080fd5b806316496db41161027a57806316496db414610347578063175a7c3d146103675780632813d19d1461037a578063292b181c1461039b5780632e37eef6146103c157806331d4a63b146103e657600080fd5b8063045a08dd146102b757806308970329146102e05780630cce816f146103005780630da8a67e146103215780631419550214610334575b600080fd5b6102ca6102c5366004614df9565b610751565b6040516102d7919061546c565b60405180910390f35b6102f36102ee366004614df9565b610a14565b6040516102d791906153c6565b61031361030e366004614df9565b610cad565b6040519081526020016102d7565b61031361032f366004614f75565b610d20565b610313610342366004614df9565b610e82565b61035a610355366004614df9565b610eee565b6040516102d7919061558a565b610313610375366004614df9565b611109565b61038d610388366004614df9565b611175565b6040516102d792919061559d565b6103ae6103a9366004614df9565b61122d565b6040516102d797969594939291906155b6565b6103d46103cf366004614df9565b61138b565b6040516102d796959493929190615681565b6103136103f4366004614df9565b6114e3565b61040c610407366004614df9565b61154f565b6040516102d79190615512565b61042c610427366004614df9565b6116a1565b6040516102d79190615537565b610313610447366004614df9565b6118a5565b61035a61045a366004614df9565b611911565b61031361046d366004614df9565b6119c3565b610485610480366004614df9565b611a2f565b6040516102d79493929190615604565b6102f36104a3366004614df9565b611b7b565b6104856104b6366004614df9565b611e14565b6103136104c9366004614e7b565b611e24565b6104e16104dc366004614df9565b611f70565b6040516102d79190615320565b6105016104fc366004614df9565b61224b565b6040516102d79190615564565b61052161051c366004614df9565b612455565b6040516102d79190615419565b61031361053c366004614f01565b61270e565b61031361054f366004614df9565b612839565b61042c610562366004614df9565b6128a5565b61057a610575366004614df9565b612950565b6040516102d7959493929190615641565b61057a610599366004614df9565b612aa2565b6105b16105ac366004614df9565b612ab2565b6040516102d79190615577565b6102ca6105cc366004614df9565b612ca7565b6105e46105df366004614df9565b612f60565b6040516102d79897969594939291906156cb565b61060b610606366004614df9565b6130c4565b6040516102d79190615373565b610521610626366004614df9565b613372565b6102f3610639366004614df9565b61362b565b61031361064c366004614df9565b6138c4565b61066461065f366004614df9565b613930565b6040516102d79190615551565b61031361067f366004614e11565b613b67565b610313610692366004615006565b613c7e565b6106aa6106a5366004614df9565b613db9565b6040516102d791906152c0565b6103136106c5366004614df9565b614061565b6103136106d8366004614dbe565b6140cd565b61060b6106eb366004614df9565b6141ac565b6107036106fe366004614df9565b61445a565b6040516102d791906154bf565b61031361071e366004614f01565b614702565b610313610731366004614e11565b61481e565b610313610744366004614df9565b61492a565b6104e1614996565b6060600061075e83610e82565b905060008167ffffffffffffffff81111561078c5760e060020a634e487b7102600052604160045260246000fd5b6040519080825280602002602001820160405280156107ef57816020015b6107dc6040518060a0016040528060008152602001606081526020016060815260200160008152602001600081525090565b8152602001906001900390816107aa5790505b5090506000805b600454811015610a0a5785600482815481106108255760e060020a634e487b7102600052603260045260246000fd5b90600052602060002090600502016004015414156109f857600481815481106108615760e060020a634e487b7102600052603260045260246000fd5b90600052602060002090600502016040518060a0016040529081600082015481526020016001820180546108949061573f565b80601f01602080910402602001604051908101604052809291908181526020018280546108c09061573f565b801561090d5780601f106108e25761010080835404028352916020019161090d565b820191906000526020600020905b8154815290600101906020018083116108f057829003601f168201915b505050505081526020016002820180546109269061573f565b80601f01602080910402602001604051908101604052809291908181526020018280546109529061573f565b801561099f5780601f106109745761010080835404028352916020019161099f565b820191906000526020600020905b81548152906001019060200180831161098257829003601f168201915b50505050508152602001600382015481526020016004820154815250508383815181106109df5760e060020a634e487b7102600052603260045260246000fd5b60209081029190910101526109f5600183615727565b91505b80610a0281615777565b9150506107f6565b5090949350505050565b60606000610a21836138c4565b905060008167ffffffffffffffff811115610a4f5760e060020a634e487b7102600052604160045260246000fd5b604051908082528060200260200182016040528015610a8857816020015b610a75614c23565b815260200190600190039081610a6d5790505b5090506000805b600654811015610a0a578560068281548110610abe5760e060020a634e487b7102600052603260045260246000fd5b9060005260206000209060060201600301541415610c9b5760068181548110610afa5760e060020a634e487b7102600052603260045260246000fd5b90600052602060002090600602016040518060c001604052908160008201548152602001600182018054610b2d9061573f565b80601f0160208091040260200160405190810160405280929190818152602001828054610b599061573f565b8015610ba65780601f10610b7b57610100808354040283529160200191610ba6565b820191906000526020600020905b815481529060010190602001808311610b8957829003601f168201915b50505050508152602001600282018054610bbf9061573f565b80601f0160208091040260200160405190810160405280929190818152602001828054610beb9061573f565b8015610c385780601f10610c0d57610100808354040283529160200191610c38565b820191906000526020600020905b815481529060010190602001808311610c1b57829003601f168201915b505050505081526020016003820154815260200160048201548152602001600582015481525050838381518110610c825760e060020a634e487b7102600052603260045260246000fd5b6020908102919091010152610c98600183615727565b91505b80610ca581615777565b915050610a8f565b600080805b600154811015610d19578360018281548110610ce15760e060020a634e487b7102600052603260045260246000fd5b9060005260206000209060040201600301541415610d0757610d04600183615727565b91505b80610d1181615777565b915050610cb2565b5092915050565b6040805161010081018252600f5481526020808201888152928201879052606082018690526080820185905260a0820184905260c082018a905260e08201899052600780546001810182556000918252835160089091027fa66cc928b5edb82af9bd49922954155ab7b0942694bea4ce44661d9a8736c68881019182559451805192959193610dd6937fa66cc928b5edb82af9bd49922954155ab7b0942694bea4ce44661d9a8736c68990930192910190614c59565b506040820151600282015560608201518051610dfc916003840191602090910190614c59565b506080820151600482015560a0820151600582015560c0820151600682015560e090910151600790910155600f546040518181527f92d4eb36878e12e917551c271292979d935d4b52604a9146540691515a03966a9060200160405180910390a16001600f6000828254610e709190615727565b90915550909998505050505050505050565b600080805b600454811015610d19578360048281548110610eb65760e060020a634e487b7102600052603260045260246000fd5b9060005260206000209060050201600401541415610edc57610ed9600183615727565b91505b80610ee681615777565b915050610e87565b610f206040518060a0016040528060008152602001606081526020016060815260200160008152602001600081525090565b60005b600454811015611103578260048281548110610f525760e060020a634e487b7102600052603260045260246000fd5b90600052602060002090600502016000015414156110f15760048181548110610f8e5760e060020a634e487b7102600052603260045260246000fd5b90600052602060002090600502016040518060a001604052908160008201548152602001600182018054610fc19061573f565b80601f0160208091040260200160405190810160405280929190818152602001828054610fed9061573f565b801561103a5780601f1061100f5761010080835404028352916020019161103a565b820191906000526020600020905b81548152906001019060200180831161101d57829003601f168201915b505050505081526020016002820180546110539061573f565b80601f016020809104026020016040519081016040528092919081815260200182805461107f9061573f565b80156110cc5780601f106110a1576101008083540402835291602001916110cc565b820191906000526020600020905b8154815290600101906020018083116110af57829003601f168201915b5050505050815260200160038201548152602001600482015481525050915050919050565b806110fb81615777565b915050610f23565b50919050565b600080805b600254811015610d1957836002828154811061113d5760e060020a634e487b7102600052603260045260246000fd5b906000526020600020906004020160030154141561116357611160600183615727565b91505b8061116d81615777565b91505061110e565b6000818154811061118557600080fd5b600091825260209091206002909102018054600182018054919350906111aa9061573f565b80601f01602080910402602001604051908101604052809291908181526020018280546111d69061573f565b80156112235780601f106111f857610100808354040283529160200191611223565b820191906000526020600020905b81548152906001019060200180831161120657829003601f168201915b5050505050905082565b6005818154811061123d57600080fd5b600091825260209091206007909102018054600182018054919350906112629061573f565b80601f016020809104026020016040519081016040528092919081815260200182805461128e9061573f565b80156112db5780601f106112b0576101008083540402835291602001916112db565b820191906000526020600020905b8154815290600101906020018083116112be57829003601f168201915b5050505050908060020154908060030154908060040180546112fc9061573f565b80601f01602080910402602001604051908101604052809291908181526020018280546113289061573f565b80156113755780601f1061134a57610100808354040283529160200191611375565b820191906000526020600020905b81548152906001019060200180831161135857829003601f168201915b5050505050908060050154908060060154905087565b6006818154811061139b57600080fd5b600091825260209091206006909102018054600182018054919350906113c09061573f565b80601f01602080910402602001604051908101604052809291908181526020018280546113ec9061573f565b80156114395780601f1061140e57610100808354040283529160200191611439565b820191906000526020600020905b81548152906001019060200180831161141c57829003601f168201915b50505050509080600201805461144e9061573f565b80601f016020809104026020016040519081016040528092919081815260200182805461147a9061573f565b80156114c75780601f1061149c576101008083540402835291602001916114c7565b820191906000526020600020905b8154815290600101906020018083116114aa57829003601f168201915b5050505050908060030154908060040154908060050154905086565b600080805b600754811015610d195783600782815481106115175760e060020a634e487b7102600052603260045260246000fd5b906000526020600020906008020160070154141561153d5761153a600183615727565b91505b8061154781615777565b9150506114e8565b60408051808201909152600081526060602082015260005b6000548110156111035782600082815481106115965760e060020a634e487b7102600052603260045260246000fd5b906000526020600020906002020160000154141561168f57600081815481106115d25760e060020a634e487b7102600052603260045260246000fd5b9060005260206000209060020201604051806040016040529081600082015481526020016001820180546116059061573f565b80601f01602080910402602001604051908101604052809291908181526020018280546116319061573f565b801561167e5780601f106116535761010080835404028352916020019161167e565b820191906000526020600020905b81548152906001019060200180831161166157829003601f168201915b505050505081525050915050919050565b8061169981615777565b915050611567565b6116cc6040518060800160405280600081526020016060815260200160608152602001600081525090565b60005b6002548110156111035782600282815481106116fe5760e060020a634e487b7102600052603260045260246000fd5b9060005260206000209060040201600001541415611893576002818154811061173a5760e060020a634e487b7102600052603260045260246000fd5b90600052602060002090600402016040518060800160405290816000820154815260200160018201805461176d9061573f565b80601f01602080910402602001604051908101604052809291908181526020018280546117999061573f565b80156117e65780601f106117bb576101008083540402835291602001916117e6565b820191906000526020600020905b8154815290600101906020018083116117c957829003601f168201915b505050505081526020016002820180546117ff9061573f565b80601f016020809104026020016040519081016040528092919081815260200182805461182b9061573f565b80156118785780601f1061184d57610100808354040283529160200191611878565b820191906000526020600020905b81548152906001019060200180831161185b57829003601f168201915b50505050508152602001600382015481525050915050919050565b8061189d81615777565b9150506116cf565b600080805b600454811015610d195783600482815481106118d95760e060020a634e487b7102600052603260045260246000fd5b90600052602060002090600502016003015414156118ff576118fc600183615727565b91505b8061190981615777565b9150506118aa565b6119436040518060a0016040528060008152602001606081526020016060815260200160008152602001600081525090565b60005b6003548110156111035782600382815481106119755760e060020a634e487b7102600052603260045260246000fd5b90600052602060002090600502016000015414156119b15760038181548110610f8e5760e060020a634e487b7102600052603260045260246000fd5b806119bb81615777565b915050611946565b600080805b600754811015610d195783600782815481106119f75760e060020a634e487b7102600052603260045260246000fd5b9060005260206000209060080201600601541415611a1d57611a1a600183615727565b91505b80611a2781615777565b9150506119c8565b60028181548110611a3f57600080fd5b60009182526020909120600490910201805460018201805491935090611a649061573f565b80601f0160208091040260200160405190810160405280929190818152602001828054611a909061573f565b8015611add5780601f10611ab257610100808354040283529160200191611add565b820191906000526020600020905b815481529060010190602001808311611ac057829003601f168201915b505050505090806002018054611af29061573f565b80601f0160208091040260200160405190810160405280929190818152602001828054611b1e9061573f565b8015611b6b5780601f10611b4057610100808354040283529160200191611b6b565b820191906000526020600020905b815481529060010190602001808311611b4e57829003601f168201915b5050505050908060030154905084565b60606000611b8883614061565b905060008167ffffffffffffffff811115611bb65760e060020a634e487b7102600052604160045260246000fd5b604051908082528060200260200182016040528015611bef57816020015b611bdc614c23565b815260200190600190039081611bd45790505b5090506000805b600654811015610a0a578560068281548110611c255760e060020a634e487b7102600052603260045260246000fd5b9060005260206000209060060201600401541415611e025760068181548110611c615760e060020a634e487b7102600052603260045260246000fd5b90600052602060002090600602016040518060c001604052908160008201548152602001600182018054611c949061573f565b80601f0160208091040260200160405190810160405280929190818152602001828054611cc09061573f565b8015611d0d5780601f10611ce257610100808354040283529160200191611d0d565b820191906000526020600020905b815481529060010190602001808311611cf057829003601f168201915b50505050508152602001600282018054611d269061573f565b80601f0160208091040260200160405190810160405280929190818152602001828054611d529061573f565b8015611d9f5780601f10611d7457610100808354040283529160200191611d9f565b820191906000526020600020905b815481529060010190602001808311611d8257829003601f168201915b505050505081526020016003820154815260200160048201548152602001600582015481525050838381518110611de95760e060020a634e487b7102600052603260045260246000fd5b6020908102919091010152611dff600183615727565b91505b80611e0c81615777565b915050611bf6565b60018181548110611a3f57600080fd5b6040805160e081018252600c5481526020808201878152928201869052606082018590526080820184905260a0820189905260c08201889052600580546001810182556000918252835160079091027f036b6384b5eca791c62761152d0c79bb0604c104a5fb6f4eb0703f3154bb3db081019182559451805192959193611ed2937f036b6384b5eca791c62761152d0c79bb0604c104a5fb6f4eb0703f3154bb3db190930192910190614c59565b50604082015160028201556060820151600382015560808201518051611f02916004840191602090910190614c59565b5060a0820151600582015560c090910151600690910155600c8054906001906000611f2d8385615727565b90915550506040518181527f595be16b3de9f5a5916023920f4618f5f5e303eba93784ef292e293beb7bd84d9060200160405180910390a1979650505050505050565b60606000611f7d83612839565b905060008167ffffffffffffffff811115611fab5760e060020a634e487b7102600052604160045260246000fd5b60405190808252806020026020018201604052801561201c57816020015b6120096040518060e00160405280600081526020016060815260200160008152602001600081526020016060815260200160008152602001600081525090565b815260200190600190039081611fc95790505b5090506000805b600554811015610a0a5785600582815481106120525760e060020a634e487b7102600052603260045260246000fd5b9060005260206000209060070201600501541415612239576005818154811061208e5760e060020a634e487b7102600052603260045260246000fd5b90600052602060002090600702016040518060e0016040529081600082015481526020016001820180546120c19061573f565b80601f01602080910402602001604051908101604052809291908181526020018280546120ed9061573f565b801561213a5780601f1061210f5761010080835404028352916020019161213a565b820191906000526020600020905b81548152906001019060200180831161211d57829003601f168201915b5050505050815260200160028201548152602001600382015481526020016004820180546121679061573f565b80601f01602080910402602001604051908101604052809291908181526020018280546121939061573f565b80156121e05780601f106121b5576101008083540402835291602001916121e0565b820191906000526020600020905b8154815290600101906020018083116121c357829003601f168201915b50505050508152602001600582015481526020016006820154815250508383815181106122205760e060020a634e487b7102600052603260045260246000fd5b6020908102919091010152612236600183615727565b91505b8061224381615777565b915050612023565b612253614cdd565b60005b6007548110156111035782600782815481106122855760e060020a634e487b7102600052603260045260246000fd5b906000526020600020906008020160000154141561244357600781815481106122c15760e060020a634e487b7102600052603260045260246000fd5b906000526020600020906008020160405180610100016040529081600082015481526020016001820180546122f59061573f565b80601f01602080910402602001604051908101604052809291908181526020018280546123219061573f565b801561236e5780601f106123435761010080835404028352916020019161236e565b820191906000526020600020905b81548152906001019060200180831161235157829003601f168201915b50505050508152602001600282015481526020016003820180546123919061573f565b80601f01602080910402602001604051908101604052809291908181526020018280546123bd9061573f565b801561240a5780601f106123df5761010080835404028352916020019161240a565b820191906000526020600020905b8154815290600101906020018083116123ed57829003601f168201915b50505050508152602001600482015481526020016005820154815260200160068201548152602001600782015481525050915050919050565b8061244d81615777565b915050612256565b6060600061246283614b4b565b905060008167ffffffffffffffff8111156124905760e060020a634e487b7102600052604160045260246000fd5b6040519080825280602002602001820160405280156124f357816020015b6124e06040518060a0016040528060008152602001606081526020016060815260200160008152602001600081525090565b8152602001906001900390816124ae5790505b5090506000805b600354811015610a0a5785600382815481106125295760e060020a634e487b7102600052603260045260246000fd5b90600052602060002090600502016004015414156126fc57600381815481106125655760e060020a634e487b7102600052603260045260246000fd5b90600052602060002090600502016040518060a0016040529081600082015481526020016001820180546125989061573f565b80601f01602080910402602001604051908101604052809291908181526020018280546125c49061573f565b80156126115780601f106125e657610100808354040283529160200191612611565b820191906000526020600020905b8154815290600101906020018083116125f457829003601f168201915b5050505050815260200160028201805461262a9061573f565b80601f01602080910402602001604051908101604052809291908181526020018280546126569061573f565b80156126a35780601f10612678576101008083540402835291602001916126a3565b820191906000526020600020905b81548152906001019060200180831161268657829003601f168201915b50505050508152602001600382015481526020016004820154815250508383815181106126e35760e060020a634e487b7102600052603260045260246000fd5b60209081029190910101526126f9600183615727565b91505b8061270681615777565b9150506124fa565b6040805160a081018252600d54815260208082018581529282018490526060820187905260808201869052600380546001810182556000918252835160059091027fc2575a0e9e593c00f959f8c92f12db2869c3395a3b0502d05e2516446f71f85b810191825594518051929591936127ae937fc2575a0e9e593c00f959f8c92f12db2869c3395a3b0502d05e2516446f71f85c90930192910190614c59565b50604082015180516127ca916002840191602090910190614c59565b5060608201516003820155608090910151600490910155600d546040518181527f8bfed7c0004768df129b4900300816f8e85b8633621048ae882252021aa699b29060200160405180910390a16001600d600082825461282a9190615727565b90915550909695505050505050565b600080805b600554811015610d1957836005828154811061286d5760e060020a634e487b7102600052603260045260246000fd5b906000526020600020906007020160050154141561289357612890600183615727565b91505b8061289d81615777565b91505061283e565b6128d06040518060800160405280600081526020016060815260200160608152602001600081525090565b60005b6001548110156111035782600182815481106129025760e060020a634e487b7102600052603260045260246000fd5b906000526020600020906004020160000154141561293e576001818154811061173a5760e060020a634e487b7102600052603260045260246000fd5b8061294881615777565b9150506128d3565b6004818154811061296057600080fd5b600091825260209091206005909102018054600182018054919350906129859061573f565b80601f01602080910402602001604051908101604052809291908181526020018280546129b19061573f565b80156129fe5780601f106129d3576101008083540402835291602001916129fe565b820191906000526020600020905b8154815290600101906020018083116129e157829003601f168201915b505050505090806002018054612a139061573f565b80601f0160208091040260200160405190810160405280929190818152602001828054612a3f9061573f565b8015612a8c5780601f10612a6157610100808354040283529160200191612a8c565b820191906000526020600020905b815481529060010190602001808311612a6f57829003601f168201915b5050505050908060030154908060040154905085565b6003818154811061296057600080fd5b612aba614c23565b60005b600654811015611103578260068281548110612aec5760e060020a634e487b7102600052603260045260246000fd5b9060005260206000209060060201600001541415612c955760068181548110612b285760e060020a634e487b7102600052603260045260246000fd5b90600052602060002090600602016040518060c001604052908160008201548152602001600182018054612b5b9061573f565b80601f0160208091040260200160405190810160405280929190818152602001828054612b879061573f565b8015612bd45780601f10612ba957610100808354040283529160200191612bd4565b820191906000526020600020905b815481529060010190602001808311612bb757829003601f168201915b50505050508152602001600282018054612bed9061573f565b80601f0160208091040260200160405190810160405280929190818152602001828054612c199061573f565b8015612c665780601f10612c3b57610100808354040283529160200191612c66565b820191906000526020600020905b815481529060010190602001808311612c4957829003601f168201915b505050505081526020016003820154815260200160048201548152602001600582015481525050915050919050565b80612c9f81615777565b915050612abd565b60606000612cb4836118a5565b905060008167ffffffffffffffff811115612ce25760e060020a634e487b7102600052604160045260246000fd5b604051908082528060200260200182016040528015612d4557816020015b612d326040518060a0016040528060008152602001606081526020016060815260200160008152602001600081525090565b815260200190600190039081612d005790505b5090506000805b600454811015610a0a578560048281548110612d7b5760e060020a634e487b7102600052603260045260246000fd5b9060005260206000209060050201600301541415612f4e5760048181548110612db75760e060020a634e487b7102600052603260045260246000fd5b90600052602060002090600502016040518060a001604052908160008201548152602001600182018054612dea9061573f565b80601f0160208091040260200160405190810160405280929190818152602001828054612e169061573f565b8015612e635780601f10612e3857610100808354040283529160200191612e63565b820191906000526020600020905b815481529060010190602001808311612e4657829003601f168201915b50505050508152602001600282018054612e7c9061573f565b80601f0160208091040260200160405190810160405280929190818152602001828054612ea89061573f565b8015612ef55780601f10612eca57610100808354040283529160200191612ef5565b820191906000526020600020905b815481529060010190602001808311612ed857829003601f168201915b5050505050815260200160038201548152602001600482015481525050838381518110612f355760e060020a634e487b7102600052603260045260246000fd5b6020908102919091010152612f4b600183615727565b91505b80612f5881615777565b915050612d4c565b60078181548110612f7057600080fd5b60009182526020909120600890910201805460018201805491935090612f959061573f565b80601f0160208091040260200160405190810160405280929190818152602001828054612fc19061573f565b801561300e5780601f10612fe35761010080835404028352916020019161300e565b820191906000526020600020905b815481529060010190602001808311612ff157829003601f168201915b5050505050908060020154908060030180546130299061573f565b80601f01602080910402602001604051908101604052809291908181526020018280546130559061573f565b80156130a25780601f10613077576101008083540402835291602001916130a2565b820191906000526020600020905b81548152906001019060200180831161308557829003601f168201915b5050505050908060040154908060050154908060060154908060070154905088565b606060006130d1836114e3565b905060008167ffffffffffffffff8111156130ff5760e060020a634e487b7102600052604160045260246000fd5b60405190808252806020026020018201604052801561313857816020015b613125614cdd565b81526020019060019003908161311d5790505b5090506000805b600754811015610a0a57856007828154811061316e5760e060020a634e487b7102600052603260045260246000fd5b906000526020600020906008020160070154141561336057600781815481106131aa5760e060020a634e487b7102600052603260045260246000fd5b906000526020600020906008020160405180610100016040529081600082015481526020016001820180546131de9061573f565b80601f016020809104026020016040519081016040528092919081815260200182805461320a9061573f565b80156132575780601f1061322c57610100808354040283529160200191613257565b820191906000526020600020905b81548152906001019060200180831161323a57829003601f168201915b505050505081526020016002820154815260200160038201805461327a9061573f565b80601f01602080910402602001604051908101604052809291908181526020018280546132a69061573f565b80156132f35780601f106132c8576101008083540402835291602001916132f3565b820191906000526020600020905b8154815290600101906020018083116132d657829003601f168201915b505050505081526020016004820154815260200160058201548152602001600682015481526020016007820154815250508383815181106133475760e060020a634e487b7102600052603260045260246000fd5b602090810291909101015261335d600183615727565b91505b8061336a81615777565b91505061313f565b6060600061337f83614bb7565b905060008167ffffffffffffffff8111156133ad5760e060020a634e487b7102600052604160045260246000fd5b60405190808252806020026020018201604052801561341057816020015b6133fd6040518060a0016040528060008152602001606081526020016060815260200160008152602001600081525090565b8152602001906001900390816133cb5790505b5090506000805b600354811015610a0a5785600382815481106134465760e060020a634e487b7102600052603260045260246000fd5b906000526020600020906005020160030154141561361957600381815481106134825760e060020a634e487b7102600052603260045260246000fd5b90600052602060002090600502016040518060a0016040529081600082015481526020016001820180546134b59061573f565b80601f01602080910402602001604051908101604052809291908181526020018280546134e19061573f565b801561352e5780601f106135035761010080835404028352916020019161352e565b820191906000526020600020905b81548152906001019060200180831161351157829003601f168201915b505050505081526020016002820180546135479061573f565b80601f01602080910402602001604051908101604052809291908181526020018280546135739061573f565b80156135c05780601f10613595576101008083540402835291602001916135c0565b820191906000526020600020905b8154815290600101906020018083116135a357829003601f168201915b50505050508152602001600382015481526020016004820154815250508383815181106136005760e060020a634e487b7102600052603260045260246000fd5b6020908102919091010152613616600183615727565b91505b8061362381615777565b915050613417565b606060006136388361492a565b905060008167ffffffffffffffff8111156136665760e060020a634e487b7102600052604160045260246000fd5b60405190808252806020026020018201604052801561369f57816020015b61368c614c23565b8152602001906001900390816136845790505b5090506000805b600654811015610a0a5785600682815481106136d55760e060020a634e487b7102600052603260045260246000fd5b90600052602060002090600602016005015414156138b257600681815481106137115760e060020a634e487b7102600052603260045260246000fd5b90600052602060002090600602016040518060c0016040529081600082015481526020016001820180546137449061573f565b80601f01602080910402602001604051908101604052809291908181526020018280546137709061573f565b80156137bd5780601f10613792576101008083540402835291602001916137bd565b820191906000526020600020905b8154815290600101906020018083116137a057829003601f168201915b505050505081526020016002820180546137d69061573f565b80601f01602080910402602001604051908101604052809291908181526020018280546138029061573f565b801561384f5780601f106138245761010080835404028352916020019161384f565b820191906000526020600020905b81548152906001019060200180831161383257829003601f168201915b5050505050815260200160038201548152602001600482015481526020016005820154815250508383815181106138995760e060020a634e487b7102600052603260045260246000fd5b60209081029190910101526138af600183615727565b91505b806138bc81615777565b9150506136a6565b600080805b600654811015610d195783600682815481106138f85760e060020a634e487b7102600052603260045260246000fd5b906000526020600020906006020160030154141561391e5761391b600183615727565b91505b8061392881615777565b9150506138c9565b6139706040518060e00160405280600081526020016060815260200160008152602001600081526020016060815260200160008152602001600081525090565b60005b6005548110156111035782600582815481106139a25760e060020a634e487b7102600052603260045260246000fd5b9060005260206000209060070201600001541415613b5557600581815481106139de5760e060020a634e487b7102600052603260045260246000fd5b90600052602060002090600702016040518060e001604052908160008201548152602001600182018054613a119061573f565b80601f0160208091040260200160405190810160405280929190818152602001828054613a3d9061573f565b8015613a8a5780601f10613a5f57610100808354040283529160200191613a8a565b820191906000526020600020905b815481529060010190602001808311613a6d57829003601f168201915b505050505081526020016002820154815260200160038201548152602001600482018054613ab79061573f565b80601f0160208091040260200160405190810160405280929190818152602001828054613ae39061573f565b8015613b305780601f10613b0557610100808354040283529160200191613b30565b820191906000526020600020905b815481529060010190602001808311613b1357829003601f168201915b5050505050815260200160058201548152602001600682015481525050915050919050565b80613b5f81615777565b915050613973565b6040805160808101825260095481526020808201858152928201849052606082018690526001805480820182556000918252835160049091027fb10e2d527612073b26eecdfd717e6a320cf44b4afac2b0732d9fcbe2b7fa0cf681019182559451805192959193613bff937fb10e2d527612073b26eecdfd717e6a320cf44b4afac2b0732d9fcbe2b7fa0cf790930192910190614c59565b5060408201518051613c1b916002840191602090910190614c59565b506060919091015160039091015560098054906001906000613c3d8385615727565b90915550506040518181527f101b8ce2e1b11f01152c70ce8aaf6c82e8a3af259115d7032b0be0806ba1947b906020015b60405180910390a1949350505050565b6040805160c081018252600e5481526020808201858152928201849052606082018890526080820187905260a0820186905260068054600181018255600082815284517ff652222313e28459528d920b65115c16c04f3efc82aaedc97be59f3f377c0d3f92909302918201928355945180519293613d23937ff652222313e28459528d920b65115c16c04f3efc82aaedc97be59f3f377c0d4090930192910190614c59565b5060408201518051613d3f916002840191602090910190614c59565b50606082015160038201556080820151600482015560a090910151600590910155600e546040518181527f7e7350040e5c9d9d9c606a903992ccf66dda4dac7016a5cec61aa00ff426f4299060200160405180910390a16001600e6000828254613da99190615727565b9091555090979650505050505050565b60606000613dc683610cad565b905060008167ffffffffffffffff811115613df45760e060020a634e487b7102600052604160045260246000fd5b604051908082528060200260200182016040528015613e5057816020015b613e3d6040518060800160405280600081526020016060815260200160608152602001600081525090565b815260200190600190039081613e125790505b5090506000805b600154811015610a0a578560018281548110613e865760e060020a634e487b7102600052603260045260246000fd5b906000526020600020906004020160030154141561404f5760018181548110613ec25760e060020a634e487b7102600052603260045260246000fd5b906000526020600020906004020160405180608001604052908160008201548152602001600182018054613ef59061573f565b80601f0160208091040260200160405190810160405280929190818152602001828054613f219061573f565b8015613f6e5780601f10613f4357610100808354040283529160200191613f6e565b820191906000526020600020905b815481529060010190602001808311613f5157829003601f168201915b50505050508152602001600282018054613f879061573f565b80601f0160208091040260200160405190810160405280929190818152602001828054613fb39061573f565b80156140005780601f10613fd557610100808354040283529160200191614000565b820191906000526020600020905b815481529060010190602001808311613fe357829003601f168201915b505050505081526020016003820154815250508383815181106140365760e060020a634e487b7102600052603260045260246000fd5b602090810291909101015261404c600183615727565b91505b8061405981615777565b915050613e57565b600080805b600654811015610d195783600682815481106140955760e060020a634e487b7102600052603260045260246000fd5b90600052602060002090600602016004015414156140bb576140b8600183615727565b91505b806140c581615777565b915050614066565b60408051808201909152600854815260208082018381526000805460018101825581805284517f290decd9548b62a8d60345a988386fc84ba6bc95484008f6362f93160ef3e563600290920291820190815592518051929594614157937f290decd9548b62a8d60345a988386fc84ba6bc95484008f6362f93160ef3e56490930192910190614c59565b5050600880549150600190600061416e8385615727565b90915550506040518181527f3eceb206415c0f0ca5dea3a04907e46fd723980f3a114f7805c45e5e5e204f939060200160405180910390a192915050565b606060006141b9836119c3565b905060008167ffffffffffffffff8111156141e75760e060020a634e487b7102600052604160045260246000fd5b60405190808252806020026020018201604052801561422057816020015b61420d614cdd565b8152602001906001900390816142055790505b5090506000805b600754811015610a0a5785600782815481106142565760e060020a634e487b7102600052603260045260246000fd5b906000526020600020906008020160060154141561444857600781815481106142925760e060020a634e487b7102600052603260045260246000fd5b906000526020600020906008020160405180610100016040529081600082015481526020016001820180546142c69061573f565b80601f01602080910402602001604051908101604052809291908181526020018280546142f29061573f565b801561433f5780601f106143145761010080835404028352916020019161433f565b820191906000526020600020905b81548152906001019060200180831161432257829003601f168201915b50505050508152602001600282015481526020016003820180546143629061573f565b80601f016020809104026020016040519081016040528092919081815260200182805461438e9061573f565b80156143db5780601f106143b0576101008083540402835291602001916143db565b820191906000526020600020905b8154815290600101906020018083116143be57829003601f168201915b5050505050815260200160048201548152602001600582015481526020016006820154815260200160078201548152505083838151811061442f5760e060020a634e487b7102600052603260045260246000fd5b6020908102919091010152614445600183615727565b91505b8061445281615777565b915050614227565b6060600061446783611109565b905060008167ffffffffffffffff8111156144955760e060020a634e487b7102600052604160045260246000fd5b6040519080825280602002602001820160405280156144f157816020015b6144de6040518060800160405280600081526020016060815260200160608152602001600081525090565b8152602001906001900390816144b35790505b5090506000805b600254811015610a0a5785600282815481106145275760e060020a634e487b7102600052603260045260246000fd5b90600052602060002090600402016003015414156146f057600281815481106145635760e060020a634e487b7102600052603260045260246000fd5b9060005260206000209060040201604051806080016040529081600082015481526020016001820180546145969061573f565b80601f01602080910402602001604051908101604052809291908181526020018280546145c29061573f565b801561460f5780601f106145e45761010080835404028352916020019161460f565b820191906000526020600020905b8154815290600101906020018083116145f257829003601f168201915b505050505081526020016002820180546146289061573f565b80601f01602080910402602001604051908101604052809291908181526020018280546146549061573f565b80156146a15780601f10614676576101008083540402835291602001916146a1565b820191906000526020600020905b81548152906001019060200180831161468457829003601f168201915b505050505081526020016003820154815250508383815181106146d75760e060020a634e487b7102600052603260045260246000fd5b60209081029190910101526146ed600183615727565b91505b806146fa81615777565b9150506144f8565b6040805160a081018252600b54815260208082018581529282018490526060820187905260808201869052600480546001810182556000918252835160059091027f8a35acfbc15ff81a39ae7d344fd709f28e8600b4aa8c65c6b64bfe7fe36bd19b810191825594518051929591936147a2937f8a35acfbc15ff81a39ae7d344fd709f28e8600b4aa8c65c6b64bfe7fe36bd19c90930192910190614c59565b50604082015180516147be916002840191602090910190614c59565b5060608201516003820155608090910151600490910155600b546040518181527fb8bdae7750b8aee9fe44da21d9ef2a5348edc16036798e108324d272ae96c22c9060200160405180910390a16001600b600082825461282a9190615727565b60408051608081018252600a548152602080820185815292820184905260608201869052600280546001810182556000918252835160049091027f405787fa12a823e0f2b7631cc41b3ba8828b3321ca811111fa75cd3aa3bb5ace810191825594518051929591936148b7937f405787fa12a823e0f2b7631cc41b3ba8828b3321ca811111fa75cd3aa3bb5acf90930192910190614c59565b50604082015180516148d3916002840191602090910190614c59565b5060609190910151600390910155600a80549060019060006148f58385615727565b90915550506040518181527f60d43d1d111ceefb7b9db2a3777616a53a6acf0d0a1a31a97959f4f36ee7b1e190602001613c6e565b600080805b600654811015610d1957836006828154811061495e5760e060020a634e487b7102600052603260045260246000fd5b906000526020600020906006020160050154141561498457614981600183615727565b91505b8061498e81615777565b91505061492f565b60606005805480602002602001604051908101604052809291908181526020016000905b82821015614b4257838290600052602060002090600702016040518060e0016040529081600082015481526020016001820180546149f79061573f565b80601f0160208091040260200160405190810160405280929190818152602001828054614a239061573f565b8015614a705780601f10614a4557610100808354040283529160200191614a70565b820191906000526020600020905b815481529060010190602001808311614a5357829003601f168201915b505050505081526020016002820154815260200160038201548152602001600482018054614a9d9061573f565b80601f0160208091040260200160405190810160405280929190818152602001828054614ac99061573f565b8015614b165780601f10614aeb57610100808354040283529160200191614b16565b820191906000526020600020905b815481529060010190602001808311614af957829003601f168201915b5050505050815260200160058201548152602001600682015481525050815260200190600101906149ba565b50505050905090565b600080805b600354811015610d19578360038281548110614b7f5760e060020a634e487b7102600052603260045260246000fd5b9060005260206000209060050201600401541415614ba557614ba2600183615727565b91505b80614baf81615777565b915050614b50565b600080805b600354811015610d19578360038281548110614beb5760e060020a634e487b7102600052603260045260246000fd5b9060005260206000209060050201600301541415614c1157614c0e600183615727565b91505b80614c1b81615777565b915050614bbc565b6040518060c001604052806000815260200160608152602001606081526020016000815260200160008152602001600081525090565b828054614c659061573f565b90600052602060002090601f016020900481019282614c875760008555614ccd565b82601f10614ca057805160ff1916838001178555614ccd565b82800160010185558215614ccd579182015b82811115614ccd578251825591602001919060010190614cb2565b50614cd9929150614d22565b5090565b60405180610100016040528060008152602001606081526020016000815260200160608152602001600081526020016000815260200160008152602001600081525090565b5b80821115614cd95760008155600101614d23565b600082601f830112614d47578081fd5b813567ffffffffffffffff80821115614d6257614d626157ab565b604051601f8301601f19908116603f01168101908282118183101715614d8a57614d8a6157ab565b81604052838152866020858801011115614da2578485fd5b8360208701602083013792830160200193909352509392505050565b600060208284031215614dcf578081fd5b813567ffffffffffffffff811115614de5578182fd5b614df184828501614d37565b949350505050565b600060208284031215614e0a578081fd5b5035919050565b600080600060608486031215614e25578182fd5b83359250602084013567ffffffffffffffff80821115614e43578384fd5b614e4f87838801614d37565b93506040860135915080821115614e64578283fd5b50614e7186828701614d37565b9150509250925092565b60008060008060008060c08789031215614e93578182fd5b8635955060208701359450604087013567ffffffffffffffff80821115614eb8578384fd5b614ec48a838b01614d37565b9550606089013594506080890135935060a0890135915080821115614ee7578283fd5b50614ef489828a01614d37565b9150509295509295509295565b60008060008060808587031215614f16578384fd5b8435935060208501359250604085013567ffffffffffffffff80821115614f3b578384fd5b614f4788838901614d37565b93506060870135915080821115614f5c578283fd5b50614f6987828801614d37565b91505092959194509250565b600080600080600080600060e0888a031215614f8f578081fd5b8735965060208801359550604088013567ffffffffffffffff80821115614fb4578283fd5b614fc08b838c01614d37565b965060608a0135955060808a0135915080821115614fdc578283fd5b50614fe98a828b01614d37565b93505060a0880135915060c0880135905092959891949750929550565b600080600080600060a0868803121561501d578081fd5b853594506020860135935060408601359250606086013567ffffffffffffffff80821115615049578283fd5b61505589838a01614d37565b9350608088013591508082111561506a578283fd5b5061507788828901614d37565b9150509295509295909350565b60008151808452815b818110156150a95760208185018101518683018201520161508d565b818111156150ba5782602083870101525b50601f01601f19169290920160200192915050565b8051825260006020820151608060208501526150ee6080850182615084565b9050604083015184820360408601526151078282615084565b915050606083015160608501528091505092915050565b805182526000602082015160e0602085015261513d60e0850182615084565b905060408301516040850152606083015160608501526080830151848203608086015261516a8282615084565b91505060a083015160a085015260c083015160c08501528091505092915050565b60006101008251845260208301518160208601526151ab82860182615084565b91505060408301516040850152606083015184820360608601526151cf8282615084565b9150506080830151608085015260a083015160a085015260c083015160c085015260e083015160e08501528091505092915050565b805182526000602082015160c0602085015261522360c0850182615084565b90506040830151848203604086015261523c8282615084565b915050606083015160608501526080830151608085015260a083015160a08501528091505092915050565b805182526000602082015160a0602085015261528660a0850182615084565b90506040830151848203604086015261529f8282615084565b91505060608301516060850152608083015160808501528091505092915050565b6000602080830181845280855180835260408601915060408482028701019250838701855b8281101561531357603f198886030184526153018583516150cf565b945092850192908501906001016152e5565b5092979650505050505050565b6000602080830181845280855180835260408601915060408482028701019250838701855b8281101561531357603f1988860301845261536185835161511e565b94509285019290850190600101615345565b6000602080830181845280855180835260408601915060408482028701019250838701855b8281101561531357603f198886030184526153b485835161518b565b94509285019290850190600101615398565b6000602080830181845280855180835260408601915060408482028701019250838701855b8281101561531357603f19888603018452615407858351615204565b945092850192908501906001016153eb565b6000602080830181845280855180835260408601915060408482028701019250838701855b8281101561531357603f1988860301845261545a858351615267565b9450928501929085019060010161543e565b6000602080830181845280855180835260408601915060408482028701019250838701855b8281101561531357603f198886030184526154ad858351615267565b94509285019290850190600101615491565b6000602080830181845280855180835260408601915060408482028701019250838701855b8281101561531357603f198886030184526155008583516150cf565b945092850192908501906001016154e4565b602081528151602082015260006020830151604080840152614df16060840182615084565b60208152600061554a60208301846150cf565b9392505050565b60208152600061554a602083018461511e565b60208152600061554a602083018461518b565b60208152600061554a6020830184615204565b60208152600061554a6020830184615267565b828152604060208201526000614df16040830184615084565b87815260e0602082015260006155cf60e0830189615084565b87604084015286606084015282810360808401526155ed8187615084565b60a0840195909552505060c0015295945050505050565b84815260806020820152600061561d6080830186615084565b828103604084015261562f8186615084565b91505082606083015295945050505050565b85815260a06020820152600061565a60a0830187615084565b828103604084015261566c8187615084565b60608401959095525050608001529392505050565b86815260c06020820152600061569a60c0830188615084565b82810360408401526156ac8188615084565b60608401969096525050608081019290925260a0909101529392505050565b60006101008a83528060208401526156e58184018b615084565b905088604084015282810360608401526156ff8189615084565b9150508560808301528460a08301528360c08301528260e08301529998505050505050505050565b6000821982111561573a5761573a615792565b500190565b60028104600182168061575357607f821691505b602082108114156111035760e060020a634e487b7102600052602260045260246000fd5b600060001982141561578b5761578b615792565b5060010190565b60e060020a634e487b7102600052601160045260246000fd5b60e060020a634e487b7102600052604160045260246000fdfea264697066735822122057a61a090bb979a91003128cb4703fe5aba939ff784069df10d5cc8b81a8e31064736f6c63430008040033",
  "immutableReferences": {},
  "source": "//SPDX-License-Identifier: LGPL-3.0-or-later\npragma solidity ^0.8.1;\npragma experimental ABIEncoderV2;\n\ncontract ICESmartContract {\n    struct Company {\n        uint256 id;\n        string name;\n    }\n\n    struct Machine {\n        uint256 id;\n        string name;\n        string description;\n        uint256 companyId;\n    }\n\n    struct Recipe {\n        uint256 id;\n        string name;\n        string description;\n        uint256 companyId;\n    }\n\n    struct Product {\n        uint256 id;\n        string name;\n        string description;\n        uint256 companyId;\n        uint256 recipeId;\n    }\n\n    struct RecipeStep {\n        uint256 id;\n        string name;\n        string description;\n        uint256 recipeId;\n        uint256 machineId;\n    }\n\n    struct MeasureConstraint {\n        uint256 id;\n        string name;\n        int256 maxMeasure;\n        int256 minMeasure;\n        string unitOfMeasure;\n        uint256 recipeStepId;\n        uint256 machineId;\n    }\n\n    struct Phase {\n        uint256 id;\n        string name;\n        string description;\n        uint256 productId;\n        uint256 machineId;\n        uint256 recipeStepId;\n    }\n\n    struct Measure {\n        uint256 id;\n        string name;\n        uint256 measure;\n        string unitOfMeasure;\n        uint256 measureStartTime;\n        uint256 measureEndTime;\n        uint256 phaseId;\n        uint256 measureConstraintId;\n    }\n\n    // struct ProductInformation {\n    //     Product product;\n    //     Company company;\n    //     Phase[] phases;\n    //     Machine[] machinesUsed;\n    //     Recipe recipeUsed;\n    //     RecipeStep[] recipeSteps;\n    //     Measure[] allMeasures;\n    // }\n\n    Company[] public companies;\n    Machine[] public machines;\n    Recipe[] public recipes;\n    Product[] public products;\n    RecipeStep[] public recipeSteps;\n    MeasureConstraint[] public measureConstraints;\n    Phase[] public phases;\n    Measure[] public measures;\n\n    uint256 private companyIdCounter;\n    uint256 private machineIdCounter;\n    uint256 private recipeIdCounter;\n    uint256 private recipeStepIdCounter;\n    uint256 private measureConstraintIdCounter;\n    uint256 private productIdCounter;\n    uint256 private phaseIdCounter;\n    uint256 private measureIdCounter;\n\n    event CompanyCreated(uint256 id);\n    event MachineCreated(uint256 id);\n    event RecipeCreated(uint256 id);\n    event RecipeStepCreated(uint256 id);\n    event MeasureConstraintCreated(uint256 id);\n    event ProductCreated(uint256 id);\n    event PhaseCreated(uint256 id);\n    event MeasureCreated(uint256 id);\n\n    function addCompany(string memory name) public returns (uint256 companyId) {\n        companies.push(Company(companyIdCounter, name));\n        uint256 id = companyIdCounter;\n        companyIdCounter += 1;\n        emit CompanyCreated(id);\n        return id;\n    }\n\n    function addMachine(\n        uint256 companyId,\n        string memory name,\n        string memory description\n    ) public returns (uint256 machineId) {\n        machines.push(Machine(machineIdCounter, name, description, companyId));\n        uint256 id = machineIdCounter;\n        machineIdCounter += 1;\n        emit MachineCreated(id);\n        return id;\n    }\n\n    function addRecipe(\n        uint256 companyId,\n        string memory name,\n        string memory description\n    ) public returns (uint256 recipeId) {\n        recipes.push(Recipe(recipeIdCounter, name, description, companyId));\n        uint256 id = recipeIdCounter;\n        recipeIdCounter += 1;\n        emit RecipeCreated(id);\n        return id;\n    }\n\n    function addRecipeStep(\n        uint256 recipeId,\n        uint256 machineId,\n        string memory name,\n        string memory description\n    ) public returns (uint256 recipeStepId) {\n        recipeSteps.push(\n            RecipeStep(\n                recipeStepIdCounter,\n                name,\n                description,\n                recipeId,\n                machineId\n            )\n        );\n        uint256 id = recipeStepIdCounter;\n        emit RecipeStepCreated(id);\n        recipeStepIdCounter += 1;\n        return id;\n    }\n\n    function addMeasureConstraint(\n        uint256 recipeStepId,\n        uint256 machineId,\n        string memory name,\n        int256 maxMeasure,\n        int256 minMeasure,\n        string memory unitOfMeasure\n    ) public returns (uint256 measureId) {\n        measureConstraints.push(\n            MeasureConstraint(\n                measureConstraintIdCounter,\n                name,\n                maxMeasure,\n                minMeasure,\n                unitOfMeasure,\n                recipeStepId,\n                machineId\n            )\n        );\n        uint256 id = measureConstraintIdCounter;\n        measureConstraintIdCounter += 1;\n        emit MeasureConstraintCreated(id);\n        return id;\n    }\n\n    function addProduct(\n        uint256 companyId,\n        uint256 recipyId,\n        string memory name,\n        string memory description\n    ) public returns (uint256 productId) {\n        products.push(\n            Product(productIdCounter, name, description, companyId, recipyId)\n        );\n        uint256 id = productIdCounter;\n        emit ProductCreated(id);\n        productIdCounter += 1;\n        return id;\n    }\n\n    function addPhase(\n        uint256 productId,\n        uint256 machineId,\n        uint256 recipeStepId,\n        string memory name,\n        string memory description\n    ) public returns (uint256 phaseId) {\n        phases.push(\n            Phase(\n                phaseIdCounter,\n                name,\n                description,\n                productId,\n                machineId,\n                recipeStepId\n            )\n        );\n        uint256 id = phaseIdCounter;\n        emit PhaseCreated(id);\n        phaseIdCounter += 1;\n        return id;\n    }\n\n    function addMeasure(\n        uint256 phaseId,\n        uint256 measureConstraintId,\n        string memory name,\n        uint256 measure, \n        string memory unitOfMeasure,\n        uint256 measureStartTime,\n        uint256 measureEndTime\n    ) public returns (uint256 measureId) {\n        measures.push(\n            Measure(\n                measureIdCounter,\n                name,\n                measure, \n                unitOfMeasure,\n                measureStartTime,\n                measureEndTime,\n                phaseId,\n                measureConstraintId\n            )\n        );\n        uint256 id = measureIdCounter;\n        emit MeasureCreated(id);\n        measureIdCounter += 1;\n        return id;\n    }\n\n    function getCompanyById(uint256 companyId)\n        public\n        view\n        returns (Company memory company)\n    {\n        for (\n            uint256 companyIndex;\n            companyIndex < companies.length;\n            companyIndex++\n        ) {\n            if (companies[companyIndex].id == companyId) {\n                return companies[companyIndex];\n            }\n        }\n    }\n\n    function getRecipebyId(uint256 recipeId)\n        public\n        view\n        returns (Recipe memory recipe)\n    {\n        for (uint256 recipeIndex; recipeIndex < recipes.length; recipeIndex++) {\n            if (recipes[recipeIndex].id == recipeId) {\n                return recipes[recipeIndex];\n            }\n        }\n    }\n\n    function getRecipeStepbyId(uint256 recipeStepId)\n        public\n        view\n        returns (RecipeStep memory recipeStep)\n    {\n        for (\n            uint256 recipeStepIndex;\n            recipeStepIndex < recipeSteps.length;\n            recipeStepIndex++\n        ) {\n            if (recipeSteps[recipeStepIndex].id == recipeStepId) {\n                return recipeSteps[recipeStepIndex];\n            }\n        }\n    }\n\n    function getMeasureConstraintById(uint256 measureConstraintId)\n        public\n        view\n        returns (MeasureConstraint memory measureConstraint)\n    {\n        for (\n            uint256 measureConstraintIndex;\n            measureConstraintIndex < measureConstraints.length;\n            measureConstraintIndex++\n        ) {\n            if (\n                measureConstraints[measureConstraintIndex].id ==\n                measureConstraintId\n            ) {\n                return measureConstraints[measureConstraintIndex];\n            }\n        }\n    }\n\n    function getProductById(uint256 productId)\n        public\n        view\n        returns (Product memory product)\n    {\n        for (\n            uint256 productIndex;\n            productIndex < products.length;\n            productIndex++\n        ) {\n            if (products[productIndex].id == productId) {\n                return products[productIndex];\n            }\n        }\n    }\n\n    function getPhaseById(uint256 phaseId)\n        public\n        view\n        returns (Phase memory phase)\n    {\n        for (uint256 phaseIndex; phaseIndex < phases.length; phaseIndex++) {\n            if (phases[phaseIndex].id == phaseId) {\n                return phases[phaseIndex];\n            }\n        }\n    }\n\n    function getMeasureById(uint256 measureId)\n        public\n        view\n        returns (Measure memory measure)\n    {\n        for (\n            uint256 measureIndex;\n            measureIndex < measures.length;\n            measureIndex++\n        ) {\n            if (measures[measureIndex].id == measureId) {\n                return measures[measureIndex];\n            }\n        }\n    }\n\n    function getMachineById(uint256 machineId)\n        public\n        view\n        returns (Machine memory machine)\n    {\n        for (\n            uint256 machineIndex;\n            machineIndex < machines.length;\n            machineIndex++\n        ) {\n            if (machines[machineIndex].id == machineId) {\n                return machines[machineIndex];\n            }\n        }\n    }\n\n    function getNumOfProductsByCompanyId(uint256 companyId)\n        private\n        view\n        returns (uint256 numOfProducts)\n    {\n        uint256 productCounter = 0;\n        for (\n            uint256 productIndex = 0;\n            productIndex < products.length;\n            productIndex++\n        ) {\n            if (products[productIndex].companyId == companyId) {\n                productCounter += 1;\n            }\n        }\n        return productCounter;\n    }\n\n    function getProductsByCompanyId(uint256 companyId)\n        public\n        view\n        returns (Product[] memory)\n    {\n        uint256 numOfProducts = getNumOfProductsByCompanyId(companyId);\n        Product[] memory productTemp = new Product[](numOfProducts);\n        uint256 productCounter = 0;\n        for (\n            uint256 productIndex = 0;\n            productIndex < products.length;\n            productIndex++\n        ) {\n            if (products[productIndex].companyId == companyId) {\n                productTemp[productCounter] = products[productIndex];\n                productCounter += 1;\n            }\n        }\n        return productTemp;\n    }\n\n    function getNumOfProductsByRecipeId(uint256 recipeId)\n        private\n        view\n        returns (uint256 numOfProducts)\n    {\n        uint256 productCounter = 0;\n        for (\n            uint256 productIndex = 0;\n            productIndex < products.length;\n            productIndex++\n        ) {\n            if (products[productIndex].recipeId == recipeId) {\n                productCounter += 1;\n            }\n        }\n        return productCounter;\n    }\n\n    function getProductsByRecipyId(uint256 recipeId)\n        public\n        view\n        returns (Product[] memory)\n    {\n        uint256 numOfProducts = getNumOfProductsByRecipeId(recipeId);\n        Product[] memory productTemp = new Product[](numOfProducts);\n        uint256 productCounter = 0;\n        for (\n            uint256 productIndex = 0;\n            productIndex < products.length;\n            productIndex++\n        ) {\n            if (products[productIndex].recipeId == recipeId) {\n                productTemp[productCounter] = products[productIndex];\n                productCounter += 1;\n            }\n        }\n        return productTemp;\n    }\n\n    function getNumOfMachinesByCompanyId(uint256 companyId)\n        public\n        view\n        returns (uint256 numOfMachines)\n    {\n        uint256 machineCounter = 0;\n\n        for (\n            uint256 machineIndex = 0;\n            machineIndex < machines.length;\n            machineIndex++\n        ) {\n            if (machines[machineIndex].companyId == companyId) {\n                machineCounter += 1;\n            }\n        }\n        return machineCounter;\n    }\n\n    function getMachinesByCompanyId(uint256 companyId)\n        public\n        view\n        returns (Machine[] memory)\n    {\n        uint256 numOfMachine = getNumOfMachinesByCompanyId(companyId);\n        Machine[] memory machineTemp = new Machine[](numOfMachine);\n        uint256 machineCounter = 0;\n        for (\n            uint256 machineIndex = 0;\n            machineIndex < machines.length;\n            machineIndex++\n        ) {\n            if (machines[machineIndex].companyId == companyId) {\n                machineTemp[machineCounter] = machines[machineIndex];\n                machineCounter += 1;\n            }\n        }\n        return machineTemp;\n    }\n\n    function getNumOfRecipesByCompanyId(uint256 companyId)\n        public\n        view\n        returns (uint256 numOfRecepes)\n    {\n        uint256 counter = 0;\n\n        for (\n            uint256 recipesIndex = 0;\n            recipesIndex < recipes.length;\n            recipesIndex++\n        ) {\n            if (recipes[recipesIndex].companyId == companyId) {\n                counter += 1;\n            }\n        }\n        return counter;\n    }\n\n    function getRecipesByCompanyId(uint256 companyId)\n        public\n        view\n        returns (Recipe[] memory)\n    {\n        uint256 numOfRecepies = getNumOfRecipesByCompanyId(companyId);\n        Recipe[] memory recipeTemp = new Recipe[](numOfRecepies);\n        uint256 recipeCounter = 0;\n        for (\n            uint256 recipeIndex = 0;\n            recipeIndex < recipes.length;\n            recipeIndex++\n        ) {\n            if (recipes[recipeIndex].companyId == companyId) {\n                recipeTemp[recipeCounter] = recipes[recipeIndex];\n                recipeCounter += 1;\n            }\n        }\n        return recipeTemp;\n    }\n\n    function getNumOfRecipeStepsByRecipeId(uint256 recipeId)\n        public\n        view\n        returns (uint256 numOfRecepes)\n    {\n        uint256 counter = 0;\n\n        for (\n            uint256 recipeIndex = 0;\n            recipeIndex < recipeSteps.length;\n            recipeIndex++\n        ) {\n            if (recipeSteps[recipeIndex].recipeId == recipeId) {\n                counter += 1;\n            }\n        }\n        return counter;\n    }\n\n    function getRecipeStepsByRecipeId(uint256 recipeId)\n        public\n        view\n        returns (RecipeStep[] memory)\n    {\n        uint256 numOfRecipes = getNumOfRecipeStepsByRecipeId(recipeId);\n        RecipeStep[] memory recipeTemp = new RecipeStep[](numOfRecipes);\n        uint256 recipeCounter = 0;\n        for (\n            uint256 recipeIndex = 0;\n            recipeIndex < recipeSteps.length;\n            recipeIndex++\n        ) {\n            if (recipeSteps[recipeIndex].recipeId == recipeId) {\n                recipeTemp[recipeCounter] = recipeSteps[recipeIndex];\n                recipeCounter += 1;\n            }\n        }\n        return recipeTemp;\n    }\n\n    function getNumOfRecipeStepsByMachineId(uint256 machineId)\n        public\n        view\n        returns (uint256 numOfRecepes)\n    {\n        uint256 counter = 0;\n\n        for (\n            uint256 recipeIndex = 0;\n            recipeIndex < recipeSteps.length;\n            recipeIndex++\n        ) {\n            if (recipeSteps[recipeIndex].machineId == machineId) {\n                counter += 1;\n            }\n        }\n        return counter;\n    }\n\n    function getRecipeStepsByMachineId(uint256 machineId)\n        public\n        view\n        returns (RecipeStep[] memory)\n    {\n        uint256 numOfRecipes = getNumOfRecipeStepsByMachineId(machineId);\n        RecipeStep[] memory recipeTemp = new RecipeStep[](numOfRecipes);\n        uint256 recipeCounter = 0;\n        for (\n            uint256 recipeIndex = 0;\n            recipeIndex < recipeSteps.length;\n            recipeIndex++\n        ) {\n            if (recipeSteps[recipeIndex].machineId == machineId) {\n                recipeTemp[recipeCounter] = recipeSteps[recipeIndex];\n                recipeCounter += 1;\n            }\n        }\n        return recipeTemp;\n    }\n\n    function getNumOfMeasureConstraintByRecipeStepId(uint256 recipeStepId)\n        public\n        view\n        returns (uint256 numOfMeasureConstraints)\n    {\n        uint256 counter = 0;\n\n        for (\n            uint256 measureConstraintIndex = 0;\n            measureConstraintIndex < measureConstraints.length;\n            measureConstraintIndex++\n        ) {\n            if (\n                measureConstraints[measureConstraintIndex].recipeStepId ==\n                recipeStepId\n            ) {\n                counter += 1;\n            }\n        }\n        return counter;\n    }\n\n    function getMeasureConstraintsByRecipeStepId(uint256 recipeStepId)\n        public\n        view\n        returns (MeasureConstraint[] memory)\n    {\n        uint256 numOfMeasureConstraints =\n            getNumOfMeasureConstraintByRecipeStepId(recipeStepId);\n        MeasureConstraint[] memory measureConstraintTemp =\n            new MeasureConstraint[](numOfMeasureConstraints);\n        uint256 measureConstraintCounter = 0;\n        for (\n            uint256 measureConstraintIndex = 0;\n            measureConstraintIndex < measureConstraints.length;\n            measureConstraintIndex++\n        ) {\n            if (\n                measureConstraints[measureConstraintIndex].recipeStepId ==\n                recipeStepId\n            ) {\n                measureConstraintTemp[\n                    measureConstraintCounter\n                ] = measureConstraints[measureConstraintIndex];\n                measureConstraintCounter += 1;\n            }\n        }\n        return measureConstraintTemp;\n    }\n\n    function getNumOfPhasesByProductId(uint256 productId)\n        public\n        view\n        returns (uint256 numOfPhases)\n    {\n        uint256 counter = 0;\n\n        for (uint256 phaseIndex = 0; phaseIndex < phases.length; phaseIndex++) {\n            if (phases[phaseIndex].productId == productId) {\n                counter += 1;\n            }\n        }\n        return counter;\n    }\n\n    function getPhasesByProductId(uint256 productId)\n        public\n        view\n        returns (Phase[] memory)\n    {\n        uint256 numOfPhases = getNumOfPhasesByProductId(productId);\n        Phase[] memory phaseTemp = new Phase[](numOfPhases);\n        uint256 phaseCounter = 0;\n        for (uint256 phaseIndex = 0; phaseIndex < phases.length; phaseIndex++) {\n            if (phases[phaseIndex].productId == productId) {\n                phaseTemp[phaseCounter] = phases[phaseIndex];\n                phaseCounter += 1;\n            }\n        }\n        return phaseTemp;\n    }\n\n    function getNumOfPhasesByMachineId(uint256 machineId)\n        public\n        view\n        returns (uint256 numOfPhases)\n    {\n        uint256 counter = 0;\n\n        for (uint256 phaseIndex = 0; phaseIndex < phases.length; phaseIndex++) {\n            if (phases[phaseIndex].machineId == machineId) {\n                counter += 1;\n            }\n        }\n        return counter;\n    }\n\n    function getPhasesByMachineId(uint256 machineId)\n        public\n        view\n        returns (Phase[] memory)\n    {\n        uint256 numOfPhases = getNumOfPhasesByMachineId(machineId);\n        Phase[] memory phaseTemp = new Phase[](numOfPhases);\n        uint256 phaseCounter = 0;\n        for (uint256 phaseIndex = 0; phaseIndex < phases.length; phaseIndex++) {\n            if (phases[phaseIndex].machineId == machineId) {\n                phaseTemp[phaseCounter] = phases[phaseIndex];\n                phaseCounter += 1;\n            }\n        }\n        return phaseTemp;\n    }\n\n    function getNumOfPhasesByRecipeStepId(uint256 recipeStepId)\n        public\n        view\n        returns (uint256 numOfPhases)\n    {\n        uint256 counter = 0;\n\n        for (uint256 phaseIndex = 0; phaseIndex < phases.length; phaseIndex++) {\n            if (phases[phaseIndex].recipeStepId == recipeStepId) {\n                counter += 1;\n            }\n        }\n        return counter;\n    }\n\n    function getPhasesByRecipeStepId(uint256 recipeStepId)\n        public\n        view\n        returns (Phase[] memory)\n    {\n        uint256 numOfPhases = getNumOfPhasesByRecipeStepId(recipeStepId);\n        Phase[] memory phaseTemp = new Phase[](numOfPhases);\n        uint256 phaseCounter = 0;\n        for (uint256 phaseIndex = 0; phaseIndex < phases.length; phaseIndex++) {\n            if (phases[phaseIndex].recipeStepId == recipeStepId) {\n                phaseTemp[phaseCounter] = phases[phaseIndex];\n                phaseCounter += 1;\n            }\n        }\n        return phaseTemp;\n    }\n\n    function getNumOfMeasuresByPhaseId(uint256 phaseId)\n        public\n        view\n        returns (uint256 numOfMeasures)\n    {\n        uint256 counter = 0;\n\n        for (\n            uint256 measureIndex = 0;\n            measureIndex < measures.length;\n            measureIndex++\n        ) {\n            if (measures[measureIndex].phaseId == phaseId) {\n                counter += 1;\n            }\n        }\n        return counter;\n    }\n\n    function getMeasuresByPhaseId(uint256 phaseId)\n        public\n        view\n        returns (Measure[] memory)\n    {\n        uint256 numOfMeasures = getNumOfMeasuresByPhaseId(phaseId);\n        Measure[] memory measureTemp = new Measure[](numOfMeasures);\n        uint256 measureCounter = 0;\n        for (\n            uint256 measureIndex = 0;\n            measureIndex < measures.length;\n            measureIndex++\n        ) {\n            if (measures[measureIndex].phaseId == phaseId) {\n                measureTemp[measureCounter] = measures[measureIndex];\n                measureCounter += 1;\n            }\n        }\n        return measureTemp;\n    }\n\n    function getNumOfMeasureConstraintsByMeasureConstraintId(\n        uint256 measureConstraintId\n    ) public view returns (uint256 numOfMeasures) {\n        uint256 counter = 0;\n\n        for (\n            uint256 measureIndex = 0;\n            measureIndex < measures.length;\n            measureIndex++\n        ) {\n            if (\n                measures[measureIndex].measureConstraintId ==\n                measureConstraintId\n            ) {\n                counter += 1;\n            }\n        }\n        return counter;\n    }\n\n    function getMeasuresByMeasureConstraintId(uint256 measureConstraintId)\n        public\n        view\n        returns (Measure[] memory)\n    {\n        uint256 numOfMeasures =\n            getNumOfMeasureConstraintsByMeasureConstraintId(\n                measureConstraintId\n            );\n        Measure[] memory measureTemp = new Measure[](numOfMeasures);\n        uint256 measureCounter = 0;\n        for (\n            uint256 measureIndex = 0;\n            measureIndex < measures.length;\n            measureIndex++\n        ) {\n            if (\n                measures[measureIndex].measureConstraintId ==\n                measureConstraintId\n            ) {\n                measureTemp[measureCounter] = measures[measureIndex];\n                measureCounter += 1;\n            }\n        }\n        return measureTemp;\n    }\n\n    function getMeasureConstraints()\n        public\n        view\n        returns (MeasureConstraint[] memory)\n    {\n        return measureConstraints;\n    }\n\n    // function getMachinesByListOfPhase(Phase[] memory phasesUsed)\n    //     public\n    //     view\n    //     returns (Machine[] memory)\n    // {\n    //     Machine[] memory machinesUsed = new Machine[](phasesUsed.length);\n    //     for (uint256 phaseIndex; phaseIndex < phasesUsed.length; phaseIndex++) {\n    //         uint256 machineId = phasesUsed[phaseIndex].machineId;\n    //         machinesUsed[phaseIndex] = getMachineById(machineId);\n    //     }\n    //     return machinesUsed;\n    // }\n\n    // function getRecipeStepsByListOfPhase(Phase[] memory phasesUsed)\n    //     public\n    //     view\n    //     returns (RecipeStep[] memory)\n    // {\n    //     RecipeStep[] memory recipeStepsInPhases = new RecipeStep[](phasesUsed.length);\n    //     for (uint256 phaseIndex; phaseIndex < phasesUsed.length; phaseIndex++) {\n    //         uint256 recipeStepId = phasesUsed[phaseIndex].recipeStepId;\n    //         recipeStepsInPhases[phaseIndex] = getRecipeStepbyId(recipeStepId);\n    //     }\n    //     return recipeStepsInPhases;\n    // }\n\n    // function getAllMeasuresByListOfPhase(Phase[] memory phasesUsed) private view returns (mapping(uint256 => Measure[]) storage){\n    //     mapping(uint256 => Measure[]) storage prova;\n    // }\n\n    // function getProductInformationById(uint256 productId)\n    //     public\n    //     view\n    //     returns (ProductInformation memory)\n    // {\n    //     Product memory product = getProductById(productId);\n    //     Company memory company = getCompanyById(product.companyId);\n    //     Phase[] memory phases = getPhasesByProductId(productId);\n    //     Machine[] memory machines = getMachinesByListOfPhase(phases);\n    //     Recipe memory recipe = getRecipesbyId(product.recipeId);\n    //     RecipeStep[] memory recipeSteps = getRecipeStepsByListOfPhase(phases);\n\n    // }\n}\n",
  "sourcePath": "/home/giovanni/Scrivania/smart_contracts_cyber_securety/contracts/ICESmartContract.sol",
  "compiler": {
    "name": "solc",
    "version": "0.8.4+commit.c7e474f2.Emscripten.clang"
  },
  "schemaVersion": "3.4.1",
  "updatedAt": "2021-06-03T09:04:21.199Z",
  "devdoc": {
    "kind": "dev",
    "methods": {},
    "version": 1
  },
  "userdoc": {
    "kind": "user",
    "methods": {},
    "version": 1
  }
}